:020000040800F2
:1000000000200020990100089D010008A1010008BE
:1000100000000000000000000000000000000000E0
:10002000000000000000000000000000A501000822
:100030000000000000000000A9010008AD01000858
:10004000B501000800000000B5010008B501000876
:10005000B5010008B5010008B5010008B5010008A8
:1000600000000000B5010008B5010008B501000856
:10007000B5010008B5010008B50100080000000046
:10008000911200080000000000000000B501000807
:10009000B5010008B5010008B5010008B501000868
:1000A000B5010008B5010008B5010008811100087C
:1000B000B501000800000000000000000000000082
:1000C0005FF808F170B582B000F056FB2748284B66
:1000D000984207D2C243D2189208013292000021FE
:1000E00001F0AEFE2348244B984207D2C243D218F7
:1000F000920801329200214901F060FE00F040FBBD
:10010000684601A900F02CFB1D4E1E4D0024AD1BBE
:10011000AD10002D05DDA300F35801349847AC4223
:10012000F9D1194E194D0024AD1BAD10002D05DD80
:10013000A300F35801349847AC42F9D100980199D3
:1001400000F050FE124B134D061CED1AAD10002DA1
:1001500009DD013DAC00E41800E0013D236898474B
:10016000043C002DF9D1301C00F0F2FAB000002060
:100170002802002000000020B000002048220008D3
:10018000B8010008B8010008B8010008B80100086B
:10019000B8010008B801000805480047FEE7C0465E
:1001A000FEE7C046FEE7C046FEE7C046FEE70000A9
:0801B000C5000008FEE7C0468F
:1001B8000B688A6810B51A43CB68C4681A430B6980
:1001C8001A434B691A43044B234013430A795203D9
:1001D8001343C36010BDC04603D2FFFF0023036072
:1001E80003718360C36003614361704782680029BB
:1001F80003D10223134383607047012313438360B1
:10020800FAE7C046836A1943816242617047C04673
:10021800826880231B06134383608268094BD20FD0
:10022800D20705E08268013BD20FD207002B01D02C
:10023800002AF7D18368002B01DB006C704700208F
:10024800FCE7C046FFEF0000826804231343836085
:100258007047C046006C80B27047C046CB0107D5D6
:100268008068044B18400140481E8141C8B270475D
:100278000068F8E7FFFFFFFEF0B55F4656464446C4
:100288004D46F0B483B001910F680321002200238A
:100298000126884603E001330232102B2BD0341C90
:1002A8009C403D1C2540A542F5D1019C01212479A3
:1002B8004942A3468C46DC446446012C22D9454673
:1002C8009540ED430199AC460568644625400560B4
:1002D80005685C4694402C430460C46845469540D4
:1002E800AC43C460CC79C56894402C430133C460E6
:1002F8000232102BD3D103B03CBC90469946A2469B
:10030800AB46F0BD444681689440E4432140816097
:100318000199A44649798468914021438160818884
:10032800A9438180019984888D799D402543ADB288
:100338008580C9E7008A0840431E9841C0B27047CB
:10034800816170470185704707230B40C908890000
:10035800401810B5016A9B000F249C40A14301621C
:10036800016A9A40131C0B43036210BD4D4A0C21CD
:10037800536870B50B40041C042B09D008D9082B0E
:1003880000D16CE00C2B03D147490160002002E04A
:10039800464900202160434B454D5A680E1C120601
:1003A800120FAA5CD6406660321C5E687605760F2E
:1003B800AD5DEA40A2601D6BEE0547D43D4BE3609E
:1003C800384B1B6B5E063ED43B4B2361354B1D6B94
:1003D8000B1CEE0600D4354B324D63612E6B0323A4
:1003E800334221D1A2612F4DC0232E6B9B021E42A6
:1003F80007D1E2612B4B1B6B1A0600D42A482062F6
:1004080070BD2E6B80221E405202964237D0296B57
:10041800802219409202914240D02A6B1A409A4297
:10042800E8D1224BE361E5E72E6B1E40012E24D074
:100438002E6B1E40022E2DD02D6B2B40032BD2D1BC
:100448001A4BA361CFE780231B02BEE75B685D04FC
:1004580002D45308E360B3E79308E360B0E7556854
:10046800C023AD0251682D0F5B020235194208D135
:10047800124868432060011C8DE7A161B3E7E16180
:10048800B8E7D36A0F2119400131084801F042FC4E
:100498006843EFE780231B02A361A4E780231B02C4
:1004A800E361A7E700100240006CDC0200127A004A
:1004B80000000020809FD5001280000000093D0048
:1004C800044B5A69002902D182435A61704710438C
:1004D8005861FBE700100240044B9A69002902D1D9
:1004E80082439A61704710439861FBE7001002400D
:1004F800044BDA69002902D18243DA61704710435C
:10050800D861FBE70010024003881B4A10B59BB274
:10051800904224D08022D205904220D0174A90429F
:100528001DD0174A904221D0164C0A892340134304
:1005380003804B68C3620B8803850F4B98420BD02E
:10054800114B984208D0114B984205D0104B984255
:1005580002D00123838210BD8B7A0386F9E77022CB
:1005680093434A881343064A9042DDD103804B687F
:10057800C3620B880385ECE7002C014000040040AF
:1005880000100040FFFCFFFF004001400044014014
:100598000048014041627047002904D103880122C4
:1005A8009343038070470288012313430380F9E7CC
:1005B8008389002A02D18B43838170471943818143
:1005C800FBE7C046038A808982B200200B4203D031
:1005D80011404A1E9141C8B27047C046C94389B20A
:1005E80001827047036801229343F0B503604268B3
:1005F800224B0D1C896813400B4343600268204B53
:1006080069681A40EB688BB00B432969041C0B43DB
:100618001343036082681B4B13406A69134383606A
:1006280001A8FFF7A3FE184B9C4222D0174B9C420F
:1006380021D0039F2368190400D57F002E68381C39
:10064800311C01F067FB311C051C381C01F0A6FBAE
:1006580076080023B1425B41ED1823681A0404D5DB
:100668000B4A2B075B0F15401D43ADB2A5810BB09C
:10067800F0BD079FDEE7089FDCE7C046FFCFFFFF1E
:10068800F3E9FFFFFFFCFFFF003801400044004092
:10069800F0FF0000002904D103680122934303609E
:1006A80070470268012313430360F9E7C905C90DC0
:1006B80001857047808CC005C00D704710B5FF24B8
:1006C8008BB2214001248C401B0A211C022B0AD02A
:1006D800032B0AD00368002A02D18B43036010BDA4
:1006E80019430160FBE70430F4E70830F2E7C0463D
:1006F800C0690840431E9841C0B27047FF220A40B3
:1007080010B501248BB294401B0A221C012B0FD078
:10071800022B10D084682240C3690020002A06D02A
:10072800090C012088400340581E8341D8B210BDEF
:1007380004682240F0E744682240EDE7090C0123F1
:100748008B4003627047C04608B500F019F8C046F0
:1007580008B50120FFF7F8FF01230360014B0B6088
:100768007047C0461000002008B5FFF7F1FFC046EB
:1007780008B500F011F808BD08B500F095F808BDF7
:10078800BFF34F8F024A034BDA60BFF34F8FFEE788
:100798000400FA0500ED00E03B4B0122196882B025
:1007A8001143196058683949014059601868384937
:1007B800014019601868374901401960586836497E
:1007C80001405960D96A0F208143D962186B3349B7
:1007D80001401963596BA0209143002259639A6024
:1007E800009201921968802252020A431A608022FC
:1007F800191C9202C00102E0009B834208D00B68DA
:1008080013400193009B01330093019B002BF3D00D
:100818001D4B1A6880239B02134006D001230193C5
:10082800019B012B05D002B070470193019B012B5E
:10083800F9D11B4B144811221A6043688021436088
:100848004368890443604268164B1340436042681A
:1008580088235B0313434360026880235B041343CC
:1008680003600368084A0B42FBD0536803218B439B
:100878005360516802230B4353600C2153680B40AB
:10088800082BFBD1CFE7C046001002400CB8FF0888
:10089800FFFFF6FEFFFFFBFFFFFFC0FFACFEFFFF01
:1008A80000200240FF7FC0FF134B0C215A6810B58F
:1008B8000A40082A0BD15C68C022A4025968240F98
:1008C8005202023411420DD10C48604300E00C483A
:1008D800094B0C4A5B681B061B0FD35CD8400A4BBC
:1008E800186010BDDB6A0F2119400131044801F07E
:1008F80011FA6043ECE7C0460010024000093D00D1
:1009080000127A00180000202800002030B580204E
:1009180083B080020121FFF7D3FDE02390206A46CF
:1009280000249B0101256946C00500931471947148
:100938005471D571FFF7A0FC802000030121FFF757
:10094800BFFDC0235B016A4600936B46D4719C715E
:10095800094C1D71201C032369465371FFF78CFC59
:100968008021201C0901FFF7EBFC8021201C490194
:10097800FFF7E6FC03B030BD0008004830B5802022
:1009880089B080020121FFF79BFDFF2390200024FE
:100998000325009369466B46C0051D71DC71FFF79E
:1009A8006BFC8020C0020121FFF78AFD6B46694677
:1009B80018481D710095DC71FFF75EFC802000036C
:1009C8000121FFF77DFD3023009369466B461248ED
:1009D8001D71DC71FFF750FC802002AD0121800001
:1009E800FFF77AFD281CFFF7F9FB02942C71EC60E5
:1009F800AC602C616C61094C291C201CFFF7D8FBEA
:100A0800201CFFF705FC201C0121FFF7EFFB09B0B4
:100A180030BDC046000400480008004800240140DA
:100A2800F0B556464D4644465F46F0B4052281620D
:100A380095B0041CFFF7E6FBCD4B002083468146AA
:100A48008046002600259A46201CFFF7FDFB201C47
:100A58000421FFF703FC0028F9D0201CFFF7FAFB5C
:100A6800071C002E00D12BE1281C0A2101F052F9A5
:100A780080B243199F4203D8281A874200DB1FE13E
:100A8800554500D920E1BA48031C4B445B1B9946E5
:100A9800434601339BB298460136FA23B6B21B018E
:100AA8009E42D1D15946002900D1F7E0CB004846F3
:100AB8006C46E05000ACE218404650605A46013A95
:100AC800012A00D881E0D200A3185868804504D2D2
:100AD8006B469C5882B2A146904602235B429B44D7
:100AE8005C46E30000ACE2185268904200D25DE137
:100AF800C81E012800D806E1C30000ACE018406811
:100B0800824204D26A46D45882B2A14690460B1F4C
:100B18009B4600ACDB00E2185268904200D251E1DB
:100B2800481F012800D8EEE0C30000ACE018406878
:100B3800824204D26A46D45882B2A14690468B1F9C
:100B48009B4600ACDB00E2185268904200D233E1C9
:100B5800C81F012800D8D6E0C30000ACE0184068E0
:100B6800824204D26A46D45882B2A14690460823EB
:100B78005B425B189B4600ACDB00E218526890426F
:100B880000D225E1081C0938012800D8BBE0C300C1
:100B980000ACE0184068904204D96A46D45882B242
:100BA800A14690460A235B425B1800AC9B46DB00DB
:100BB800E21854680A1C0B3AA04206D26846C2588A
:100BC800A4B291460A1CA0460B3A00ACD0002118EA
:100BD800E31849685B68994200D9E1E0002A5DD0D2
:100BE8005B46023BD80000AC22185268914200D202
:100BF800D0E0002B52D059460339C80000AC231866
:100C08005B689A4200D2BFE0002947D059460439B0
:100C1800C80000AC22185268934200D2AEE0002906
:100C28003CD059460539C80000AC23185B689A4285
:100C380000D296E0002931D059460639C80000ACE8
:100C480022185268934200D285E0002926D05946DE
:100C58000739C80000AC23185B689A4200D274E0D8
:100C680000291BD059460839C80000AC2218526820
:100C7800934264D3002911D059460939C80000AC01
:100C880023185B689A4254D3002907D059460A3979
:100C9800C90000AC621852689A4240D84446002CF9
:100CA80045D04846414601F035F81930C00080B2B9
:100CB80000B215B03CBC90469946A246AB46F0BD82
:100CC8003D1C554500D8DEE62A498D4200D8E3E6AA
:100CD8004246002A00D1DFE6C8235B0098450ED9BA
:100CE8005846C3004A46694600A85A50C3184146A8
:100CF800596001220023934499469846CCE6002186
:100D080089468846C8E65A46013A00ACD000211800
:100D1800E31849685B68994200D85FE740E0684695
:100D280092B24358904644469946002CB9D112488D
:100D3800BEE76A46145898B2A1468046A4E76B46B7
:100D48001C5890B2A146804694E76A46145898B257
:100D5800A146804684E76B461C5890B2A14680465F
:100D680073E76A46145898B2A146804662E7C046BF
:100D7800C20B0000C70B0000FFFF00006B461C58A9
:100D880090B2A14680464AE76A46145898B2A146EE
:100D9800804639E769460C5890B2A146804628E754
:100DA8006B461C5888B2A146804617E76846C45867
:100DB80090B2A14680469BE66846C45890B2A146C8
:100DC8008046C5E66846C45890B2A1468046A7E664
:100DD8006846C45890B2A1468046D3E630B52B4B3E
:100DE80085B01A6802AD02921B792B7172B6FFF7B3
:100DF8008DFDFFF7C3FD902080210901C005FFF795
:100E080099FA041C601E844180219020C005490184
:100E1800E4B2FFF78FFA002801D00234E4B2902040
:100E28008021C0058901FFF785FA002801D0043424
:100E3800E4B2211C022300932831E123C9B2002225
:100E48001B02002000F0F2FD01212A1C04230A20C5
:100E580000F0B0FD62B600F047FE0D4C07E08021BF
:100E68000C480901FFF76EFA23880133238000F04C
:100E78004DFE09488021FFF73BFC0128EFD1802176
:100E880004480901FFF75CFAEEE7C0460C1F0008AA
:100E9800B40000200008004800380140F0B50D1CDF
:100EA800364947466B1880B49FB201210B2F16D8DC
:100EB800334CAF18A74212DC002A0FD0013A92B285
:100EC8005200871CBF182F4A041C90469BB20B2B5C
:100ED8000ED89B004146CB582B489F460021081C42
:100EE80004BC9046F0BD80214900FFF799FD061C1F
:100EF800330A2370667001350234ADB2BC42EDD0BE
:100F08001E4AAB18E2E780210902FFF789FD061C9B
:100F1800EEE78021C901FFF783FD061CE8E7802181
:100F2800FFF77EFD061CE3E74021FFF779FD061C6D
:100F3800DEE72021FFF774FD061CD9E71021FFF733
:100F48006FFD061CD4E70821FFF76AFD061CCFE7F2
:100F58000121FFF765FD061CCAE780218900FFF71C
:100F68005FFD061CC4E70421FFF75AFD061CBFE716
:100F78000221FFF755FD061CBAE7C04648F4FFFFFB
:100F8800C40B0000DC1E000800240140012070474B
:100F98000120704701207047024B002201201A707F
:100FA8007047C046BC000020034B01221A70034B57
:100FB800187001207047C046BC000020BD0000200A
:100FC800054A00231178002904D0044913700978D0
:100FD80001230170181C7047BC000020BD000020D0
:100FE80010B50C1C012812D0124813490022FFF733
:100FF80065FB10481149012C12D00022FFF75EFB57
:1010080090208021C0054900FFF79AF910BD0948D2
:1010180009490122FFF752FB06480849012CECD187
:101028000122FFF74BFB90208021C0054900FFF704
:1010380089F9EBE7003801400501050007010700C1
:10104800F0B580208BB00F1C80020121141C1D1CE0
:10105800C026FFF735FA6946022390200B71032258
:101068000023C005F6008B71CB714A710096FFF71B
:1010780003F99020C00509210122FFF765F99020A6
:10108800C0050A210122FFF75FF98020C001012174
:10109800FFF722FA0497012D44D0002D40D0022DED
:1010A80031D0082C36D0092C40D0072C35D000245C
:1010B8000C2304A91F48089306940994FFF792FA91
:1010C8001D4B802212051A601A480121FFF7E2FA27
:1010D800802080020121FFF7F3F9802502A901226F
:1010E80090206D000A71C00503224A718C71CC7181
:1010F8000295FFF7C1F89020C005291CFFF720F9D9
:1011080001200BB0F0BD80230134DB00E4B207936B
:10111800082CC8D100230593C9E7084B0593C6E7F7
:101128000795BEE701340796E4B2BAE780235B016E
:101138000593BCE70038014000E100E00010001012
:1011480008B5C1B20248FFF7B1FA012008BDC04690
:101158000038014038B5064C051C201CFFF7AAFAD8
:1011680004492870201CFFF7E9FA012038BDC04661
:10117800003801400501050008B50F480F49FFF781
:10118800BDFA01280ED00C480D49FFF7B7FA01281F
:1011980000D008BD0A490848FFF7D0FA094B1B6878
:1011A8009847F6E7802149010748FFF7CBF8074B36
:1011B8001B689847E7E7C04600380140050105006D
:1011C8000701070014020020000800481C02002044
:1011D80010B5012184B0041C0220FFF789F9104BD7
:1011E8001049186800F096FD01A94C600E4C0138B2
:1011F80000230880201C0B814B80FFF785F90B4BDF
:10120800802252021A60201C00220121FFF7D0F927
:10121800201C0021FFF7C0F9012004B010BDC04612
:1012280028000020204E00000004004000E100E0FB
:1012380010B5094C0121201CFFF7D0F90122201C10
:101248000121FFF7B5F9201C0021FFF7A3F9201CA5
:101258000121FFF7A1F910BD0004004010B5094CA9
:101268000021201CFFF798F9201C0021FFF792F9B4
:10127800201C00220121FFF79BF9201C0121FFF708
:10128800ADF910BD0004004008B50A480121FFF778
:1012980099F9012800D008BD802107484901FFF7C6
:1012A8004FF801210348FFF799F9044B1B68984749
:1012B800F1E7C0460004004000080048180200207A
:1012C80070B54E1EB6B2002911D08619094D0A4CC8
:1012D800031C0136FF21FF201A7801334A40A95C1C
:1012E8004140A05CB342F7D10002084370BD0348F7
:1012F800FCE7C04614200008141F0008FFFF000088
:1013080010B5141C72B6081C111C0822FFF798FEB1
:101318000323012802D062B6181C10BD962323208F
:10132800DB019C4204D86100064800F0F3FC80B25F
:10133800FFF74EFF0138421E90410323404203400D
:10134800E9E7C046A07F170008B572B6054B002232
:10135800012000211A70FFF743FEFFF769FF62B60C
:1013680008BDC046C900002008B572B6002000219B
:10137800FFF736FEFFF772FF62B608BDF0B54746C5
:1013880080B40D1C071C161C72B6124C2388FF2B48
:101398001AD82388032B04D8052062B604BC9046CB
:1013A800F0BD0D4A2188101C89B29046FFF788FFCE
:1013B8000028F1D1424613783B702388033B3380E1
:1013C800434601332B60E8E704489D21044A054B56
:1013D800FFF7CAF9C60000201401002054210008B4
:1013E800302200086C21000838B572B6184B1C78FA
:1013F8000523E4B2012C02D062B6181C38BD154D85
:101408004B1E15492C8018700B602988181C52181F
:1014180092B22A80298889B2FFF752FF2B88C1B27D
:101428009BB25A1C92B22A800C4A000AD1542B88CB
:10143800C0B29BB2591C89B22980D054084B0122F2
:10144800002001211A70FFF7CBFD0023D4E7C04626
:10145800C9000020C4000020C000002014010020A2
:10146800C800002010B5204B82B01C78E4B2002CD4
:1014780033D16846FFF76EFE1C4A1378DBB2012BA6
:1014880018D0002B03D0022B06D0032B01D1FFF775
:10149800CFFE002002B010BD154B1988FF2919D8BE
:1014A8001A8892B2511C89B219806B461978114B6F
:1014B8009954ECE70E4B1C80198889B2481C80B2FD
:1014C80018806B4618780B4B585402231370FFF79B
:1014D800AFFEDEE703231370D9E70748E721074A81
:1014E800074BFFF741F9C046C8000020C90000209B
:1014F800C60000201401002054210008142100080F
:10150800942100081C4B70B51B78012B2DD11B4C66
:101518002378DBB2002B13D0012B0ED1184D2E8867
:10152800B6B2002E12D10320FFF73EFD0021051CA4
:101538000120FFF755FD267000E00025281C70BD2E
:1015480001200021FFF74CFD0025F7E70D4C23682B
:10155800187840B2FFF7F4FD2368013323602B8825
:10156800013B9BB22B800025E8E791210648490002
:10157800064A074BFFF7F8F8C9000020C80000200A
:10158800C4000020C00000205421000828210008C1
:10159800B021000838B5154C2378DBB2022B20D0D7
:1015A800032B1CD0002B10D02378002B17D02378C6
:1015B800022B14D023780025032B0AD0AE210C4827
:1015C80049000C4A0C4BFFF7CFF80020FFF7ECFC62
:1015D800051CFFF743FE0123281C237038BD002596
:1015E800F7E70120FFF7E0FC051CF2E7C90000203F
:1015F800542100083C210008CC210008F0B50B88D4
:101608004746051C80B40C1C0320052B02D004BCE3
:101618009046F0BDEA782B7912021A43511E174BF7
:1016280089B26F78AE789942F1D8002323800123DC
:101638002B70238801332380530716D1D308DBB2DC
:10164800984643466B70238839020E430133711C58
:101658002380A81C89B20023FFF79AFC002809D12F
:101668002388002043442380D1E7D3080133DBB229
:101678009846E6E700F0D0F9C9E7C046CE07000073
:1016880030B50A8883B00323052A02D0181C03B09A
:1016980030BD027944788178002AF7D1C078451E98
:1016A800EDB2FD2DF2D96B465A702402031CFF3BA4
:1016B8002143584243416A460131137089B20123DC
:1016C80068460122FFF764FC00230028DED000F002
:1016D800A3F9031CDAE7C046F0B50A884746031C9D
:1016E80080B40C1C0320052A02D804BC9046F0BD27
:1016F800DA781979587812020A4384469F785E7915
:10170800510719D1D108C9B28846551E0E49ADB244
:1017180003208D42E9D8B045E7D1604601020F4366
:10172800791C981D89B20123FFF732FC002808D1E3
:10173800052323800020D8E7D1080131C9B28846A3
:10174800E3E700F069F9D0E7AF070000F0B50B88D0
:101758004746051C80B40C1C0320052B02D004BC92
:101768009046F0BDEA782B7912021A43511E164BA7
:1017780089B26F78AE789942F1D80023238002238A
:101788002B70238801332380530715D1D308DBB28C
:10179800984643466B70238839020E430133711C07
:1017A8002380A81C89B2FFF7F5FB002809D12388FC
:1017B800002043442380D2E7D3080133DBB29846A4
:1017C800E7E700F029F9CAE7CE0700000A8808B55C
:1017D8000323052A01D0181C08BD41788378090223
:1017E800194301310123033089B20122FFF7CEFBEF
:1017F80000230028EFD000F00FF9031CEBE7C046E8
:101808000A88F8B5031C0C1C0320052A00D8F8BD6B
:10181800DA78197912020A43511E5F789E785D7949
:101828007729F4D85100C9B2A942F0D139020E4340
:10183800711C981D89B20123FFF7A8FB002803D16A
:10184800052323800020E2E700F0E6F8DFE7C04642
:10185800F8B50B88051C0C1C0320052B00D0F8BD1F
:101868002A796E78531EA9787C2BF8D80023238018
:10187800287023885700013323806F70238836022D
:101888003143013301312380A81C89B20023FFF7BB
:101898007DFB002804D123880020FF182780DEE77D
:1018A80000F0BAF8DBE7C046F0B50B884546574666
:1018B8004E46E0B4041C0D1C0020092B12D9637895
:1018C800E6789846237936021E436379A7789A46C4
:1018D800A379E1799946637A227A9C46731E03209C
:1018E8007C2B04D91CBC90469946A246F0BD09023F
:1018F8000A43531E782BF5D853006345F2D153465B
:1019080019024B4619430131201C012389B20A30C0
:10191800FFF73CFB031C002B02D000F07DF8E1E749
:101928002B80172323702B88A01C01332B80730076
:10193800637099462B88321C01332B804346190269
:101948003943013189B20023FFF720FB0028E4D195
:101958002B884B442B80C5E7F8B50B88051C0C1C5D
:101968000320052B00D0F8BDEA782B7912021A4320
:10197800531E6E78A9787B2BF5D800232380042387
:101988002B7023885700013323806F702388360219
:101998003143013301312380A81C89B2FFF77EFA55
:1019A800002804D123880020FF182780DBE700F0F7
:1019B80033F8D8E770B51C1C04251D2B01DD281C45
:1019C80070BD0A4B0A4E187002203080481E8141B3
:1019D800494259700025002CF1D0111C981C221C7A
:1019E800023400F0E7F93480E9E7C046CC00002073
:1019F800CA00002038B5064B0D1C1C880549221C5E
:101A08000130013400F0D6F92C80002038BDC046E2
:101A1800CA000020CC0000200423072801D8024B6C
:101A28001B5C181C7047C0464022000870B54D1E4C
:101A380004ACEDB226780224F62D01D9201C70BD25
:101A4800174D29700028F9D1164D174C2560174DF0
:101A5800174C2560174D184C2560184C184D2560FB
:101A6800184C2060184C19480460194C1948046037
:101A7800194C1A480460081C111C1A1C331CFFF767
:101A88003FFC041EDAD1FFF787FA002801D10324AE
:101A9800D4E7134B01221C70124B1A70CEE7C046D4
:101AA8000A01002051130008FC00002071130008EF
:101AB800F0000020F113000804010020F8000020C5
:101AC800851300080C0100206D1400081C0200207A
:101AD8000D150008140200209D15000818020020AA
:101AE80008010020AC00002010B5064C0620237821
:101AF800012B00D010BD044B1B68984700232370AE
:101B08000020F7E7AC000020FC000020F0B54746B5
:101B180080B4764B82B01B780620002B03D002B02D
:101B280004BC9046F0BD6846FFF74AFA012801D088
:101B38000020F4E769460B78012B00D18FE0022BD7
:101B4800F6D16B4C6B4A27686B4D3B786B4E11781E
:101B58002B703070002961D08B4200D1A8E0117A37
:101B680000295BD08B4200D190E0117C002955D030
:101B78008B4200D1A0E0117E00294FD08B4200D1CA
:101B880098E02021515C002948D08B4200D197E091
:101B98002821515C002941D08B4200D18EE03021B0
:101BA800515C00293AD08B4200D18DE03821515C3C
:101BB800002933D08B4200D184E04021515C0029B8
:101BC8002CD08B4200D183E04821515C002925D0DC
:101BD8008B427BD05021515C00291FD08B427BD097
:101BE8005821515C002919D08B4273D06021515C77
:101BF800002913D08B4275D06821515C00290DD083
:101C08008B426DD07021515C002907D08B4265D082
:101C18007821515C002901D08B4265D0384B1B7864
:101C2800002B85D03749012088460123424613807E
:101C38002A78802321685B4213430B70424613883D
:101C480041465A1C0A802268D0542F4B21681878C4
:101C580043461A882D4B1B68984700205FE7284C9D
:101C68002B4B201C1B682249264A9847002800D085
:101C78005EE7254A237812789A4202D0002B00D0DA
:101C880056E70220FFF790F9002048E70123DB0020
:101C9800D2181C4B381C9846414653689847184B35
:101CA80030701B78002B00D142E70028CDD0BCE76C
:101CB8000023ECE70323EAE70223E8E70523E6E746
:101CC8000423E4E70723E2E70623E0E70923DEE746
:101CD8000823DCE70B23DAE70A23D8E70E23D6E745
:101CE8000D23D4E70C23D2E70F23D0E7AC00002064
:101CF800000100202C000020EC0000200901002039
:101D080010010020F40000200A0100200401002036
:101D1800F8000020002934D00123002210B48842A2
:101D28002CD301242407A14204D2814202D2090102
:101D38001B01F8E7E400A14204D2814202D2490023
:101D48005B00F8E7884201D3401A1A434C08A042C6
:101D580002D3001B5C0822438C08A04202D3001B5C
:101D68009C082243CC08A04202D3001BDC08224373
:101D7800002803D01B0901D00909E3E7101C10BC97
:101D88007047002801D00020C04307B4024802A1D0
:101D98004018029003BDC046190000000029F0D089
:101DA80003B5FFF7B9FF0EBC4243891A1847C0466E
:101DB8007047C046F0B50F2A35D9031C0B439C0762
:101DC80035D1161C103E36093501451910350C1C45
:101DD800031C27681F6067685F60A7689F60E768E3
:101DE8001034DF601033AB42F3D1731C1B01C518EC
:101DF800C9180F231340032B1BD91C1FA408013437
:101E0800A4000023CE58EE500433A342FAD1ED18B3
:101E1800C91803231A4005D00023CC5CEC540133C5
:101E28009342FAD1F0BD051C002AF5D1FAE7051C4A
:101E3800F2E71A1CF8E7C046F0B5830746D0541EEF
:101E4800002A42D0CEB2031C032503E0621E002CF8
:101E58003BD0141C01335A1E16702B42F6D1032CAA
:101E68002BD9FF250D402A0215432A0415430F2CB0
:101E780015D9271C103F3F091E1C3A011036B61809
:101E88001A1C156055609560D5601032B242F8D1C1
:101E980001373F010F22DB191440032C0DD9271FEE
:101EA800BF08BA001E1DB6181A1C20C2B242FCD1C7
:101EB8000137BF000322DB191440002C05D01C1980
:101EC800C9B219700133A342FBD1F0BD141C031C25
:101ED800C5E7C046580F0008780F00086E0F0008C5
:101EE8004E0F0008440F00083A0F0008300F000892
:101EF800260F00081A0F00080E0F0008EE0E000843
:101F0800620F0008434D31320000000000C0C101DB
:101F1800C30302C2C60607C705C5C404CC0C0DCD51
:101F28000FCFCE0E0ACACB0BC90908C8D81819D9C1
:101F38001BDBDA1A1EDEDF1FDD1D1CDC14D4D515F1
:101F4800D71716D6D21213D311D1D010F03031F1E1
:101F580033F3F23236F6F737F53534F43CFCFD3D11
:101F6800FF3F3EFEFA3A3BFB39F9F83828E8E92901
:101F7800EB2B2AEAEE2E2FEF2DEDEC2CE42425E5B1
:101F880027E7E62622E2E323E12120E0A06061A121
:101F980063A3A26266A6A767A56564A46CACAD6DD1
:101FA800AF6F6EAEAA6A6BAB69A9A86878B8B97941
:101FB800BB7B7ABABE7E7FBF7DBDBC7CB47475B571
:101FC80077B7B67672B2B373B17170B05090915161
:101FD8009353529296565797559594549C5C5D9D91
:101FE8005F9F9E5E5A9A9B5B995958988848498981
:101FF8004B8B8A4A4E8E8F4F8D4D4C8C4484854531
:1020080087474686824243834181804000C18140A0
:1020180001C0804101C0804100C1814001C08041B0
:1020280000C1814000C1814001C0804101C08041A0
:1020380000C1814000C1814001C0804100C1814090
:1020480001C0804101C0804100C1814001C0804180
:1020580000C1814000C1814001C0804100C1814070
:1020680001C0804101C0804100C1814000C1814060
:1020780001C0804101C0804100C1814001C0804150
:1020880000C1814000C1814001C0804101C0804140
:1020980000C1814000C1814001C0804100C1814030
:1020A80001C0804101C0804100C1814000C1814020
:1020B80001C0804101C0804100C1814001C0804110
:1020C80000C1814000C1814001C0804100C1814000
:1020D80001C0804101C0804100C1814001C08041F0
:1020E80000C1814000C1814001C0804101C08041E0
:1020F80000C1814000C1814001C0804100C18140D0
:1021080001C0804101C0804100C18140784D4252E8
:1021180054555265636569766546534D0000000065
:10212800784D425254555472616E736D69744653BA
:102138004D000000784D4252545554696D657254F3
:102148003335457870697265640000002E2E2F6D56
:102158006F646275732F7274752F6D627274752E49
:102168006300000075735263764275666665725047
:102178006F73203C204D425F5345525F5044555F7A
:1021880053495A455F4D41580000000065536E643D
:102198005374617465203D3D2053544154455F5448
:1021A800585F49444C450000655263765374617426
:1021B80065203D3D2053544154455F52585F494482
:1021C8004C4500002820655263765374617465207D
:1021D8003D3D2053544154455F52585F494E495440
:1021E8002029207C7C2028206552637653746174F2
:1021F80065203D3D2053544154455F52585F52433A
:10220800562029207C7C20282065526376537461EF
:102218007465203D3D2053544154455F52585F45F5
:1022280052524F5220290000654D42525455526572
:10223800636569766500000000020404040404066E
:102248000000000001020304010203040607080954
:10225800B0000020000000000000000000000000A6
:102268000102030406070809006CDC0211000000E3
:10227800FD190008040000006119000803000000AF
:10228800591800081000000009180008060000008E
:10229800D517000817000000B11800080100000059
:1022A8000516000805000000891600080F00000048
:1022B800E1160008020000005517000800000000A1
:1022C8000000000000000000000000000000000006
:1022D80000000000000000000000000000000000F6
:1022E80000000000000000000000000002000000E4
:04000005080000C52A
:00000001FF
