:020000040800F2
:10000000E8080020C9010008EF010008F10100081C
:1000100000000000000000000000000000000000E0
:10002000000000000000000000000000F3010008D4
:100030000000000000000000F5010008D9150008CC
:10004000F901000800000000F9010008F9010008AA
:10005000F9010008F9010008F9010008F901000898
:1000600000000000F9010008F50B0008F901000884
:10007000F9010008F9010008F9010008000000007A
:10008000F90100080000000000000000F90100086C
:10009000F9010008F9010008F9010008F901000858
:1000A000F9010008F9010008F901000875180008B5
:1000B000F901000800F002F800F05AF80CA030C86E
:1000C000083824182D18A246671EAB4654465D46D4
:1000D000AC4201D100F04CF87E460F3E0FCCB64644
:1000E0000126334200D0FB1AA246AB4633431847E1
:1000F0006C1D00008C1D0000103A02D378C878C136
:10010000FAD8520701D330C830C101D504680C6059
:10011000704700000023002400250026103A01D378
:1001200078C1FBD8520700D330C100D50B607047AF
:1001300010B56E2902D100F01BF910BD702902D153
:1001400000F02AF910BD642902D100F0DBF810BDDF
:10015000752902D100F0D6F810BD732902D100F044
:100160004FFC10BD002010BD1FB51FBD10B510BD48
:1001700000F05EFC1146FFF7F7FF01F04FFD00F0C5
:1001800076FC03B4FFF7F2FF03BC00F07BFC000039
:1001900070B505460C46164602E00FCC0FC5103E62
:1001A000102EFAD2082E02D303CC03C5083E042E2B
:1001B00007D301CC01C5361F03E021782970641CE8
:1001C0006D1C761EF9D270BD0F4880F308880F4869
:1001D0000168090E0E4A914205D10E480E49016090
:1001E0000E480F4901600F4880470F480047FEE75F
:1001F000FEE7FEE7FEE7FEE7FEE700000B480C49DE
:100200000C4A0D4B70470000E80800200400000075
:100210001F00000018100240010000000000014013
:1002200000000000ED150008B5000008E8020020FD
:10023000E8080020E8040020E80400200FB41CB502
:10024000074B06AA7B4469460090059800F0ADFB79
:100250000020694600F0BCFB1CBC08BC04B0184779
:100260008907000070B5044685690068C10601D59C
:10027000302600E02026C00707D070BD62683046F7
:10028000A1689047206A401C20626D1EF6D570BDA3
:1002900070B5044685690078C00707D170BD6268F3
:1002A000A16820209047206A401C20626D1EF6D570
:1002B00070BD70B50C460546012A05D02878800629
:1002C00000D5EA69002302E0012305E05B1C9342AC
:1002D00002D2E05C0028F9D1A869E618C01AA8612A
:1002E000286AC01828622846FFF7BCFF04E06A6845
:1002F0002078A968641C9047B442F8D32846FFF7D9
:10030000C7FF70BDF7B5002575291068009914A6C0
:1003100011D0C046C046002802DA404211A608E0CB
:10032000009909688A0701D50FA602E0490704D59C
:100330000EA6012501E0C046C046009F00242437D8
:1003400004E000F061FB30313955641C0028F8D11D
:100350002B4632462146009800F0CAFAFEBD000046
:10036000000000002D0000002B0000002000000015
:1003700011680268006A530501D5087009E0D305C9
:1003800001D5088005E0130602D5C21705C100E0BB
:10039000086001207047000070B5136802682024CF
:1003A00022430824C4610C461105026002D50E4A9E
:1003B0007A4402E00C4A7A440E3205460021243584
:1003C00005E01E071B09360F965D6E54491C002B75
:1003D000F7D105782D0703D5702C01D101231032F8
:1003E00000F086FA70BD000077190000F3B50446EE
:1003F000002081B020622046E1688847002872D042
:10040000252802D06268A168ABE0594F00267F44DE
:100410002046E16888472028054608DB312D06D2B2
:10042000781920380078002801D00643F0E7B0079B
:1004300001D5042086430020E0610746A0612A2DF3
:100440000AD0284601F0E2FB002827D0B8000019A6
:10045000303D0090856119E00298BA00121902C877
:10046000916102902046E1688847012F054617D127
:10047000E06900281FDA202086431CE000980A214A
:100480008069484300994019303888612046E16806
:100490008847054601F0BAFB0028EFD1012F0AD0AA
:1004A0002E2D08D12046E1688847054620200643C6
:1004B0007F1C022FC3DBA069002803DA4042A06141
:1004C00001200643F00701D0102086436C2D0BD08D
:1004D000682D09D04C2D3CD06A2D38D0742D38D0E1
:1004E0007A2D36D016E040E0E1682F462046884756
:1004F000B842054609D16C2F29D001208002E1685D
:10050000064320468847054604E06C2F1DD0FF2097
:1005100001300643002D28D028464138192803D839
:100520000120C00206432035204626602946029A53
:100530001646FFF7FDFD002810D001280BD0F61D50
:10054000F008C0000830029055E74020E1E7802025
:10055000D5E70020D3E7361D02964CE762682846AF
:10056000A1689047206A401C44E7206AFEBD000055
:100570004119000030B505460B462A461C78107814
:10058000521C5B1C002801D0A042F7D0002C03D0E5
:10059000002802D06D1CEFE7284630BD30B5441C62
:1005A00003E00178401C00290DD08107F9D10B4BE5
:1005B000DD0104C8D11A91432940FAD0001B0A0674
:1005C00003D0C01E30BD001B30BD0A0401D0801E08
:1005D00030BD0902FCD0401E30BD00000101010108
:1005E0000346F0B50B439B072DD1244DEF01042AA0
:1005F00029D308C810C95E1B9E43121F3E4017D066
:10060000D8B2E1B2401A3106014310D198B2A1B27A
:10061000401A310401430AD118022102000A090AD2
:10062000401A3102014302D1180E210E401AF0BDCA
:10063000A342DCD018BA21BA884201D90120F0BD0A
:100640000020C043F0BD002A01D10020F0BD037896
:100650000C78401C491C002B0DD0A3420BD1521E1C
:1006600009D003780C78401C491C002B03D0A3420E
:1006700001D1521EEBD1181BF0BD00000101010198
:10068000F8B5042A2CD3830712D00B78491C0370C9
:10069000401C521E83070BD00B78491C0370401C72
:1006A000521E830704D00B78491C0370401C521E55
:1006B0008B079B0F05D0C91ADF002023DE1B08C95A
:1006C0000AE0FFF765FDF8BD1D4608C9FD401C4660
:1006D000B4402C4310C0121F042AF5D2F308C91AE3
:1006E000521EF0D40B78491C0370401C521EEAD4F1
:1006F0000B78491C0370401C012AE4D4097801706E
:10070000F8BD002203098B4273D3030A8B4258D3EE
:10071000030B8B423CD3030C8B4221D312E00346E4
:100720000B437FD4002243088B4274D303098B42CE
:100730005FD3030A8B4244D3030B8B4228D3030CB1
:100740008B420DD3FF22090212BA030C8B4202D353
:100750001212090265D0030B8B4219D300E0090A7B
:10076000C30B8B4201D3CB03C01A5241830B8B4284
:1007700001D38B03C01A5241430B8B4201D34B036D
:10078000C01A5241030B8B4201D30B03C01A5241D2
:10079000C30A8B4201D3CB02C01A5241830A8B4257
:1007A00001D38B02C01A5241430A8B4201D34B0240
:1007B000C01A5241030A8B4201D30B02C01A5241A4
:1007C000CDD2C3098B4201D3CB01C01A5241830958
:1007D0008B4201D38B01C01A524143098B4201D392
:1007E0004B01C01A524103098B4201D30B01C01ABD
:1007F0005241C3088B4201D3CB00C01A5241830837
:100800008B4201D38B00C01A524143088B4201D363
:100810004B00C01A5241411A00D2014652411046C3
:1008200070475DE0CA0F00D04942031000D3404238
:10083000534000229C4603098B422DD3030A8B426E
:1008400012D3FC22890112BA030A8B420CD389010C
:1008500092118B4208D3890192118B4204D38901F2
:100860003AD0921100E08909C3098B4201D3CB0130
:10087000C01A524183098B4201D38B01C01A5241E5
:1008800043098B4201D34B01C01A524103098B42E9
:1008900001D30B01C01A5241C3088B4201D3CB00D4
:1008A000C01A524183088B4201D38B00C01A5241B7
:1008B000D9D243088B4201D34B00C01A5241411A8E
:1008C00000D20146634652415B10104601D34042BC
:1008D000002B00D54942704763465B1000D340426D
:1008E00001B50020C046C04602BD70477047704742
:1008F000FFB504460D4681B024300090216888067B
:1009000004D51022E0699143216000E00120A84253
:1009100001DD471B00E000270498A1697A1910182F
:10092000081AA0612078C00602D42046FFF79AFC7E
:10093000002608E003986268A168805D9047206AFD
:10094000401C761C206204988642F3DB2078C006A7
:100950000AD52046FFF786FC06E06268A1683020D1
:100960009047206A401C206238467F1E0028F4DC35
:1009700007E000986268A168405D9047206A401CCB
:10098000206228466D1E0028F3DC2046FFF780FC1D
:100990002078000602D5022005B0F0BD0120FBE75B
:1009A00001694A1C02610878704700B58FB0029156
:1009B0000021059105490193794403911146049062
:1009C0006846FFF713FD0FB000BD0000E5FFFFFF15
:1009D0000A681070521C0A60704710B54369002BFA
:1009E00002D0C046C04601E0FFF763FC012010BD05
:1009F0001278014624310A7000224A700122ECE785
:100A000011680022D243E8E701468008081A02096B
:100A10001018020A1018020C1018C00882001218D0
:100A20005200891A01E0401C0A390A29FBD270479A
:100A3000754600F023F8AE46050069465346C008E7
:100A4000C000854618B020B5FFF7D8FB60BC002772
:100A50004908B6460026C0C5C0C5C0C5C0C5C0C58A
:100A6000C0C5C0C5C0C5403D49008D46704704465D
:100A7000C046C0462046FFF784FB00000048704790
:100A80008402002001491820ABBEFEE726000200C8
:100A90007047836A0B438362426170470029816813
:100AA00003D001221143816070470222114381600B
:100AB0007047826800210123DB071A4382600F23FD
:100AC0001B038268491CD20FD207994201D0002A29
:100AD000F7D18168002901DB006C70470020704766
:100AE000006C80B2704702460020CB0104D59268AA
:100AF00001231B069A4300E012680A4200D001203D
:100B00007047000030B4C368084A8C6813400A6814
:100B10000D792243CC686D032C4322430C6949694B
:100B200022430A431A43C26030BC704703D2FFFF1E
:100B30008168042211438160704700000122054949
:100B4000D2050028886801D0104300E090438860F7
:100B50007047000000270140012205499205002846
:100B6000886801D0104300E090438860704700001F
:100B70000027014030B5012189B0480200F04EFA4B
:100B800001214D04284600F031FA0420069003218B
:100B9000684601770024C477092006A9C00600F042
:100BA00077F86846009404710294049405940F4CFD
:100BB00069462046FFF7A6FF2046FFF77AFF01218E
:100BC0002046FFF76BFF032269102046FFF761FF05
:100BD000072229462046FFF75CFF054D204629469F
:100BE000FFF781FF0028F9D009B030BD0024014093
:100BF000010000017047000030B403680D4A0C6A20
:100C000013408A684D6922430C692C4322438C6946
:100C10002243CC6922434C6A22438C6A22431A4302
:100C20000260CA6842600A6882604968C16030BC7C
:100C3000704700000F80FFFF00B501218BB0084610
:100C400000F0D4F90B4800900B480190102002905E
:100C5000802100200391059104904901069007909E
:100C6000089009910A9069460448FFF7C5FF0BB048
:100C700000BD000028380140E30000201C000240B5
:100C80000249088008880028FCD170470000002035
:100C9000F0B4002201273B460C6893401C409C4264
:100CA0002AD10C79012C01D0022C12D18668550072
:100CB0000324AC40A64386604C79AC4085682C4345
:100CC000846084889C43848084888B7993401C430F
:100CD0008480056854000323A3409D4305600D797B
:100CE0000668A54035430560C5689D43C560CB795E
:100CF000A340C4682343C360521C102ACBD3F0BC6A
:100D000070474B07DB0E9A40C90810B489000818D9
:100D1000016A0F249C40A1430162016A11430162F0
:100D200010BC70470185704781617047F0B50121A3
:100D300083B0480400F05AF90121880400F056F904
:100D40000E48009001246846047100258571032631
:100D500046710227C77109206946C006FFF798FF50
:100D6000F02000906846047185714671C77169462C
:100D70000348FFF78DFF03B0F0BD0000FFC0000087
:100D800000040048F0B5064683B00120FFF7D6FE08
:100D90001B4D1C49288B49881B4C401AC117490F11
:100DA0000818C01002902046FFF7C2FE042120461A
:100DB000FFF799FE0028F9D02046FFF791FE04B214
:100DC0001248134FC088019000940022BA5E11A10E
:100DD0001A48029BFFF732FA184800F04DFE288BA4
:100DE0006421001B48430299FFF799FCFF302D3026
:100DF00038800020FFF7A2FE3888308003B0F0BDB5
:100E0000A0F7FF1FC0F7FF1F00240140660200206B
:100E10000200002063616C633D25640D4176675FCD
:100E2000536C6F70653D25640D746D703D25640DC8
:100E30005633333D25640D0D00000000660100208F
:100E4000F0B583B0394E0120FFF778FE38483949B4
:100E5000008B4988384C401AC117490F0818C01038
:100E600002902046FFF764FE04212046FFF73BFE78
:100E70000028F9D03048FFF733FE2C4C05B2E0884B
:100E800001902E4F00950022BA5E2D492D48029BFD
:100E9000FFF7D4F92B4800F0EFFD25486421008BC3
:100EA000401B48430299FFF73AFCFF302D30388051
:100EB0000020FFF743FE38883080FA206080224807
:100EC000A080A51D0120FFF747FE1B48FFF730FE5D
:100ED000194E04213046FFF706FE0028F9D03046AF
:100EE000FFF7FEFD01461248FF22408B4B32504374
:100EF000FFF707FC233028800020FFF72DFE134862
:100F0000208113486081DC20A081FF202D30E0810A
:100F10001049002000F09EF90020A0820C21E182FF
:100F200001212183608303B0F0BD00006602002030
:100F3000A0F7FF1FC0F7FF1F0024014002000020A0
:100F4000140E00086601002098080000DC0500006F
:100F5000260C00007602002030B48378012102784C
:100F6000002B15D094080E4BA400E41823689207B8
:100F7000D50EFF22AA40934342789207120EAA4050
:100F80001A4322600078C006C00E8140054803E085
:100F9000D006C00E81400448016030BC704700009C
:100FA00000E400E000E100E080E100E008B501229B
:100FB0000649074800F0F6FC1B2168460170002135
:100FC000417001218170FFF7C7FF08BD05010500D1
:100FD0000038014004498A150028086801D01043F0
:100FE00000E090430860704700700040044A002908
:100FF000516901D0014300E0814351617047000015
:1010000000100240044A0029D16901D0014300E0E8
:101010008143D1617047000000100240044A00295A
:10102000916901D0014300E0814391617047000064
:10103000001002400122054912040028086A01D06C
:10104000104300E090430862704700000010024027
:10105000F8B5564D0446686800210C22544E1040E5
:1010600005D0042803D0082803D00C281AD0266005
:101070001AE06968686803228902D2030F0F1040E2
:10108000BF1C00280AD0E86A0107090F3046491C36
:10109000FFF737FB78430146216005E045483946B4
:1010A0004143F9E7444820606868444F0006000F58
:1010B0003B5C20680246DA4062606B685B055B0F50
:1010C000FB5CDA40A2602B6BDB0502D43C4BE36097
:1010D00006E06B685B0401D4530800E09308E3600A
:1010E0002B6B5F06374B02D4374F276100E023613B
:1010F0002F6BFF0601D4666100E060612F6BBF07B4
:101100000ED02F6BBF07BF0F012F0BD02F6BBF0768
:10111000BF0F022F08D02F6BFF43BF0706D006E09A
:10112000A26104E0A06102E0A36100E0A6612F6B70
:10113000BF03BF0F0FD02F6BBF03BF0F012F0CD00A
:101140002F6BBF03BF0F022F09D02F6BBF03BF0F41
:10115000032F06D006E0E26104E0E06102E0E36113
:1011600000E0E6612F6B3F03BF0F0FD02A6B120325
:10117000920F012A0CD0286B0003800F022809D09F
:10118000286B0003800F032806D006E0226204E0EB
:10119000206202E0236200E02662286B000602D48F
:1011A00005486062F8BD6162F8BD000000100240B1
:1011B00000127A0000093D00006CDC023C000020B7
:1011C000809FD500008000001280000005490028A3
:1011D000486A02D00122104301E040084000486202
:1011E000704700000010024001220549D203002888
:1011F000086A01D0104300E0904308627047000085
:101200000010024002490A6A02430A627047000065
:101210000010024018B400200D4B0090D868400622
:1012200010D40020C043D86040210C02D868009A36
:101230000840521C0092A24201D00028F6D0D86883
:10124000400602D518BC0120704718BC002070472A
:101250000028004070B4154A1568154A2C46144001
:10126000A202930E6204520E64066D020B70640EAD
:101270006D0E40264A7035408C70CD70002812D11A
:1012800018090A251B0768431B0F18180870100956
:1012900012076843120F101848702009220768438C
:1012A000120F1018887070BC7047000000280040B2
:1012B0007F7F7F0070B505460026104CCA20606213
:1012C00053206062FFF7A6FF002813D0A0684021DA
:1012D0008843A060A06829680843A060A8682061CE
:1012E0002069A988090408432061E06880218843B7
:1012F000E0600126FF206062304670BD002800409B
:1013000000B5012183B00807FFF77CFE0120FFF73D
:1013100061FE0120FFF78EFE0020FFF78BFE01200B
:10132000FFF754FF03200002FFF76CFF0120FFF7D7
:101330005BFF002000907C200190034802906846EB
:10134000FFF7B8FF03B000BDCF07000010B5144A87
:1013500014A11C48FEF772FF1A4800F08DFB1A4AD0
:101360001AA11848FEF76AFF164800F085FB1F4ACD
:101370001FA11448FEF762FF124800F07DFB254ACA
:1013800025A11048FEF75AFF0E4800F075FB2A4AC7
:101390002AA10C48FEF752FF0A4800F06DFB10BD71
:1013A000D01C00084D6F64656C206E756D626572AF
:1013B0003A2020202020202020202020202020250E
:1013C000730D0A0066010020E01C000850726F6473
:1013D000756374696F6E20646174653A2020202003
:1013E0002020202020202025730D0A00C01C00088A
:1013F00053657269616C206E756D6265723A20206A
:10140000202020202020202020202025730D0A0DC0
:101410000A0000000B1D0008456E642070726F64A6
:10142000756374206D6F64656C3A20202020202045
:1014300020202025730D0A001B1D0008456E642026
:1014400070726F647563742073657269616C206E6D
:10145000756D6265723A20257300000038B5284C1E
:1014600028A1A07C0090637C227C3048FEF7E6FE39
:101470002E4800F001FB0020205E0A21FFF74FF903
:101480000B4602462AA12948FEF7D8FE274800F05D
:10149000F3FA0220205E0A21FFF741F90B460246CB
:1014A0002CA12248FEF7CAFE204800F0E5FAA088E9
:1014B0000A21FFF726F90B4602462FA11B48FEF72B
:1014C000BDFE1A4800F0D8FAE0886421FFF719F948
:1014D0000B46024630A11548FEF7B0FE134800F057
:1014E000CBFA20896421FFF70CF90B46024632A1A2
:1014F0000E48FEF7A3FE0D4800F0BEFA38BD00000E
:1015000066020020557074696D653A202020202005
:10151000202020202020202020253032643A253031
:1015200032643A253032640D0A0D0A00660100204B
:10153000434153452074656D7065726174757265C1
:101540003A2020202025642E25303175B0430D0A25
:10155000000000004B4559532074656D7065726141
:10156000747572653A2020202025642E253031754F
:10157000B0430D0A0D0A00004772696420524D53B2
:1015800020766F6C746167653A2020202025642ED8
:1015900025303164560D0A00332E33562073757092
:1015A000706C7920766F6C746167653A2025642EC3
:1015B00025303264560D0A0031355620737570702F
:1015C0006C7920766F6C746167653A202025642EF3
:1015D000253032645600000003480188002902D0FB
:1015E0000188491E018070470000002030B4354852
:1015F00082B001680124214301604168324A1140F0
:1016000041600168314A114001600168A2049143C0
:10161000016041683F22120491434160C16A090997
:101620000901C162016BFF22543291430163416B96
:10163000A143416300238360019300930168220466
:1016400011430160520005252D03016811400091EE
:101650000199491C01910099002902D10199A942DF
:10166000F3D10168890329D5194A11210094116029
:10167000416841604168416041687F22D2039143E3
:101680004160416811221204114341600168012246
:1016900012061143016001688901FCD5416889087F
:1016A0008900416041680222114341604168090795
:1016B000890F0229FAD102B030BC7047009302B002
:1016C00030BC7047001002400CB8FF08FFFFF6FE68
:1016D00000200240F8B500252E462C4628463FE063
:1016E000009A032A69D213007B441B79DB189F44BC
:1016F000016407000D294BD00A2949D002202FE0B0
:10170000202904D16D1CEDB2415D2029FAD0761C50
:10171000F6B27119415C202905D0A919415C0D2947
:1017200001D00A29F3D109210091062C21D24719B1
:101730003A49A0000968324609583846FEF750FF7A
:10174000002804D0641CE4B2062CF1D311E0334825
:10175000A7000068C059FEF721FFB04220D1072042
:1017600000902F48415D0029BAD10098082824D064
:101770000ED900982BA3810028482BA24068081896
:101780008038C16D2948FEF759FD284800F074F9EA
:1017900027A12648FEF752FD244800F06DF9F8BD58
:1017A0001E4821A10068C059FEF7E4FE002801D0C0
:1017B0000320D5E709200090DBE7022C0FD0042C92
:1017C00010D0052C27D01548A100006842581CA154
:1017D0001648FEF733FD154800F04EF9D8E7FFF73D
:1017E0003DFED5E71D4A1E491048FEF727FD0F486C
:1017F00000F042F91B4A1C490C48FEF71FFD0B483C
:1018000000F03AF9194A1A490848FEF717FD074847
:1018100000F032F9BCE7FFF799FDB9E71C000020A2
:10182000E601002040320000403100006601002047
:101830000D0A0D0A5553472D6D696E693E00000073
:10184000456E74657265642074686520636F6D6DA4
:10185000616E64202225732221000000D01C000844
:10186000B81B0008FB1C0008D81B0008EB1C000874
:10187000F41B000870B5154D1349284600F03DF8DB
:10188000012817D10F21284600F030F8002812D186
:101890000F4CA0787F280ED2284600F02DF9217831
:1018A0000C4A5054A1782078491C401C4006A17075
:1018B000400E207070BD09200121C006FFF734FAE8
:1018C000284600F019F970BD0501050000380140F7
:1018D000E0000020600000200029016802D0012201
:1018E000114301E049084900016070470246D2698E
:1018F00000200A4200D00120704730B40A04130EC1
:101900000122144600258C40012B0FD0022B10D051
:1019100083682340090CC0698A401040002B02D024
:10192000002800D00125284630BC704703682340BA
:10193000F0E74368EDE70000F8B5174DAC78002CF0
:1019400028D069788020154B421AC918144EA2423B
:101950000FD23046FEF794FE697827468020803FFC
:10196000401ACA1980190D49FEF78AFE6878C01915
:1019700005E022460A48FEF783FE68780019687081
:10198000A878001BA87000203055054800F074F8B6
:101990000348F8BD0020F8BDE000002060000020F2
:1019A000E601002010B40B041C0E01238B40022C16
:1019B00002D0032C02D002E0001D00E008300168D4
:1019C000002A01D0194300E09943016010BC704720
:1019D00030B5044600688BB00D46400840002060DA
:1019E0006068032109038843A96801436160206896
:1019F0001C49EA680840696811432A690243114397
:101A00002160A06803210902884369690143A1603C
:101A10006846FFF71DFB1448844201D106980AE08E
:101A20001248844201D1079805E01148844201D14F
:101A3000089800E0029821680904296800D5400050
:101A4000FEF75FFE2A6852088A4200D8401C2168CF
:101A5000090404D50107074A490F10400843A08133
:101A60000BB030BDF3E9FFFF0038014000440040F7
:101A700000480040F0FF0000F1B50098FEF78EFD31
:101A8000194C21784018802802D90020C043F8BDA5
:101A90000098FEF783FD024614480099FEF7F0FD1A
:101AA0000020207006460098FEF778FD002817D920
:101AB0000E4F0F4D2078395C401C20700D4800F00F
:101AC0001FF820784006400E2070052028802888C6
:101AD0000028FCD1761C0098FEF760FDB042E9D8E2
:101AE0000098FEF75BFDF8BD63010020E3000020D5
:101AF0000000002000380140808CC005C00D7047F8
:101B0000C905C90D0185704730B5012189B0880329
:101B1000FFF784FA01214804FFF768FA0320400226
:101B200006900221684601770321417700248477DB
:101B30000121C1770925ED0606A92846FFF7A8F877
:101B4000012209212846FFF7DCF801220A21284654
:101B5000FFF7D7F8E1200594400200900394029427
:101B600001940C20054C049069462046FFF730FF95
:101B700001212046FFF7B0FE09B030BD003801401A
:101B800010B50C4A0CA11248FEF758FB1048FFF79D
:101B900073FF104A10A10E48FEF750FB0C48FFF7E8
:101BA0006BFF134A13A10A48FEF748FB0848FFF7EA
:101BB00063FF10BDD01C00084D6F64656C206E750E
:101BC0006D6265723A202020202025730D0A0000E6
:101BD00066010020FB1C0008486172647761726531
:101BE0002076657273696F6E3A2025730D0A0000C6
:101BF000EB1C0008536F667477617265207665721E
:101C000073696F6E3A2025730000000030380A288F
:101C100001D201207047002070470000FFF786F8CE
:101C2000FFF772FFFFF708F8FFF706F8FEF7A2FFCD
:101C3000FFF766FBFFF7BAF91C487D21C900006871
:101C4000FEF75FFD1A49401E88420CD819494861C9
:101C500019480722C3691B021B0A4C042343C361B2
:101C6000002088610A611548FEF762FFFFF7E8F877
:101C7000FF20F530FFF704F80924E406FFF75CFEC7
:101C8000002801D0FFF726FD6420FEF7F9FFFFF7DB
:101C9000D7F801212046FFF747F86420FEF7F0FF50
:101CA00001212046FFF73EF8E8E700004C00002045
:101CB000FFFFFF0000E000E004ED00E00024014031
:101CC000554D3135343030303030310000000000B7
:101CD0005553472D6D696E6900000000000000003B
:101CE00032332F30392F32303135004657312E30D4
:101CF00030312E41000000000000004857312E30E6
:101D000030312E4100000000000000555A4D2D30AA
:101D10003031000000000000000000313233343563
:101D20003637380000000000000000303132333414
:101D30003536373839414243444546403058003003
:101D40003132333435363738396162636465664021
:101D500030780004000008000000000000000200CD
:101D600001000010474554204031000053455420E5
:101D700040313D40320000004C4F47005345520077
:101D800056455200535441545553000056616C75EA
:101D900065206973206C6172676572207468616E7A
:101DA00020616C6C6F7765642E2056616C756520C0
:101DB0006D757374206265206265747765656E2049
:101DC000256420616E642025642E000056616C75C8
:101DD00065206973206C657373207468616E20617F
:101DE0006C6C6F7765642E2056616C7565206D751F
:101DF0007374206265206265747765656E20256462
:101E000020616E642025642E00000000496C6C6522
:101E100067616C20636F6D6D616E6400496C6C6509
:101E200067616C20706172616D6574657220747990
:101E300070650000496C6C6567616C20706172614F
:101E40006D65746572000000496E636F7272656340
:101E5000742073796E746178000000007C1E0008A5
:101E60000000002060000000F8000008DC1E0008F0
:101E70006000002088080000140100080000D0075E
:101E8000641D00086C1D0008841D0008781D0008F2
:101E9000801D00087C1D0008040000202400002094
:101EA0000C1E0008341E00081C1E0008481E0008F6
:101EB000CC1D00088C1D0008000000000102030476
:101EC0000102030406070809006CDC0200000000A0
:0C1ED000000000000102030406070809DE
:04000005080001C925
:00000001FF
