:020000040800F2
:10000000C8080020B5010008DB010008DD01000878
:1000100000000000000000000000000000000000E0
:10002000000000000000000000000000DF010008E8
:100030000000000000000000E10100084911000874
:10004000E501000800000000E5010008E5010008E6
:10005000E5010008E5010008E5010008E5010008E8
:1000600000000000E5010008150B0008E50100088C
:10007000E5010008E5010008E501000800000000B6
:10008000E50100080000000000000000E501000894
:10009000E5010008E5010008E5010008E5010008A8
:1000A000E5010008E5010008E5010008DD1300088E
:1000B000E501000800F002F800F050F80CA030C88C
:1000C000083824182D18A246671EAB4654465D46D4
:1000D000AC4201D100F042F87E460F3E0FCCB6464E
:1000E0000126334200D0FB1AA246AB4633431847E1
:1000F0003819000058190000103A02D378C878C1A6
:10010000FAD8520701D330C830C101D504680C6059
:10011000704700000023002400250026103A01D378
:1001200078C1FBD8520700D330C100D50B607047AF
:1001300010B56E2902D100F0DBF810BD702902D194
:1001400000F0EAF810BD732902D100F019FC10BDCF
:10015000002010BD1FB51FBD10B510BD00F014FC70
:100160001146FFF7F7FF01F045FB00F02CFC03B44C
:10017000FFF7F2FF03BC00F031FC000070B505464C
:100180000C46164602E00FCC0FC5103E102EFAD2D8
:10019000082E02D303CC03C5083E042E07D301CC9E
:1001A00001C5361F03E021782970641C6D1C761E82
:1001B000F9D270BD0F4880F308880F480168090E16
:1001C0000E4A914205D10E480E4901600E480F4972
:1001D00001600F4880470F480047FEE7FEE7FEE753
:1001E000FEE7FEE7FEE700000B480C490C4A0D4B0A
:1001F00070470000C8080020040000001F00000035
:100200001810024001000000000001400000000042
:100210005D110008B5000008C8020020C8080020D1
:10022000C8040020C80400200FB41CB5074B06AA60
:100230007B4469460090059800F077FB00206946F2
:1002400000F086FB1CBC08BC04B018471D0700006A
:1002500070B5044685690068C10601D5302600E006
:100260002026C00707D070BD62683046A16890475D
:10027000206A401C20626D1EF6D570BD70B5044624
:1002800085690078C00707D170BD6268A168202029
:100290009047206A401C20626D1EF6D570BD70B577
:1002A0000C460546012A05D02878800600D5EA6963
:1002B000002302E0012305E05B1C934202D2E05CD4
:1002C0000028F9D1A869E618C01AA861286AC018E0
:1002D00028622846FFF7BCFF04E06A682078A96816
:1002E000641C9047B442F8D32846FFF7C7FF70BD9F
:1002F00011680268006A530501D5087009E0D3054A
:1003000001D5088005E0130602D5C21705C100E03B
:10031000086001207047000070B51368026820244F
:1003200022430824C4610C461105026002D50E4A1E
:100330007A4402E00C4A7A440E3205460021243504
:1003400005E01E071B09360F965D6E54491C002BF5
:10035000F7D105782D0703D5702C01D10123103278
:1003600000F086FA70BD0000C3150000F3B5044626
:10037000002081B020622046E1688847002872D0C2
:10038000252802D06268A168ABE0594F00267F445F
:100390002046E16888472028054608DB312D06D233
:1003A000781920380078002801D00643F0E7B0071C
:1003B00001D5042086430020E0610746A0612A2D74
:1003C0000AD0284601F00EFA002827D0B8000019FC
:1003D000303D0090856119E00298BA00121902C8F8
:1003E000916102902046E1688847012F054617D1A8
:1003F000E06900281FDA202086431CE000980A21CB
:100400008069484300994019303888612046E16886
:100410008847054601F0E6F90028EFD1012F0AD000
:100420002E2D08D12046E168884705462020064346
:100430007F1C022FC3DBA069002803DA4042A061C1
:1004400001200643F00701D0102086436C2D0BD00D
:10045000682D09D04C2D3CD06A2D38D0742D38D061
:100460007A2D36D016E040E0E1682F4620468847D6
:10047000B842054609D16C2F29D001208002E168DD
:10048000064320468847054604E06C2F1DD0FF2018
:1004900001300643002D28D028464138192803D8BA
:1004A0000120C00206432035204626602946029AD4
:1004B0001646FFF73DFE002810D001280BD0F61D90
:1004C000F008C0000830029055E74020E1E78020A6
:1004D000D5E70020D3E7361D02964CE76268284630
:1004E000A1689047206A401C44E7206AFEBD0000D6
:1004F0008D15000030B505460B462A461C7810784D
:10050000521C5B1C002801D0A042F7D0002C03D065
:10051000002802D06D1CEFE7284630BD30B5441CE2
:1005200003E00178401C00290DD08107F9D10B4B65
:10053000DD0104C8D11A91432940FAD0001B0A06F4
:1005400003D0C01E30BD001B30BD0A0401D0801E88
:1005500030BD0902FCD0401E30BD00000101010188
:100560000346F0B50B439B072DD1244DEF01042A20
:1005700029D308C810C95E1B9E43121F3E4017D0E6
:10058000D8B2E1B2401A3106014310D198B2A1B2FB
:10059000401A310401430AD118022102000A090A53
:1005A000401A3102014302D1180E210E401AF0BD4B
:1005B000A342DCD018BA21BA884201D90120F0BD8B
:1005C0000020C043F0BD002A01D10020F0BD037817
:1005D0000C78401C491C002B0DD0A3420BD1521E9D
:1005E00009D003780C78401C491C002B03D0A3428F
:1005F00001D1521EEBD1181BF0BD00000101010119
:10060000F8B5042A2CD3830712D00B78491C037049
:10061000401C521E83070BD00B78491C0370401CF2
:10062000521E830704D00B78491C0370401C521ED5
:100630008B079B0F05D0C91ADF002023DE1B08C9DA
:100640000AE0FFF79BFDF8BD1D4608C9FD401C46AA
:10065000B4402C4310C0121F042AF5D2F308C91A63
:10066000521EF0D40B78491C0370401C521EEAD471
:100670000B78491C0370401C012AE4D409780170EE
:10068000F8BD002203098B4273D3030A8B4258D36F
:10069000030B8B423CD3030C8B4221D312E0034665
:1006A0000B437FD4002243088B4274D303098B424F
:1006B0005FD3030A8B4244D3030B8B4228D3030C32
:1006C0008B420DD3FF22090212BA030C8B4202D3D4
:1006D0001212090265D0030B8B4219D300E0090AFC
:1006E000C30B8B4201D3CB03C01A5241830B8B4205
:1006F00001D38B03C01A5241430B8B4201D34B03EE
:10070000C01A5241030B8B4201D30B03C01A524152
:10071000C30A8B4201D3CB02C01A5241830A8B42D7
:1007200001D38B02C01A5241430A8B4201D34B02C0
:10073000C01A5241030A8B4201D30B02C01A524124
:10074000CDD2C3098B4201D3CB01C01A52418309D8
:100750008B4201D38B01C01A524143098B4201D312
:100760004B01C01A524103098B4201D30B01C01A3D
:100770005241C3088B4201D3CB00C01A52418308B7
:100780008B4201D38B00C01A524143088B4201D3E4
:100790004B00C01A5241411A00D201465241104644
:1007A00070475DE0CA0F00D04942031000D34042B9
:1007B000534000229C4603098B422DD3030A8B42EF
:1007C00012D3FC22890112BA030A8B420CD389018D
:1007D00092118B4208D3890192118B4204D3890173
:1007E0003AD0921100E08909C3098B4201D3CB01B1
:1007F000C01A524183098B4201D38B01C01A524166
:1008000043098B4201D34B01C01A524103098B4269
:1008100001D30B01C01A5241C3088B4201D3CB0054
:10082000C01A524183088B4201D38B00C01A524137
:10083000D9D243088B4201D34B00C01A5241411A0E
:1008400000D20146634652415B10104601D340423C
:10085000002B00D54942704763465B1000D34042ED
:1008600001B50020C046C04602BD704770477047C2
:10087000FFB504460D4681B02430009021688806FB
:1008800004D51022E0699143216000E00120A842D4
:1008900001DD471B00E000270498A1697A191018B0
:1008A000081AA0612078C00602D42046FFF7D0FCC9
:1008B000002608E003986268A168805D9047206A7E
:1008C000401C761C206204988642F3DB2078C00628
:1008D0000AD52046FFF7BCFC06E06268A16830201C
:1008E0009047206A401C206238467F1E0028F4DCB6
:1008F00007E000986268A168405D9047206A401C4C
:10090000206228466D1E0028F3DC2046FFF7B6FC67
:100910002078000602D5022005B0F0BD0120FBE7DB
:1009200001694A1C02610878704700B58FB00291D6
:1009300000210591054901937944039111460490E2
:100940006846FFF713FD0FB000BD0000E5FFFFFF95
:100950000A681070521C0A60704710B54369002B7A
:1009600002D0C046C04601E0FFF799FC012010BD4F
:100970001278014624310A7000224A700122ECE705
:1009800011680022D243E8E7754600F023F8AE462E
:10099000050069465346C008C000854618B020B51A
:1009A000FFF722FC60BC00274908B6460026C0C5F8
:1009B000C0C5C0C5C0C5C0C5C0C5C0C5C0C5403D17
:1009C00049008D4670470446C046C0462046FFF7A2
:1009D000CEFB000000487047680200200149182043
:1009E000ABBEFEE7260002007047836A0B438362BA
:1009F000426170470029816803D001221143816060
:100A000070470222114381607047826800210123F0
:100A1000DB071A4382600F231B038268491CD20F35
:100A2000D207994201D0002AF7D18168002901DB61
:100A3000006C70470020704702460020CB0104D5AF
:100A4000926801231B069A4300E012680A4200D014
:100A50000120704730B4C368084A8C6813400A68A4
:100A60000D792243CC686D032C4322430C694969FC
:100A700022430A431A43C26030BC704703D2FFFFCF
:100A800081680422114381607047000001220549FA
:100A9000D2050028886801D0104300E090438860A8
:100AA000704700000027014030B5012189B048029D
:100AB00000F05AF90121480400F03EF904200690A4
:100AC0000321684601770024C477092006A9C006DF
:100AD00000F06EF868460094047102940494059442
:100AE0000A4C69462046FFF7B5FF2046FFF78DFF09
:100AF00001212046FFF77EFF054D20462946FFF7DE
:100B00009BFF0028F9D009B030BD0000002401404F
:100B1000010000017047000030B403680D4A0C6A00
:100B200013408A684D6922430C692C4322438C6927
:100B30002243CC6922434C6A22438C6A22431A43E3
:100B40000260CA6842600A6882604968C16030BC5D
:100B5000704700000F80FFFF00B501218BB00846F1
:100B600000F0EAF80B4800900B480190102002902A
:100B7000802100200391059104904901069007907F
:100B8000089009910A9069460448FFF7C5FF0BB029
:100B900000BD000028380140E30000201C00024096
:100BA0000249088008880028FCD170470000002016
:100BB000F0B4002201273B460C6893401C409C4245
:100BC0002AD10C79012C01D0022C12D18668550053
:100BD0000324AC40A64386604C79AC4085682C4326
:100BE000846084889C43848084888B7993401C43F0
:100BF0008480056854000323A3409D4305600D795C
:100C00000668A54035430560C5689D43C560CB793E
:100C1000A340C4682343C360521C102ACBD3F0BC4A
:100C200070474B07DB0E9A40C90810B489000818BA
:100C3000016A0F249C40A1430162016A11430162D1
:100C400010BC70470185704781617047F0B5012184
:100C500083B0480400F070F80121880400F06CF8BB
:100C60000E48009001246846047100258571032612
:100C700046710227C77109206946C006FFF798FF31
:100C8000F02000906846047185714671C77169460D
:100C90000348FFF78DFF03B0F0BD0000FFC0000068
:100CA0000004004830B4837801210278002B15D06D
:100CB00094080E4BA400E41823689207D50EFF2277
:100CC000AA40934342789207120EAA401A43226028
:100CD0000078C006C00E8140054803E0D006C00E73
:100CE00081400448016030BC7047000000E400E02F
:100CF00000E100E080E100E008B501220649074874
:100D000000F03CFC1B21684601700021417001216C
:100D10008170FFF7C7FF08BD0501050000380140DD
:100D200004498A150028086801D0104300E0904368
:100D30000860704700700040044A0029516901D0E2
:100D4000014300E081435161704700000010024000
:100D5000044A0029D16901D0014300E08143D161F7
:100D60007047000000100240044A0029916901D038
:100D7000014300E081439161704700000010024090
:100D80000122054912040028086A01D0104300E03E
:100D9000904308627047000000100240F8B5564DBD
:100DA0000446686800210C22544E104005D00428E7
:100DB00003D0082803D00C281AD026601AE06968EE
:100DC000686803228902D2030F0F1040BF1C00285D
:100DD0000AD0E86A0107090F3046491CFFF751FCA9
:100DE00078430146216005E0454839464143F9E72B
:100DF000444820606868444F0006000F3B5C206850
:100E00000246DA4062606B685B055B0FFB5CDA40B0
:100E1000A2602B6BDB0502D43C4BE36006E06B6801
:100E20005B0401D4530800E09308E3602B6B5F067A
:100E3000374B02D4374F276100E023612F6BFF0649
:100E400001D4666100E060612F6BBF070ED02F6B8D
:100E5000BF07BF0F012F0BD02F6BBF07BF0F022F94
:100E600008D02F6BFF43BF0706D006E0A26104E065
:100E7000A06102E0A36100E0A6612F6BBF03BF0F7A
:100E80000FD02F6BBF03BF0F012F0CD02F6BBF03F1
:100E9000BF0F022F09D02F6BBF03BF0F032F06D048
:100EA00006E0E26104E0E06102E0E36100E0E661A7
:100EB0002F6B3F03BF0F0FD02A6B1203920F012A33
:100EC0000CD0286B0003800F022809D0286B000388
:100ED000800F032806D006E0226204E0206202E0D0
:100EE000236200E02662286B000602D40548606297
:100EF000F8BD6162F8BD00000010024000127A00E7
:100F000000093D00006CDC023C000020809FD50001
:100F1000008000001280000005490028486A02D0C5
:100F20000122104301E04008400048627047000081
:100F30000010024001220549D2030028086A01D0AE
:100F4000104300E090430862704700000010024028
:100F500002490A6A02430A62704700000010024018
:100F600018B400200D4B0090D868400610D4002023
:100F7000C043D86040210C02D868009A0840521C37
:100F80000092A24201D00028F6D0D868400602D5CF
:100F900018BC0120704718BC002070470028004092
:100FA00070B505460026104CCA206062532060626E
:100FB000FFF7D6FF002813D0A06840218843A06027
:100FC000A06829680843A060A86820612069A988F2
:100FD000090408432061E06880218843E06001261D
:100FE000FF206062304670BD0028004000B501213E
:100FF00083B00807FFF7ACFE0120FFF791FE012048
:10100000FFF7BEFE0020FFF7BBFE0120FFF784FFC5
:1010100003200002FFF79CFF0120FFF78BFF002059
:1010200000907C200190034802906846FFF7B8FFCB
:1010300003B000BDCF07000010B5144A14A11C482E
:10104000FFF7F2F81A4800F003FB1A4A1AA11848F1
:10105000FFF7EAF8164800F0FBFA1F4A1FA11448F0
:10106000FFF7E2F8124800F0F3FA254A25A11048EC
:10107000FFF7DAF80E4800F0EBFA2A4A2AA10C48EA
:10108000FFF7D2F80A4800F0E3FA10BD9C180008F8
:101090004D6F64656C206E756D6265723A2020201C
:1010A000202020202020202020202025730D0A0031
:1010B00066010020AC18000850726F647563746993
:1010C0006F6E20646174653A20202020202020204B
:1010D00020202025730D0A008C18000853657269C2
:1010E000616C206E756D6265723A20202020202090
:1010F0002020202020202025730D0A0D0A0000004A
:10110000D7180008456E642070726F647563742090
:101110006D6F64656C3A202020202020202020253F
:10112000730D0A00E7180008456E642070726F6442
:101130007563742073657269616C206E756D62658C
:10114000723A20257300000003480188002902D06C
:101150000188491E018070470000002030B43548E6
:1011600082B001680124214301604168324A114084
:1011700041600168314A114001600168A204914355
:10118000016041683F22120491434160C16A09092C
:101190000901C162016BFF22543291430163416B2B
:1011A000A1434163002383600193009301682204FB
:1011B00011430160520005252D0301681140009183
:1011C0000199491C01910099002902D10199A94274
:1011D000F3D10168890329D5194A112100941160BE
:1011E000416841604168416041687F22D203914378
:1011F00041604168112212041143416001680122DB
:1012000012061143016001688901FCD54168890813
:101210008900416041680222114341604168090729
:10122000890F0229FAD102B030BC7047009302B096
:1012300030BC7047001002400CB8FF08FFFFF6FEFC
:1012400000200240F8B500252E462C4628463FE0F7
:10125000009A032A69D213007B441B79DB189F4450
:10126000016407000D294BD00A2949D002202FE044
:10127000202904D16D1CEDB2415D2029FAD0761CE5
:10128000F6B27119415C202905D0A919415C0D29DC
:1012900001D00A29F3D109210091062C21D2471946
:1012A0003849A0000968324609583846FFF758F90E
:1012B000002804D0641CE4B2062CF1D311E03148BC
:1012C000A7000068C059FFF729F9B04220D10720D4
:1012D00000902D48415D0029BAD10098082824D0FB
:1012E0000ED9009829A38100264829A24068081831
:1012F0008038C16D2748FEF797FF264800F0A8F90F
:1013000025A12448FEF790FF224800F0A1F9F8BD7E
:101310001C481FA10068C059FFF7ECF8002801D055
:101320000320D5E709200090DBE7042C0DD0052C25
:1013300024D01448A100006842581BA11548FEF7AC
:1013400073FF144800F084F9DAE71E4A1E49114879
:10135000FEF76AFF0F4800F07BF91C4A1C490D4854
:10136000FEF762FF0B4800F073F91A4A1A49094860
:10137000FEF75AFF074800F06BF9C1E7FFF75CFE84
:10138000BEE700001C000020E60100204032000003
:1013900040310000660100200D0A0D0A5553472D0B
:1013A0006D696E693E000000456E7465726564206B
:1013B00074686520636F6D6D616E642022257322F1
:1013C000210000009C18000890170008C7180008AA
:1013D000B0170008B7180008CC17000870B5154DF5
:1013E0001349284600F03DF801281CD10F2128465A
:1013F00000F030F8002817D10F4CA0787F2813D2C6
:1014000009200121C006FFF71FFC284600F060F903
:1014100021780A4A5054A1782078491C401C400683
:10142000A170400E207070BD284600F051F970BDCB
:101430000501050000380140E000002060000020A8
:101440000029016802D00122114301E04908490046
:10145000016070470246D26900200A4200D0012094
:10146000704730B40A04130E0122144600258C4044
:10147000012B0FD0022B10D083682340090CC069C8
:101480008A401040002B02D0002800D001252846B9
:1014900030BC704703682340F0E74368EDE7000085
:1014A000F8B52F4DAC78002C58D0697880202D4BA2
:1014B000421AC9182C4EA2420FD23046FFF7A0F8AC
:1014C000697827468020803F401ACA19801925492B
:1014D000FFF796F86878C01905E022462248FFF722
:1014E0008FF8687800196870A878001BA87000252C
:1014F00035551D480090FFF711F81C4C2178401815
:10150000802829D80098FFF709F802461848009962
:10151000FFF776F8257000260098FEF7FFFF0028F9
:1015200017D9134F134D2078395C401C2070124896
:1015300000F0D2F820784006400E20700520288068
:1015400028880028FCD1761C0098FEF7E7FFB042FF
:10155000E9D80098FEF7E2FF0348F8BD0020F8BD87
:10156000E000002060000020E60100206301002070
:10157000E3000020000000200038014010B40B04FC
:101580001C0E01238B40022C02D0032C02D002E05F
:10159000001D00E008300168002A01D0194300E076
:1015A0009943016010BC704730B5044600688BB0A9
:1015B0000D4640084000206060680321090388430D
:1015C000A9680143616020681C49EA6808406968AD
:1015D00011432A69024311432160A06803210902D3
:1015E000884369690143A1606846FFF7D7FB144847
:1015F000844201D106980AE01248844201D107983A
:1016000005E01148844201D1089800E00298216861
:101610000904296800D54000FFF733F82A6852080A
:101620008A4200D8401C2168090404D50107074AF2
:10163000490F10400843A0810BB030BDF3E9FFFF14
:10164000003801400044004000480040F0FF000026
:10165000F1B50098FEF762FF194C217840188028F8
:1016600002D90020C043F8BD0098FEF757FF02469C
:1016700014480099FEF7C4FF002020700646009829
:10168000FEF74CFF002817D90E4F0F4D2078395C1C
:10169000401C20700D4800F01FF820784006400ED6
:1016A00020700520288028880028FCD1761C00980E
:1016B000FEF734FFB042E9D80098FEF72FFFF8BDDF
:1016C00063010020E30000200000002000380140FA
:1016D000808CC005C00D7047C905C90D01857047D4
:1016E00030B5012189B08803FFF73EFB0121480492
:1016F000FFF722FB03204002069002216846017793
:1017000003214177002484770121C1770925ED0663
:1017100006A92846FFF74CFA012209212846FFF7BF
:1017200080FA01220A212846FFF77BFAE12005947E
:10173000400200900394029401940C20054C049004
:1017400069462046FFF730FF01212046FFF778FE6B
:1017500009B030BD0038014010B50C4A0CA1124848
:10176000FEF762FD1048FFF773FF104A10A10E4804
:10177000FEF75AFD0C48FFF76BFF134A13A10A4806
:10178000FEF752FD0848FFF763FF10BD9C180008E4
:101790004D6F64656C206E756D6265723A20202015
:1017A000202025730D0A000066010020C7180008DC
:1017B00048617264776172652076657273696F6ED5
:1017C0003A2025730D0A0000B7180008536F66749D
:1017D000776172652076657273696F6E3A20257342
:1017E0000000000030380A2801D201207047002094
:1017F00070470000FFF72AFAFFF772FFFFF7ACF916
:10180000FFF7AAF9FFF750F9FFF7F0FBFFF774FABB
:1018100019487D21C9000068FEF733FF1749401EB3
:1018200088420CD81649486116480722C3691B0232
:101830001B0A4C042343C361002088610A61012014
:10184000FFF724F9104C0121032209042046FFF779
:10185000CCF82046FFF714F9640401212046FFF775
:10186000F1F9FFF71DFE002801D0FFF7EBFC0A207D
:10187000FFF796F9F1E700004C000020FFFFFF00A2
:1018800000E000E004ED00E000240140554D31355A
:101890003430303030303100000000005553472DD7
:1018A0006D696E69000000000000000032332F30C7
:1018B000392F32303135004657312E3030312E41FC
:1018C000000000000000004857312E3030312E411A
:1018D00000000000000000555A4D2D30303100004E
:1018E0000000000000000031323334353637380054
:1018F0000000000000000030313233343536373814
:101900003941424344454640305800303132333447
:101910003536373839616263646566403078000473
:10192000000008000000000000000200010000109C
:1019300047455420403100005345542040313D403C
:10194000320000004C4F47005345520056455200AC
:10195000535441545553000056616C7565206973AA
:10196000206C6172676572207468616E20616C6CB6
:101970006F7765642E2056616C7565206D75737484
:10198000206265206265747765656E20256420613C
:101990006E642025642E000056616C7565206973A5
:1019A000206C657373207468616E20616C6C6F7756
:1019B00065642E2056616C7565206D7573742062A8
:1019C00065206265747765656E20256420616E64AC
:1019D0002025642E00000000496C6C6567616C2056
:1019E000636F6D6D616E6400496C6C6567616C203E
:1019F000706172616D657465722074797065000044
:101A0000496C6C6567616C20706172616D657465AD
:101A100072000000496E636F72726563742073799F
:101A20006E74617800000000481A00080000002071
:101A300060000000F8000008A81A000860000020FC
:101A400068080000140100080000000030190008B8
:101A50003819000850190008441900084C190008EA
:101A6000481900080400002024000020D8190008AC
:101A7000001A0008E8190008141A0008981900084C
:101A800058190008000000000102030401020304C9
:101A900006070809006CDC020000000000000000DE
:081AA000010203040607080916
:04000005080001B539
:00000001FF
