:020000040800F2
:10000000600600203D01000863010008650100084A
:1000100000000000000000000000000000000000E0
:100020000000000000000000000000006701000860
:100030000000000000000000690100086B010008DA
:100040006D010008000000006D0100086D0100084E
:100050006D0100086D0100086D0100086D010008C8
:10006000000000006D0100086D0100086D0100082E
:100070006D0100086D0100086D010008000000001E
:100080006D01000800000000000000006D01000884
:100090006D0100086D0100086D0100086D01000888
:1000A0006D0100086D0100086D0100086D01000878
:1000B0006D01000800F002F800F030F80CA030C824
:1000C000083824182D18A246671EAB4654465D46D4
:1000D000AC4201D100F022F87E460F3E0FCCB6466E
:1000E0000126334200D0FB1AA246AB4633431847E1
:1000F00044030000540300000023002400250026D0
:10010000103A01D378C1FBD8520700D330C100D5D3
:100110000B6070471FB51FBD10B510BD00F04BF848
:100120001146FFF7F7FF00F033F900F063F803B46E
:10013000FFF7F2FF03BC00F067F800000F4880F300
:1001400008880F480168090E0E4A914205D10E48F1
:100150000E4901600E480F4901600F4880470F4863
:100160000047FEE7FEE7FEE7FEE7FEE7FEE70000EA
:100170000B480C490C4A0D4B7047000060060020EC
:10018000040000001F0000001810024001000000E1
:100190000000014000000000A9020008B5000008AE
:1001A0006000002060060020600200206002002045
:1001B000704770477047754600F022F8AE4605005C
:1001C00069465346C008C000854618B020B5FFF701
:1001D000CFFF60BC00274908B6460026C0C5C0C591
:1001E000C0C5C0C5C0C5C0C5C0C5C0C5403D49002B
:1001F0008D4670470446C046C0462046FFF797FF2D
:10020000004870470000002001491820ABBEFEE7FF
:10021000260002007047F0B4002201273B460C681C
:1002200093401C409C422AD10C79012C01D0022C15
:1002300012D1866855000324AC40A64386604C79F1
:10024000AC4085682C43846084889C438480848887
:100250008B7993401C438480056854000323A3409A
:100260009D4305600D790668A54035430560C56866
:100270009D43C560CB79A340C4682343C360521C2F
:10028000102ACBD3F0BC704701857047816170475D
:10029000044A0029516901D0014300E081435161C2
:1002A000704700000010024030B4354882B0016849
:1002B0000124214301604168324A114041600168D4
:1002C000314A114001600168A20491430160416814
:1002D0003F22120491434160C16A09090901C162C8
:1002E000016BFF22543291430163416BA14341638F
:1002F000002383600193009301682204114301608D
:10030000520005252D030168114000910199491CF7
:1003100001910099002902D10199A942F3D1016804
:10032000890329D5194A112100941160416841605F
:100330004168416041687F22D20391434160416836
:100340001122120411434160016801221206114377
:10035000016001688901FCD5416889088900416014
:10036000416802221143416041680907890F02294F
:10037000FAD102B030BC7047009302B030BC704775
:10038000001002400CB8FF08FFFFF6FE00200240FC
:10039000012182B04804FFF77BFF01218804FFF7A9
:1003A00077FF214800900124684604710026867179
:1003B000032747710221C1710925ED0669462846C8
:1003C000FFF729FFF020009068460471867147719D
:1003D0000221C171154C69462046FFF71CFF01211F
:1003E0002846FFF751FFFE212846FFF74FFFBE03C7
:1003F00031462846FFF748FFF0212046FFF744FF2B
:100400000B4C0320401CA042FCD331462846FFF78A
:100410003BFF21460320401C8842FCD3314628463E
:10042000FFF734FFEDE70000FFC0000000040048C4
:1004300080841E00440400080000002060060000C4
:04044000F8000008B8
:040000050800013DB1
:00000001FF
