:020000040800F2
:100000009008002095010008BB010008BD01000810
:1000100000000000000000000000000000000000E0
:10002000000000000000000000000000BF01000808
:100030000000000000000000C1010008050D0008DC
:10004000C501000800000000C5010008C501000846
:10005000C5010008C5010008C5010008C501000868
:1000600000000000C5010008E1070008C501000804
:10007000C5010008C5010008C50100080000000016
:10008000C50100080000000000000000C5010008D4
:10009000C5010008C5010008C5010008C501000828
:1000A000C5010008C5010008C5010008350F00089A
:1000B000C501000800F002F800F041F80CA030C8BB
:1000C000083824182D18A246671EAB4654465D46D4
:1000D000AC4201D100F033F87E460F3E0FCCB6465D
:1000E0000126334200D0FB1AA246AB4633431847E1
:1000F00094120000B4120000103A02D378C878C1FC
:10010000FAD8520701D330C830C101D504680C6059
:10011000704700000023002400250026103A01D378
:1001200078C1FBD8520700D330C100D50B607047AF
:1001300010B5002010BD1FB51FBD10B510BD00F0DB
:100140008AFA1146FFF7F7FF01F0BCF800F0A2FAB7
:1001500003B4FFF7F2FF03BC00F0A6FA70B5054642
:100160000C46164602E00FCC0FC5103E102EFAD2F8
:10017000082E02D303CC03C5083E042E07D301CCBE
:1001800001C5361F03E021782970641C6D1C761EA2
:10019000F9D270BD0F4880F308880F480168090E36
:1001A0000E4A914205D10E480E4901600E480F4992
:1001B00001600F4880470F480047FEE7FEE7FEE773
:1001C000FEE7FEE7FEE700000B480C490C4A0D4B2A
:1001D0007047000090080020040000001F0000008D
:1001E0001810024001000000000001400000000063
:1001F000190D0008B50000089002002090080020AA
:1002000090040020900400200FB41CB5074B06AAF0
:100210007B4469460090059800F005FA0020694685
:1002200000F014FA1CBC08BC04B0184739040000E4
:10023000F3B50446002081B020622046E16888477B
:1002400000287DD0252802D06268A16883E0454F50
:1002500000257F442046E16888472028064608DBC1
:10026000312E06D2B81920380078002801D0054375
:10027000F0E7A80701D5042085430020E061074688
:10028000A0612A2E0AD0304601F014F8002827D0A9
:10029000B8000019303E0090866119E00298BA005B
:1002A000121902C8916102902046E1688847012F27
:1002B000064617D1E06900281FDA202085431CE09C
:1002C00000980A2180694843009980193038886174
:1002D0002046E1688847064600F0ECFF0028EFD191
:1002E000012F0AD02E2E08D12046E1688847064605
:1002F000202005437F1C022FC3DBA069002803DAFE
:100300004042A06101200543E80701D01020854349
:10031000002E24D030464138192803D80120C002CD
:1003200005432036204625603146029A1546FFF7E0
:10033000FFFE00280CD0012807D0ED1DE80800E0E2
:100340000DE0C0000830029077E72D1D029574E79C
:1003500062683046A1689047206A401C6CE7206ABA
:10036000FEBD00001A11000030B5441C03E0017806
:10037000401C00290DD08107F9D10B4BDD0104C8C9
:10038000D11A91432940FAD0001B0A0603D0C01E9F
:1003900030BD001B30BD0A0401D0801E30BD0902F3
:1003A000FCD0401E30BD000001010101F8B5042A57
:1003B0002CD3830712D00B78491C0370401C521EAB
:1003C00083070BD00B78491C0370401C521E830717
:1003D00004D00B78491C0370401C521E8B079B0FE6
:1003E00005D0C91ADF002023DE1B08C90AE0FFF789
:1003F000B5FEF8BD1D4608C9FD401C46B4402C435F
:1004000010C0121F042AF5D2F308C91A521EF0D4E4
:100410000B78491C0370401C521EEAD40B78491C0F
:100420000370401C012AE4D409780170F8BD002251
:1004300003098B4273D3030A8B4258D3030B8B42BD
:100440003CD3030C8B4221D312E003460B437FD4F1
:10045000002243088B4274D303098B425FD3030A03
:100460008B4244D3030B8B4228D3030C8B420DD316
:10047000FF22090212BA030C8B4202D312120902A4
:1004800065D0030B8B4219D300E0090AC30B8B42E2
:1004900001D3CB03C01A5241830B8B4201D38B0390
:1004A000C01A5241430B8B4201D34B03C01A524135
:1004B000030B8B4201D30B03C01A5241C30A8B4278
:1004C00001D3CB02C01A5241830A8B4201D38B0263
:1004D000C01A5241430A8B4201D34B02C01A524107
:1004E000030A8B4201D30B02C01A5241CDD2C30979
:1004F0008B4201D3CB01C01A524183098B4201D3F5
:100500008B01C01A524143098B4201D34B01C01ADF
:10051000524103098B4201D30B01C01A5241C30857
:100520008B4201D3CB00C01A524183088B4201D3C6
:100530008B00C01A524143088B4201D34B00C01AB2
:100540005241411A00D201465241104670475DE0C7
:10055000CA0F00D04942031000D34042534000224A
:100560009C4603098B422DD3030A8B4212D3FC22F3
:10057000890112BA030A8B420CD3890192118B4272
:1005800008D3890192118B4204D389013AD0921188
:1005900000E08909C3098B4201D3CB01C01A524143
:1005A00083098B4201D38B01C01A524143098B420C
:1005B00001D34B01C01A524103098B4201D30B01F5
:1005C000C01A5241C3088B4201D3CB00C01A52411A
:1005D00083088B4201D38B00C01A5241D9D2430801
:1005E0008B4201D34B00C01A5241411A00D201463E
:1005F000634652415B10104601D34042002B00D5A8
:100600004942704763465B1000D3404201B5002069
:10061000C046C04602BD70477047704701694A1C1A
:1006200002610878704700B58FB0029100210591F2
:100630000549019379440391114604906846FFF7F8
:10064000F7FD0FB000BD0000E5FFFFFF0A68107066
:10065000521C0A607047754600F022F8AE4605004D
:1006600069465346C008C000854618B020B5FFF75C
:10067000ABFD60BC00274908B6460026C0C5C0C512
:10068000C0C5C0C5C0C5C0C5C0C5C0C5403D490086
:100690008D4670470446C046C0462046FFF758FDC9
:1006A000004870473002002001491820ABBEFEE729
:1006B000260002007047836A0B43836242617047E1
:1006C0000029816803D00122114381607047022212
:1006D000114381607047826800210123DB071A43C0
:1006E00082600F231B038268491CD20FD2079942F4
:1006F00001D0002AF7D18168002901DB006C704726
:100700000020704702460020CB0104D592680123E7
:100710001B069A4300E012680A4200D0012070478D
:1007200030B4C368084A8C6813400A680D792243C4
:10073000CC686D032C4322430C69496922430A4368
:100740001A43C26030BC704703D2FFFF81680422A5
:10075000114381607047000001220549D20500283D
:10076000886801D0104300E0904388607047000023
:100770000027014030B5012189B0480200F05AF944
:100780000121480400F03EF9042006900321684648
:1007900001770024C477092006A9C00600F06EF88E
:1007A0006846009404710294049405940A4C6946C6
:1007B0002046FFF7B5FF2046FFF78DFF01212046B9
:1007C000FFF77EFF054D20462946FFF79BFF0028D7
:1007D000F9D009B030BD0000002401400100000143
:1007E0007047000030B403680D4A0C6A13408A68F1
:1007F0004D6922430C692C4322438C692243CC6906
:1008000022434C6A22438C6A22431A430260CA681C
:1008100042600A6882604968C16030BC704700006D
:100820000F80FFFF00B501218BB0084600F0EAF809
:100830000B4800900B48019010200290802100206E
:100840000391059104904901069007900890099141
:100850000A9069460448FFF7C5FF0BB000BD0000D1
:1008600028380140AB0000201C00024002490880EB
:1008700008880028FCD1704700000020F0B4002256
:1008800001273B460C6893401C409C422AD10C79BE
:10089000012C01D0022C12D1866855000324AC40F3
:1008A000A64386604C79AC4085682C43846084887C
:1008B0009C43848084888B7993401C4384800568A2
:1008C00054000323A3409D4305600D790668A540AD
:1008D00035430560C5689D43C560CB79A340C468B6
:1008E0002343C360521C102ACBD3F0BC70474B0784
:1008F000DB0E9A40C90810B489000818016A0F2459
:100900009C40A1430162016A1143016210BC70471F
:100910000185704781617047F0B5012183B04804BB
:1009200000F070F80121880400F06CF80E48009087
:10093000012468460471002585710326467102274B
:10094000C77109206946C006FFF798FFF0200090A4
:100950006846047185714671C77169460348FFF79F
:100960008DFF03B0F0BD0000FFC000000004004890
:1009700030B4837801210278002B15D094080E4BF7
:10098000A400E41823689207D50EFF22AA409343DF
:1009900042789207120EAA401A4322600078C006DD
:1009A000C00E8140054803E0D006C00E81400448D7
:1009B000016030BC7047000000E400E000E100E0AE
:1009C00080E100E008B501220649074800F084FBF9
:1009D0001B21684601700021417001218170FFF7E1
:1009E000C7FF08BD050105000038014004498A150C
:1009F0000028086801D0104300E090430860704769
:100A000000700040044A0029516901D0014300E010
:100A1000814351617047000000100240044A0029E0
:100A2000D16901D0014300E08143D16170470000EA
:100A300000100240044A0029916901D0014300E0FE
:100A40008143916170470000001002400122054976
:100A500012040028086A01D0104300E090430862A5
:100A60007047000000100240F8B5564D0446686813
:100A700000210C22544E104005D0042803D0082831
:100A800003D00C281AD026601AE06968686803222F
:100A90008902D2030F0F1040BF1C00280AD0E86A59
:100AA0000107090F3046491CFFF7C1FC7843014696
:100AB000216005E0454839464143F9E74448206054
:100AC0006868444F0006000F3B5C20680246DA402D
:100AD00062606B685B055B0FFB5CDA40A2602B6BAE
:100AE000DB0502D43C4BE36006E06B685B0401D499
:100AF000530800E09308E3602B6B5F06374B02D48A
:100B0000374F276100E023612F6BFF0601D4666138
:100B100000E060612F6BBF070ED02F6BBF07BF0FC8
:100B2000012F0BD02F6BBF07BF0F022F08D02F6BE9
:100B3000FF43BF0706D006E0A26104E0A06102E027
:100B4000A36100E0A6612F6BBF03BF0F0FD02F6B17
:100B5000BF03BF0F012F0CD02F6BBF03BF0F022F9E
:100B600009D02F6BBF03BF0F032F06D006E0E26151
:100B700004E0E06102E0E36100E0E6612F6B3F0327
:100B8000BF0F0FD02A6B1203920F012A0CD0286BD3
:100B90000003800F022809D0286B0003800F032870
:100BA00006D006E0226204E0206202E0236200E058
:100BB0002662286B000602D405486062F8BD6162B7
:100BC000F8BD00000010024000127A0000093D004C
:100BD000006CDC0202000020809FD5000080000035
:100BE0001280000005490028486A02D00122104303
:100BF00001E04008400048627047000000100240D9
:100C000001220549D2030028086A01D0104300E000
:100C100090430862704700000010024002490A6ACF
:100C200002430A62704700000010024018B400201E
:100C30000D4B0090D868400610D40020C043D86007
:100C400040210C02D868009A0840521C0092A2422F
:100C500001D00028F6D0D868400602D518BC012083
:100C6000704718BC002070470028004070B505464A
:100C70000026104CCA20606253206062FFF7D6FF46
:100C8000002813D0A06840218843A060A06829688C
:100C90000843A060A86820612069A9880904084366
:100CA0002061E06880218843E0600126FF206062C7
:100CB000304670BD0028004000B5012183B0080710
:100CC000FFF7ACFE0120FFF791FE0120FFF7BEFE0B
:100CD0000020FFF7BBFE0120FFF784FF0320000286
:100CE000FFF79CFF0120FFF78BFF002000907C2086
:100CF0000190034802906846FFF7B8FF03B000BDBB
:100D0000CF07000003480188002902D00188491E4E
:100D1000018070470000002030B4354882B001687F
:100D20000124214301604168324A11404160016859
:100D3000314A114001600168A20491430160416899
:100D40003F22120491434160C16A09090901C1624D
:100D5000016BFF22543291430163416BA143416314
:100D60000023836001930093016822041143016012
:100D7000520005252D030168114000910199491C7D
:100D800001910099002902D10199A942F3D101688A
:100D9000890329D5194A11210094116041684160E5
:100DA0004168416041687F22D203914341604168BC
:100DB00011221204114341600168012212061143FD
:100DC000016001688901FCD541688908890041609A
:100DD000416802221143416041680907890F0229D5
:100DE000FAD102B030BC7047009302B030BC7047FB
:100DF000001002400CB8FF08FFFFF6FE0020024082
:100E000070B53A4D0024285D16E00B290CD20A007B
:100E10007A441279921897440F1F070707070707AC
:100E20002B596100002803D10729EED30028ECD00C
:100E300070BD0028F6D070BD2E460D2808D00A28B7
:100E400006D0412801D35A2806D2002810D070BD00
:100E500007210028EDD070BD25490A5D472A10D032
:100E60004C2AFBD0532AF9D0562AF7D00028F2D1C9
:100E7000354620A11E48FFF7C7F9285D0028F8D0A5
:100E800070BD641C085D452803D0305D0028EFD09C
:100E900070BD641C085D542803D0305D0028E7D085
:100EA00070BD641C085D202803D0305D0028DFD0B1
:100EB00070BD641CE4B2085D2028FAD111A10C4871
:100EC000FFF7A2F9285D0028D2D070BD10A1084814
:100ED000FFF79AF9285D0028F8D070BD11A10448E9
:100EE000FFF792F9285D0028F8D070BDAE01002010
:100EF0002E010020496C6C6567616C20636F6D6D1D
:100F0000616E640047455420636F6D6D616E6400CF
:100F1000556E6B6E6F776E207661726961626C657B
:100F200000000000496E76616C69642076616C7522
:100F30006500000070B5154D1349284600F03DF8D6
:100F400001281CD10F21284600F030F8002817D1C5
:100F50000F4CA0787F2813D209200121C006FFF78B
:100F6000D9FC284600F062F921780A4A5054A17849
:100F70002078491C401C4006A170400E207070BDB6
:100F8000284600F053F970BD050105000038014006
:100F9000A8000020280000200029016802D00122BA
:100FA000114301E049084900016070470246D269D7
:100FB00000200A4200D00120704730B40A04130E0A
:100FC0000122144600258C40012B0FD0022B10D09B
:100FD00083682340090CC0698A401040002B02D06E
:100FE000002800D00125284630BC70470368234004
:100FF000F0E74368EDE70000F8B52F4DAC78002C22
:1010000058D0697880202D4B421AC9182C4EA24224
:101010000FD23046FFF7CAF9697827468020803F13
:10102000401ACA1980192549FFF7C0F96878C01914
:1010300005E022462248FFF7B9F968780019687080
:10104000A878001BA870002535551D480090FFF7B3
:101050008BF91C4C21784018802829D80098FFF77C
:1010600083F9024618480099FFF7A0F92570002679
:101070000098FFF779F9002817D9134F134D2078FE
:10108000395C401C2070124800F0D4F820784006EB
:10109000400E20700520288028880028FCD1761C6E
:1010A0000098FFF761F9B042E9D80098FFF75CF9C2
:1010B0000348F8BD07A0F8BDA800002028000020C4
:1010C000AE0100202B010020AB000020000000201A
:1010D000003801400000000010B40B041C0E012376
:1010E0008B40022C02D0032C02D002E0001D00E055
:1010F00008300168002A01D0194300E099430160DB
:1011000010BC704730B5044600688BB00D464008EF
:10111000400020606068032109038843A9680143F7
:10112000616020681C49EA680840696811432A69BF
:10113000024311432160A0680321090288436969C1
:101140000143A1606846FFF78FFC1448844201D137
:1011500006980AE01248844201D1079805E0114838
:10116000844201D1089800E00298216809042968A6
:1011700000D54000FFF75BF92A6852088A4200D880
:10118000401C2168090404D50107074A490F104093
:101190000843A0810BB030BDF3E9FFFF00380140E8
:1011A0000044004000480040F0FF0000F1B5009806
:1011B000FFF7DAF8194C21784018802802D900206E
:1011C000C043F8BD0098FFF7CFF8024614480099D5
:1011D000FFF7ECF80020207006460098FFF7C4F8EF
:1011E000002817D90E4F0F4D2078395C401C207015
:1011F0000D4800F01FF820784006400E20700520B2
:10120000288028880028FCD1761C0098FFF7ACF8CD
:10121000B042E9D80098FFF7A7F8F8BD2B010020ED
:10122000AB0000200000002000380140808CC00589
:10123000C00D7047C905C90D0185704730B5012142
:1012400089B08803FFF7F6FB01214804FFF7DAFBBA
:10125000032040020690022168460177032141776E
:10126000002484770121C1770925ED0606A92846C7
:10127000FFF704FB012209212846FFF738FB012272
:101280000A212846FFF733FBE12005944002009035
:101290000394029401940C20054C04906946204666
:1012A000FFF730FF01212046FFF776FE09B030BD81
:1012B0000038014030380A2801D201207047002050
:1012C00070470000FFF728FBFFF7B8FFFFF7AAFA07
:1012D000FFF7A8FAFFF74EFAFFF7EEFCFFF772FBF5
:1012E0001C487D21C9000068FFF7A1F81A49401E7B
:1012F00088420CD81949486119480722C3691B0262
:101300001B0A4C042343C361002088610A61012049
:10131000FFF722FA134C0121032209042046FFF7AC
:10132000CAF92046FFF712FA65040F4C012128463E
:10133000FFF7EEFAFFF760FE2078002806D0FFF7EF
:101340005FFD0A48FFF732FF0028FAD00A20FFF7B6
:101350008DFAEBE714000020FFFFFF0000E000E043
:1013600004ED00E000240140AE0100202E01002029
:10137000040000080000000000000002000100005E
:1013800010000000A4130008000000202800000046
:10139000F8000008CC1300082800002068080000AE
:1013A0001401000800000000000001020304010213
:1013B0000304060708090000006CDC0200000000BE
:0C13C000000000000102030406070809F9
:040000050800019559
:00000001FF
