:020000040800F2
:1000000078070020A1010008C7010008C901000805
:1000100000000000000000000000000000000000E0
:10002000000000000000000000000000CB010008FC
:100030000000000000000000CD010008910F000842
:10004000D101000800000000D1010008D101000822
:10005000D1010008D1010008D1010008D101000838
:1000600000000000D101000845090008D101000886
:10007000D1010008D1010008D101000800000000F2
:10008000D10100080000000000000000D1010008BC
:10009000D1010008D1010008D1010008D1010008F8
:1000A000D1010008D1010008D1010008D1010008E8
:1000B000D101000800F002F800F046F80CA030C8AA
:1000C000083824182D18A246671EAB4654465D46D4
:1000D000AC4201D100F038F87E460F3E0FCCB64658
:1000E0000126334200D0FB1AA246AB4633431847E1
:1000F000B4120000D4120000103A02D378C878C1BC
:10010000FAD8520701D330C830C101D504680C6059
:10011000704700000023002400250026103A01D378
:1001200078C1FBD8520700D330C100D50B607047AF
:1001300010B5642902D100F0A9F810BD002010BD4F
:100140001FB51FBD10B510BD00F033FB1146FFF702
:10015000F7FF01F051F800F04BFB03B4FFF7F2FF9B
:1001600003BC00F04FFB000070B505460C46164678
:1001700002E00FCC0FC5103E102EFAD2082E02D38B
:1001800003CC03C5083E042E07D301CC01C5361F9E
:1001900003E021782970641C6D1C761EF9D270BDB5
:1001A0000F4880F308880F480168090E0E4A9142F3
:1001B00005D10E480E4901600E480F4901600F48F5
:1001C00080470F480047FEE7FEE7FEE7FEE7FEE751
:1001D000FEE700000B480C490C4A0D4B704700002D
:1001E00078070020040000001F00000018100240E3
:1001F000010000000000014000000000A50F000801
:10020000B50000087801002078070020780300205E
:10021000780300200FB41CB5074B06AA7B4469463F
:100220000090059800F099FA0020694600F0A8FABD
:100230001CBC08BC04B018476105000070B504463A
:1002400085690068C10601D5302600E02026C00778
:1002500007D070BD62683046A1689047206A401C94
:1002600020626D1EF6D570BD70B5044685690078B4
:10027000C00707D170BD6268A16820209047206A3E
:10028000401C20626D1EF6D570BD0000F7B500253C
:1002900075291068009914A611D0C046C0460028E0
:1002A00002DA404211A608E0009909688A0701D5E0
:1002B0000FA602E0490704D50EA6012501E0C046BD
:1002C000C046009F0024243704E000F05EFA30317D
:1002D0003955641C0028F8D12B4632462146009837
:1002E00000F0DEF9FEBD0000000000002D0000005F
:1002F0002B00000020000000F3B50446002081B070
:1003000020622046E168884700287DD0252802D059
:100310006268A16883E0454F00257F442046E1687C
:1003200088472028064608DB312E06D2B819203827
:100330000078002801D00543F0E7A80701D5042084
:1003400085430020E0610746A0612A2E0AD030468E
:1003500000F04BFF002827D0B8000019303E009075
:10036000866119E00298BA00121902C891610290E0
:100370002046E1688847012F064617D1E06900282A
:100380001FDA202085431CE000980A218069484339
:1003900000998019303888612046E1688847064610
:1003A00000F023FF0028EFD1012F0AD02E2E08D114
:1003B0002046E16888470646202005437F1C022F1F
:1003C000C3DBA069002803DA4042A0610120054395
:1003D000E80701D010208543002E24D03046413854
:1003E000192803D80120C002054320362046256085
:1003F0003146029A1546FFF79BFE00280CD00128D3
:1004000007D0ED1DE80800E00DE0C00008300290C4
:1004100077E72D1D029574E762683046A168904722
:10042000206A401C6CE7206AFEBD000072100000CC
:10043000F8B5042A2CD3830712D00B78491C03701B
:10044000401C521E83070BD00B78491C0370401CC4
:10045000521E830704D00B78491C0370401C521EA7
:100460008B079B0F05D0C91ADF002023DE1B08C9AC
:100470000AE0FFF779FEF8BD1D4608C9FD401C469D
:10048000B4402C4310C0121F042AF5D2F308C91A35
:10049000521EF0D40B78491C0370401C521EEAD443
:1004A0000B78491C0370401C012AE4D409780170C0
:1004B000F8BD002203098B4273D3030A8B4258D341
:1004C000030B8B423CD3030C8B4221D312E0034637
:1004D0000B437FD4002243088B4274D303098B4221
:1004E0005FD3030A8B4244D3030B8B4228D3030C04
:1004F0008B420DD3FF22090212BA030C8B4202D3A6
:100500001212090265D0030B8B4219D300E0090ACD
:10051000C30B8B4201D3CB03C01A5241830B8B42D6
:1005200001D38B03C01A5241430B8B4201D34B03BF
:10053000C01A5241030B8B4201D30B03C01A524124
:10054000C30A8B4201D3CB02C01A5241830A8B42A9
:1005500001D38B02C01A5241430A8B4201D34B0292
:10056000C01A5241030A8B4201D30B02C01A5241F6
:10057000CDD2C3098B4201D3CB01C01A52418309AA
:100580008B4201D38B01C01A524143098B4201D3E4
:100590004B01C01A524103098B4201D30B01C01A0F
:1005A0005241C3088B4201D3CB00C01A5241830889
:1005B0008B4201D38B00C01A524143088B4201D3B6
:1005C0004B00C01A5241411A00D201465241104616
:1005D00070475DE0CA0F00D04942031000D340428B
:1005E000534000229C4603098B422DD3030A8B42C1
:1005F00012D3FC22890112BA030A8B420CD389015F
:1006000092118B4208D3890192118B4204D3890144
:100610003AD0921100E08909C3098B4201D3CB0182
:10062000C01A524183098B4201D38B01C01A524137
:1006300043098B4201D34B01C01A524103098B423B
:1006400001D30B01C01A5241C3088B4201D3CB0026
:10065000C01A524183088B4201D38B00C01A524109
:10066000D9D243088B4201D34B00C01A5241411AE0
:1006700000D20146634652415B10104601D340420E
:10068000002B00D54942704763465B1000D34042BF
:1006900001B50020C046C04602BD70477047704794
:1006A000FFB504460D4681B02430009021688806CD
:1006B00004D51022E0699143216000E00120A842A6
:1006C00001DD471B00E000270498A1697A19101882
:1006D000081AA0612078C00602D42046FFF7AEFDBC
:1006E000002608E003986268A168805D9047206A50
:1006F000401C761C206204988642F3DB2078C006FA
:100700000AD52046FFF79AFD06E06268A16830200E
:100710009047206A401C206238467F1E0028F4DC87
:1007200007E000986268A168405D9047206A401C1D
:10073000206228466D1E0028F3DC2046FFF794FD5A
:100740002078000602D5022005B0F0BD0120FBE7AD
:1007500001694A1C02610878704700B58FB00291A8
:1007600000210591054901937944039111460490B4
:100770006846FFF7C1FD0FB000BD0000E5FFFFFFB9
:100780000A681070521C0A60704701468008081AF7
:1007900002091018020A1018020C1018C008820072
:1007A00012185200891A01E0401C0A390A29FBD2AA
:1007B0007047754600F022F8AE460500694653467C
:1007C000C008C000854618B020B5FFF703FD60BC27
:1007D00000274908B6460026C0C5C0C5C0C5C0C56B
:1007E000C0C5C0C5C0C5C0C5403D49008D467047A5
:1007F0000446C046C0462046FFF7AFFC004870479D
:100800001401002001491820ABBEFEE726000200BB
:100810007047836A0B438362426170470029816895
:1008200003D001221143816070470222114381608D
:100830007047826800210123DB071A4382600F237F
:100840001B038268491CD20FD207994201D0002AAB
:10085000F7D18168002901DB006C704700207047E8
:10086000006C80B2704702460020CB0104D592682C
:1008700001231B069A4300E012680A4200D00120BF
:100880007047000030B4C368084A8C6813400A6897
:100890000D792243CC686D032C4322430C694969CE
:1008A00022430A431A43C26030BC704703D2FFFFA1
:1008B00081680422114381607047000001220549CC
:1008C000D2050028886801D0104300E0904388607A
:1008D000704700000027014030B5012189B048026F
:1008E00000F0BEF90121480400F0A2F904200690AE
:1008F0000321684601770024C477092006A9C006B1
:1009000000F06EF868460094047102940494059413
:100910000A4C69462046FFF7B5FF2046FFF789FFDE
:1009200001212046FFF77AFF054D20462946FFF7B3
:100930009AFF0028F9D009B030BD00000024014022
:10094000010000017047000030B403680D4A0C6AD2
:1009500013408A684D6922430C692C4322438C69F9
:100960002243CC6922434C6A22438C6A22431A43B5
:100970000260CA6842600A6882604968C16030BC2F
:10098000704700000F80FFFF00B501218BB00846C3
:1009900000F04EF90B4800900B4801901020029097
:1009A0008021002003910591049049010690079051
:1009B000089009910A9069460448FFF7C5FF0BB0FB
:1009C00000BD000028380140280000201C00024023
:1009D0000249088008880028FCD1704700000020E8
:1009E000F0B4002201273B460C6893401C409C4217
:1009F0002AD10C79012C01D0022C12D18668550025
:100A00000324AC40A64386604C79AC4085682C43F7
:100A1000846084889C43848084888B7993401C43C1
:100A20008480056854000323A3409D4305600D792D
:100A30000668A54035430560C5689D43C560CB7910
:100A4000A340C4682343C360521C102ACBD3F0BC1C
:100A500070474B07DB0E9A40C90810B4890008188C
:100A6000016A0F249C40A1430162016A11430162A3
:100A700010BC70470185704781617047F0B5012156
:100A800083B0480400F0D4F80121880400F0D0F8C5
:100A90000E480090012468460471002585710326E4
:100AA00046710227C77109206946C006FFF798FF03
:100AB000F02000906846047185714671C7716946DF
:100AC0000348FFF78DFF03B0F0BD0000FFC000003A
:100AD0000004004870B51148114C4088218B114E1C
:100AE000401AC50004213046FFF7BDFE0028F9D0AA
:100AF0003046FFF7B5FE062148430521FFF7E7FC26
:100B0000218B081A0A2148432946FFF7E0FCFF30F1
:100B10000A212D30FFF7DBFC70BD0000C0F7FF1F7E
:100B2000A0F7FF1F0024014010B582B0044601A9C0
:100B3000002000F0B1F96946887900904B790A7974
:100B400002A12046FFF766FB02B010BD25303264DB
:100B50003A253032643A25303264000010B509225B
:100B600010A11348FFF764FC0C2212A11548FFF7EF
:100B70005FFC0A2214A11748FFF75AFC0A2216A1AB
:100B80001848FFF755FC092217A11A48FFF750FC37
:100B900019481AA100F018FB09221BA11D48FFF7F4
:100BA00047FC10BD5553472D6D696E69000000006C
:100BB000BA000020554D31353430303030303100FE
:100BC00000000000AA0000204857312E3030312E9E
:100BD00041000000E20000205357312E3030312E0A
:100BE00041000000D200002032303135303932333C
:100BF00000000000CA00002002010020555A4D2DBF
:100C000030303100000000003132333435363738AF
:100C100000000000F200002004498A15002808683E
:100C200001D0104300E0904308607047007000401E
:100C3000044A0029516901D0014300E08143516118
:100C40007047000000100240044A0029D16901D019
:100C5000014300E08143D161704700000010024071
:100C6000044A0029916901D0014300E08143916168
:100C700070470000001002400122054912040028BC
:100C8000086A01D0104300E09043086270470000FA
:100C900000100240F8B5564D0446686800210C2249
:100CA000544E104005D0042803D0082803D00C2847
:100CB0001AD026601AE06968686803228902D203A4
:100CC0000F0F1040BF1C00280AD0E86A0107090F67
:100CD0003046491CFFF7EDFB78430146216005E0F3
:100CE000454839464143F9E7444820606868444F25
:100CF0000006000F3B5C20680246DA4062606B68C9
:100D00005B055B0FFB5CDA40A2602B6BDB0502D45A
:100D10003C4BE36006E06B685B0401D4530800E0E1
:100D20009308E3602B6B5F06374B02D4374F276184
:100D300000E023612F6BFF0601D4666100E0606173
:100D40002F6BBF070ED02F6BBF07BF0F012F0BD02C
:100D50002F6BBF07BF0F022F08D02F6BFF43BF07BA
:100D600006D006E0A26104E0A06102E0A36100E019
:100D7000A6612F6BBF03BF0F0FD02F6BBF03BF0F39
:100D8000012F0CD02F6BBF03BF0F022F09D02F6B89
:100D9000BF03BF0F032F06D006E0E26104E0E0616D
:100DA00002E0E36100E0E6612F6B3F03BF0F0FD06D
:100DB0002A6B1203920F012A0CD0286B0003800FBC
:100DC000022809D0286B0003800F032806D006E014
:100DD000226204E0206202E0236200E02662286BC7
:100DE000000602D405486062F8BD6162F8BD0000EB
:100DF0000010024000127A0000093D00006CDC0285
:100E000002000020809FD5000080000012800000BA
:100E100005490028486A02D00122104301E0400839
:100E2000400048627047000000100240012205495E
:100E3000D2030028086A01D0104300E09043086202
:100E4000704700000010024002490A6A02430A6229
:100E5000704700000010024018B400200D4B0090B5
:100E6000D868400610D40020C043D86040210C024E
:100E7000D868009A0840521C0092A24201D0002873
:100E8000F6D0D868400602D518BC0120704718BCBF
:100E9000002070470028004070B4154A1568154AB4
:100EA0002C461440A202930E6204520E64066D0298
:100EB0000B70640E6D0E40264A7035408C70CD70FC
:100EC000002812D118090A251B0768431B0F1818A0
:100ED0000870100912076843120F10184870200993
:100EE00022076843120F1018887070BC704700000A
:100EF000002800407F7F7F0070B505460026104C1B
:100F0000CA20606253206062FFF7A6FF002813D05A
:100F1000A06840218843A060A06829680843A060B9
:100F2000A86820612069A988090408432061E06855
:100F300080218843E0600126FF206062304670BD5A
:100F40000028004000B5012183B00807FFF77CFEB0
:100F50000120FFF761FE0120FFF78EFE0020FFF762
:100F60008BFE0120FFF754FF03200002FFF76CFF08
:100F70000120FFF75BFF002000907C2001900348D8
:100F800002906846FFF7B8FF03B000BDCF0700002E
:100F900003480188002902D00188491E018070475A
:100FA0000000002030B4354882B00168012421439C
:100FB00001604168324A114041600168314A114084
:100FC00001600168A2049143016041683F2212045C
:100FD00091434160C16A09090901C162016BFF22A5
:100FE000543291430163416BA14341630023836009
:100FF000019300930168220411430160520005250A
:101000002D030168114000910199491C019100993B
:10101000002902D10199A942F3D10168890329D598
:10102000194A112100941160416841604168416092
:1010300041687F22D203914341604168112212042A
:1010400011434160016801221206114301600168E9
:101050008901FCD541688908890041604168022204
:101060001143416041680907890F0229FAD102B092
:1010700030BC7047009302B030BC70470010024093
:101080000CB8FF08FFFFF6FE0020024000290168AF
:1010900002D00122114301E0490849000160704774
:1010A00030B5044600688BB00D4640084000206013
:1010B0006068032109038843A968014361602068CF
:1010C0001C49EA680840696811432A6902431143D0
:1010D0002160A06803210902884369690143A16076
:1010E0006846FFF7D7FD1448844201D106980AE00C
:1010F0001248844201D1079805E01148844201D189
:10110000089800E0029821680904296800D5400089
:10111000FFF7CFF92A6852088A4200D8401C21689C
:10112000090404D50107074A490F10400843A0816C
:101130000BB030BDF3E9FFFF003801400044004030
:1011400000480040F0FF0000C905C90D0185704747
:1011500030B5012189B08803FFF782FD01214804E1
:10116000FFF766FD032040020690022168460177E2
:1011700003214177002484770121C1770925ED06F9
:1011800006A92846FFF72CFC012209212846FFF773
:1011900060FC01220A212846FFF75BFCE120059450
:1011A000400200900394029401940C20054C04909A
:1011B00069462046FFF774FF01212046FFF766FFCE
:1011C00009B030BD003801400A7802704B78437096
:1011D0008A788270CA78C2700B7903714A79427139
:1011E0008A798271CB79C371704730380A2801D26D
:1011F000012070470020704782B0FFF73FFCFFF7E7
:10120000A7FFFFF7C1FBFFF7BFFBFFF765FBFFF78A
:1012100099FE4B487D21C9000068FFF74AF949490A
:10122000401E88420CD84849486148480722C36993
:101230001B021B0A4C042343C361002088610A611E
:10124000092243494348FFF7F3F80C224249434837
:10125000FFF7EEF80A2242494248FFF7E9F80A226E
:1012600041494248FFF7E4F8092241494148FFF764
:10127000DFF841484149FFF7A7FF092240494148AB
:10128000FFF7D6F80120FFF719FB3F4C012103229D
:1012900009042046FFF7BDFA2046FFF709FB3B4D46
:1012A0006E4667046846FFF73FFC01213846FFF7AA
:1012B000E3FB3548FFF7FCFA0024315D2846FFF7D1
:1012C00043FF0A20FFF784FB641C082CF5DB0D218B
:1012D0002846FFF739FF01213846FFF7CBFBC8202E
:1012E000FFF776FBFFF7F6FB0A21FFF7F0F80C4655
:1012F000303081B22846FFF727FF0A20FFF768FB4E
:101300002146303189B22846FFF71EFF0A20FFF739
:101310005FFBB0212846FFF717FF0A20FFF758FBB5
:1013200043212846FFF710FF0A20FFF751FB0D214C
:101330002846FFF709FF7D200001FFF749FBB1E7D1
:1013400014000020FFFFFF0000E000E004ED00E0DB
:10135000A40B0008BA000020B40B0008AA0000206B
:10136000C80B0008E2000020D80B0008D2000020C3
:10137000E80B0008CA00002002010020FC0B000856
:10138000080C0008F2000020002401400038014051
:10139000040000080000000000000002000100003E
:1013A00010000000C4130008000000202800000006
:1013B000F8000008EC130008280000205007000087
:1013C00014010008000000000000010203040102F3
:1013D0000304060708090000006CDC02000000009E
:0C13E000000000000102030406070809D9
:04000005080001A14D
:00000001FF
