:020000040800F2
:1000000088060020590100087F01000881010008CE
:1000100000000000000000000000000000000000E0
:100020000000000000000000000000008301000844
:10003000000000000000000085010008BD06000867
:1000400089010008000000008901000889010008FA
:100050008901000889010008890100088901000858
:1000600000000000890100088901000889010008DA
:1000700089010008890100088901000800000000CA
:10008000890100080000000000000000890100084C
:100090008901000889010008890100088901000818
:1000A0008901000889010008890100088901000808
:1000B0008901000800F002F800F03EF80CA030C8FA
:1000C000083824182D18A246671EAB4654465D46D4
:1000D000AC4201D100F030F87E460F3E0FCCB64660
:1000E0000126334200D0FB1AA246AB4633431847E1
:1000F00090080000B0080000103A02D378C878C118
:10010000FAD8520701D330C830C101D504680C6059
:10011000704700000023002400250026103A01D378
:1001200078C1FBD8520700D330C100D50B607047AF
:100130001FB51FBD10B510BD00F03FF91146FFF708
:10014000F7FF00F0D7FB00F057F903B4FFF7F2FF19
:1001500003BC00F05BF900000F4880F308880F48EB
:100160000168090E0E4A914205D10E480E49016000
:100170000E480F4901600F4880470F480047FEE7CF
:10018000FEE7FEE7FEE7FEE7FEE700000B480C494E
:100190000C4A0D4B70470000880600200400000048
:1001A0001F00000018100240010000000000014084
:1001B00000000000D1060008B500000888000020FB
:1001C00088060020880200208802002000220309FF
:1001D0008B4273D3030A8B4258D3030B8B423CD31D
:1001E000030C8B4221D312E003460B437FD4002241
:1001F00043088B4274D303098B425FD3030A8B42BB
:1002000044D3030B8B4228D3030C8B420DD3FF2224
:10021000090212BA030C8B4202D31212090265D0F2
:10022000030B8B4219D300E0090AC30B8B4201D3A5
:10023000CB03C01A5241830B8B4201D38B03C01AEC
:100240005241430B8B4201D34B03C01A5241030B63
:100250008B4201D30B03C01A5241C30A8B4201D314
:10026000CB02C01A5241830A8B4201D38B02C01ABF
:100270005241430A8B4201D34B02C01A5241030A36
:100280008B4201D30B02C01A5241CDD2C3098B421B
:1002900001D3CB01C01A524183098B4201D38B0198
:1002A000C01A524143098B4201D34B01C01A52413B
:1002B00003098B4201D30B01C01A5241C3088B4280
:1002C00001D3CB00C01A524183088B4201D38B006B
:1002D000C01A524143088B4201D34B00C01A52410D
:1002E000411A00D201465241104670475DE0CA0FE4
:1002F00000D04942031000D34042534000229C46A4
:1003000003098B422DD3030A8B4212D3FC228901AD
:1003100012BA030A8B420CD3890192118B4208D383
:10032000890192118B4204D389013AD0921100E0E5
:100330008909C3098B4201D3CB01C01A52418309F9
:100340008B4201D38B01C01A524143098B4201D326
:100350004B01C01A524103098B4201D30B01C01A51
:100360005241C3088B4201D3CB00C01A52418308CB
:100370008B4201D38B00C01A5241D9D243088B4221
:1003800001D34B00C01A5241411A00D201466346C4
:1003900052415B10104601D34042002B00D5494228
:1003A000704763465B1000D3404201B50020C04651
:1003B000C04602BD704770477047754600F022F88E
:1003C000AE46050069465346C008C000854618B0D1
:1003D00020B5FFF7DBFE60BC00274908B6460026C3
:1003E000C0C5C0C5C0C5C0C5C0C5C0C5C0C5C0C5E5
:1003F000403D49008D4670470446C046C0462046F1
:10040000FFF7A3FE0048704728000020014918208C
:10041000ABBEFEE7260002007047F0B400220127C1
:100420003B460C6893401C409C422AD10C79012C1D
:1004300001D0022C12D1866855000324AC40A6439B
:1004400086604C79AC4085682C43846084889C43EA
:10045000848084888B7993401C4384800568540091
:100460000323A3409D4305600D790668A5403543ED
:100470000560C5689D43C560CB79A340C46823432C
:10048000C360521C102ACBD3F0BC70474B07DB0E65
:100490009A40C90810B489000818016A0F249C40CA
:1004A000A1430162016A1143016210BC70470185DA
:1004B0007047816170470000F0B5012183B04804A6
:1004C00000F026F80121880400F022F80E48009080
:1004D00001246846047100258571032646710227B0
:1004E000C77109206946C006FFF797FFF02000900A
:1004F0006846047185714671C77169460348FFF704
:100500008CFF03B0F0BD0000FFC0000000040048F5
:10051000044A0029516901D0014300E0814351613F
:100520007047000000100240044A0029916901D080
:10053000014300E0814391617047000000100240D8
:10054000F8B5564D0446686800210C22544E104000
:1005500005D0042803D0082803D00C281AD0266020
:100560001AE06968686803228902D2030F0F1040FD
:10057000BF1C00280AD0E86A0107090F3046491C51
:10058000FFF724FE78430146216005E045483946DF
:100590004143F9E7444820606868444F0006000F73
:1005A0003B5C20680246DA4062606B685B055B0F6B
:1005B000FB5CDA40A2602B6BDB0502D43C4BE360B2
:1005C00006E06B685B0401D4530800E09308E36025
:1005D0002B6B5F06374B02D4374F276100E0236156
:1005E0002F6BFF0601D4666100E060612F6BBF07CF
:1005F0000ED02F6BBF07BF0F012F0BD02F6BBF0784
:10060000BF0F022F08D02F6BFF43BF0706D006E0B5
:10061000A26104E0A06102E0A36100E0A6612F6B8B
:10062000BF03BF0F0FD02F6BBF03BF0F012F0CD025
:100630002F6BBF03BF0F022F09D02F6BBF03BF0F5C
:10064000032F06D006E0E26104E0E06102E0E3612E
:1006500000E0E6612F6B3F03BF0F0FD02A6B120340
:10066000920F012A0CD0286B0003800F022809D0BA
:10067000286B0003800F032806D006E0226204E006
:10068000206202E0236200E02662286B000602D4AA
:1006900005486062F8BD6162F8BD000000100240CC
:1006A00000127A0000093D00006CDC02020000200C
:1006B000809FD50000800000128000000349088858
:1006C000002801D0401E0880704700000000002074
:1006D00030B4354882B0016801242143016041688B
:1006E000324A114041600168314A1140016001689D
:1006F000A2049143016041683F221204914341608A
:10070000C16A09090901C162016BFF225432914398
:100710000163416BA1434163002383600193009314
:100720000168220411430160520005252D03016870
:10073000114000910199491C01910099002902D1B1
:100740000199A942F3D10168890329D5194A1121D8
:1007500000941160416841604168416041687F22B6
:10076000D203914341604168112212041143416058
:100770000168012212061143016001688901FCD55C
:100780004168890889004160416802221143416043
:1007900041680907890F0229FAD102B030BC7047BD
:1007A000009302B030BC7047001002400CB8FF0844
:1007B000FFFFF6FE002002400029016802D001225E
:1007C000114301E0490849000160704730B5044613
:1007D00000688BB00D46400840002060606803212F
:1007E00009038843A9680143616020681C49EA68DD
:1007F0000840696811432A69024311432160A068D7
:1008000003210902884369690143A1606846FFF733
:1008100097FE1448844201D106980AE012488442A7
:1008200001D1079805E01148844201D1089800E001
:10083000029821680904296800D54000FFF7C6FC2A
:100840002A6852088A4200D8401C2168090404D54D
:100850000107074A490F10400843A0810BB030BD83
:10086000F3E9FFFF00380140004400400048004029
:10087000F0FF0000C905C90D0185704730B50121A1
:1008800089B08803FFF750FE01214804FFF740FEBE
:100890000320400206900221684601770321417738
:1008A000002484770121C1770925ED0606A9284691
:1008B000FFF7B3FD012209212846FFF7E7FD0122DA
:1008C0000A212846FFF7E2FDE1200594400200904E
:1008D0000394029401940C20054C04906946204630
:1008E000FFF774FF01212046FFF766FF09B030BD16
:1008F000003801401C487D21C9000068FFF766FCF4
:100900001A49401E88420CD81949486119480722E3
:10091000C3691B021B0A4C042343C3610020886186
:100920000A61FFF7C9FDFFF7A9FF0925124C134E15
:10093000ED0601212846FFF7BCFD0220401CA04225
:10094000FCDBAA213046FFF795FF01212846FFF77F
:10095000AEFD21460220401C8842FCDB552130467A
:10096000FFF788FFE5E7000014000020FFFFFF000D
:1009700000E000E004ED00E040420F0000380140DC
:10098000A00900080000002028000000F80000086E
:10099000C8090008280000206006000014010008B3
:1009A0000000000000000102030401020304060726
:1009B00008090000006CDC020000000000000000DC
:0809C000010203040607080907
:040000050800015995
:00000001FF
