:020000040800F2
:10000000D0050020C50000084D1F0008C5180008D5
:1000100000000000000000000000000000000000E0
:10002000000000000000000000000000CB200008DD
:100030000000000000000000C9200008CD200008DA
:10004000D700000800000000D7000008D700000813
:10005000D7000008D7000008D7000008D700000824
:1000600000000000D700000881060008D700000843
:10007000D7000008D7000008D700000800000000E3
:10008000D70000080000000000000000D7000008B2
:1000900000000000D7000008D7000008C9180008B9
:1000A00000000000D700000800000000D700000892
:1000B0000348854600F032FA00480047E92E000860
:1000C000D00500200448804704480047FEE7FEE7CB
:1000D000FEE7FEE7FEE7FEE755210008B100000855
:1000E00030B50B46014600202022012409E00D46D0
:1000F000D5409D4205D31D469540491B2546954058
:1001000040191546521E002DF1DC30BD10B5202AD5
:1001100004DB0846203AD040002110BD0B46D340F6
:10012000D0402024A21A91400843194610BDF0B5D2
:100130001FB40646002082B005464024019100907D
:100140001BE0019922460F463046FFF7DFFF049A75
:10015000059B801A994110D310461946224600F09B
:10016000EFF9361A8F410197224601200021009FA6
:1001700000F0E6F938184D4100902046641E002832
:10018000DFDC019B00982946324607B0F0BD000035
:10019000F0B507460846584087B0C00F04904800A5
:1001A0000E46590040084908BC1A884105D2384615
:1001B00031461E4617460B4602465800400810437B
:1001C0004CD0300D039040055900400D490D05906D
:1001D000401A0290402872DA18030121000B090529
:1001E0000843019004980092002805D001995242DA
:1001F0000020884100920190029840210A1A01993A
:10020000009800F09DF905460C466B4607CB00F0C0
:10021000A7F9C0197141039A0E0D0023D717564054
:100220001A467A40164344D0049A002A2DD0029AE6
:10023000012A039A15DC1205C01A914101263605E0
:10024000001C7141D20F059ED207009301920296C5
:100250002A46234600F0A4F907B0F0BD38463146DF
:10026000FAE71605224A0F46B218C01AB741012113
:100270000905001C4F4100187F41114618187941AB
:10028000E20F10436D19644113E0E2076D08154356
:100290006408C2071443039A01261205C01A91414B
:1002A0003605001C7141CE07400830434908C0188C
:1002B00051412A46234600F066F9CDE7FFE704984E
:1002C00001224000C117121A00238B4104983146C5
:1002D000C417381AA141EEE730B40124E4076340A3
:1002E00030BC55E730B40124E407614030BC4FE72F
:1002F0000000E0FFF0B51FB488B00B990998002406
:1003000048400999C00F490049080991C0070B9955
:100310000090490049080B9109990898A64608439E
:100320001CD00B990A98084318D009980124400062
:10033000420D4800410D099824050003000B20439D
:1003400009900B980003000B20430B9050181C4998
:100350004018002201901446104605E00020014696
:100360000DB0F0BD032801DA034600E003239C46EC
:10037000C11A0AAE0AE05F0008ADED5B4F00F75B03
:100380007D430027AA187C41491C5B1E6145F2DDB4
:10039000410004AB5A522104120C0A43240C401CA5
:1003A0000828DFDB019802900099704601910090C7
:1003B000059B049A0799069800F0F2F8D0E7000030
:1003C0000DFCFFFFF0B50C465C4085B0E40FE40780
:1003D00003944C00002664085900944649080246DC
:1003E0000296224321D062460A431ED06200570D76
:1003F0004A000E032303550D012402462C4924050F
:10040000781B1B0B360B4018234326436146009094
:100410001C46501AB44103D30098401C009002E0DF
:10042000921800985B41002803DA0020014605B0CD
:10043000F0BD0020012109050746864611E064460B
:100440001D46141BB54106D36546521BB341744685
:1004500007430C43A646CD07400849082843921895
:100460005B4105460D43EAD11046184313D0604660
:10047000194650407140084306D06046101AB341F7
:1004800006D20122002306E000220123DB0702E05E
:100490000122D2435310009874460105381C614173
:1004A000029C039D0019694100F06DF8BFE7000050
:1004B000FD0300004A0009030123090B1B05194332
:1004C0000A4B10B5520D9A4202DA0020014610BDC7
:1004D000064B34339A4203DC9A1AFFF717FE10BD1D
:1004E000034BD21800F02CF810BD0000FF030000F1
:1004F000CDFBFFFF10B5002904DB0124E4074042D7
:100500008C412146002B04DB1C460123DB075242B1
:10051000A341994200D1904210BD0000064C012534
:10052000064E05E0E36807CC2B430C3C984710349B
:10053000B442F7D3FFF7C0FDD8300008F830000808
:1005400010B5202A04DB0146203A9140002010BD5E
:10055000914020239C1A0346E3401943904010BD6C
:1005600010B5202A06DBCB170846203A1041C117E8
:100570000B4306E00B461341D0402024A21A9140C1
:100580000843194610BD10B5002B08DA0024401CA2
:10059000614192185B411A4301D14008400010BDEF
:1005A000F0B51FB482B005460C0003D0084602F037
:1005B00021F802E002F01EF82030024600902146A9
:1005C0002846FFF7BDFF049B059A04460F461843D3
:1005D0001143084314D0184610431BD00098402103
:1005E0000A1A18460599FFF791FD05460E46009A2E
:1005F00005990498FFF7A4FF084305D0012004E003
:100600002046394607B0F0BD0020C11705430E4310
:100610002C43374300990E986305401A7905E40A84
:1006200000220C43FD0A0A3002D500200146E9E70A
:100630000105101969410C9C0D9D00196941FFF7D6
:10064000A2FFDFE7F7B509260024F6060546471E98
:1006500013E001221102304600F0DEFA019800F0AA
:100660002CFAFF2100220131304600F0D5FABC42BD
:1006700002D2029800F021FA641CAC42E9D3FEBD1C
:1006800010B5034800F0DAF8024800F0D7F810BDC2
:10069000940100205801002010B50468636043688D
:1006A000102B036803D099600068C26010BD9A6087
:1006B0000068C16010BD000001490120087070474A
:1006C0001000002070B500221346174C26E0CD5CC8
:1006D0002E2D16D1002A14D000280ED00325AD18D7
:1006E0002D19203DED7F80263543002807D00326B5
:1006F000B6183619203EF5770BE00025EFE7002607
:10070000F6E70A4E0028AD5D0CD00326B618A555B5
:10071000521C5B1C062B04D2032A02D28D5C002DD6
:10072000D5D170BD0026F1E712000020403000084E
:10073000F8B5204D204E68784100820028460C30E4
:100740008058715A002200F067FA00F06BFA4007F7
:10075000400F00242F4668702C372878002820D0BE
:1007600014486978801C405C0121A140084201D0F6
:10077000012200E00022104861001030415AA00020
:10078000385800F049FA641C082CE6D36878410018
:1007900082000848715A0C308058012200F03CFA5F
:1007A000F8BD054861001030415AA00038580022B9
:1007B000E7E700001000002040300008FEE70000DE
:1007C00070B50024014620314A78022A03D0042162
:1007D000816301242EE0026813680E25AB43136089
:1007E000026813685B085B001360134B02689A424F
:1007F00001D1012213E0104B14339A4201D110228F
:100800000DE00D4B28339A4201D1921507E00A4BB7
:100810003C339A4201D1921401E001221204064BAA
:10082000083B5A6001224A7000220A70416B00297D
:1008300000D08847204670BD08000240F8B5044645
:1008400074480168734A734E724F08322068D3149B
:100850001C363037904201D1082210E0B04201D15D
:1008600080220CE0B84201D11A4608E0694A4432BD
:10087000904202D10122D20301E00122D204254696
:100880001140203500292ED00168C94309072AD418
:1008900001680822914301605E492068083188425E
:1008A00001D1082010E0B04201D180200CE0B84214
:1008B00001D1184608E057494431884202D101204D
:1008C000C00301E00120C00452494860A06B01212F
:1008D0000843A0630420687000202870216B002961
:1008E00001D0204688474B4802684A4920680831B1
:1008F0000B15884201D1042110E0B04201D1402102
:100900000CE0B84201D1194608E04249443188421E
:1009100002D10121890301E0012189040A422BD07F
:100920000168C943490727D40168890603D40268CE
:1009300004218A430260374920680831884201D186
:10094000042010E0B04201D140200CE0B84201D1B7
:10095000184608E02F494431884202D10120800323
:1009600001E0012080042B49486011206870E16A91
:10097000002901D02046884726480268254920687A
:100980000831884201D1022311E0B04201D1202375
:100990000DE0B84202D101235B0208E01D4B443355
:1009A000984202D101235B0301E001235B041A4258
:1009B0002ED00268D24392072AD40268920603D44A
:1009C000026802239A4302602068884201D1022013
:1009D00011E0B04201D120200DE0B84202D1012047
:1009E000400208E00B494431884202D10120400313
:1009F00001E00120400407494860A06BA06301208A
:100A0000687000202870A16A002901D0204688471C
:100A1000F8BD000000000240F0B5002806D00146F5
:100A200020314A780024002A02D002E00120F0BDE3
:100A30000C7002224A7005682B680B4A86681340C6
:100A4000426807693243C6683E43324346693243CF
:100A500086693243C66932431A432A60846301209F
:100A600048700020F0BD00000FC0FFFFF8B504463D
:100A700020300578012D1ED0012505700226467014
:100A800020680768AF4307602046FFF705FE20682F
:100A9000016831430160206801680422114301604C
:100AA0002068016808221143016020680168294319
:100AB00001600020F8BD0220F8BD31B500F0B2F8A9
:100AC000044600F0AFF80099001B8842F9D338BD06
:100AD000F8B500238DE001249C40A44622407DD03F
:100AE0004C68022C01D0122C0CD1DC08A400271871
:100AF0003C6A5D07ED0E0F26AE40B4430E69AE4072
:100B000026433E6205685E000324B4400F79A54386
:100B1000BF07BF0FB7402F4307604D68012D05D0B9
:100B2000022D03D0112D01D0122D0ED18568CF6872
:100B3000A543B7402F43876047686546AF430D79AB
:100B4000ED06ED0F9D403D434560C568A5438C68AB
:100B5000B4402C43C4604C68E40049D5284CA569D6
:100B600001263543A561A4699D0834400094254CB5
:100B7000AD002F19BC689D072E0F0F25B540AC4363
:100B80000925ED06A84201D100250FE01E4DA8421F
:100B900001D101250AE01D4DA84201D1022505E041
:100BA0001B4DA84201D1032500E00525B540254392
:100BB000BD60184C25684E689543F60300D5154373
:100BC000256065684E689543B60300D5154365609A
:100BD000A5684E689543F60202D500E008E015438B
:100BE000A560E5684E689543B60200D51543E560FB
:100BF0005B1C0A681446DC4000D06CE7F8BD0000BE
:100C000000100240000001400004004800080048B5
:100C1000000C004800040140002A01D081617047A7
:100C200081627047014800687047000000000020A2
:100C300070B5024640325378202B1CD11378012B1B
:100C400019D00123137024245470046825689D432F
:100C50002560046825681E03B5432560046825687F
:100C60000D43256000680168194301602020507021
:100C70000020107070BD022070BD7047704770B5C5
:100C800003689A691968D40507D50C0605D5446C24
:100C900001252C4344642C02DC61530508D50B0666
:100CA00006D5436C082423434364E3010468E361ED
:100CB000920508D5090606D5416C0222114341640C
:100CC00011020268D161416C0B22114202D0416CC9
:100CD00000F09EFE70BD026891691268436B002BA4
:100CE00000D018477047704770B5040006D02546FD
:100CF000403568780026002802D005E0012070BD4C
:100D00002E70204600F046F82420687020680168A4
:100D10004908490001600F2160680906884321687D
:100D20000861206882680121C9038A438260A06843
:100D3000002807D0E268012A01D021218902084356
:100D400021688860E068022802D12168800248603A
:100D5000206841680D4A1143416061692069084378
:100D6000A169090208432168C860216AE069084353
:100D700021680860206801680122114301606664EF
:100D8000202068702663AE70002070BD00800002D5
:100D90007047000000B50068134987B0884220D131
:100DA00003204002009012200190012002900320B5
:100DB00003900420049009206946C006FFF788FECE
:100DC0000A48C269012149050A43C261C06900227B
:100DD000084005901146172000F05CF8172000F03D
:100DE0004FF807B000BD0000005400400010024062
:100DF0007047704702480168491C01607047000055
:100E00000000002010B5064801681022114301605F
:100E1000002000F007F800F017F8002010BD0000D7
:100E20000020024010B5044600F042F97D21C900BF
:100E3000FFF756F900F048FB00222146501E00F053
:100E400029F8002010BD000008B50C488169012276
:100E50001143816180691040002200901146501FAB
:100E600000F018F800221146901E00F013F800223E
:100E70001146501E00F00EF808BD000000100240A0
:100E8000C106C90E01208840014908607047000072
:100E900000E100E010B501F05BF810BDF8B50546C3
:100EA0000068354CC00352D5E0690026C00007D465
:100EB000E16920040143E161E169014001260091FB
:100EC0002E480168C90510D40168821511430160DC
:100ED000FFF7A8FE074604E0FFF7A4FEC01B642846
:100EE00024D826480068C005F6D5206A03273F02AB
:100EF000384020D06968394081421CD0206A226A7B
:100F0000B843012109040A432262226A8A43226209
:100F10002062C0070FD0FFF785FE009008E0FFF7C2
:100F200081FE0099411A1648814201D90320F8BD7B
:100F3000206A8007F3D5206A6968B84308432062B5
:100F4000002E04D0E169012000078143E161287887
:100F5000C00705D0206BA968800880000843206383
:100F60002878800605D5206B10218843E96808435E
:100F700020630020F8BD0000001002400070004017
:100F800088130000F8B5054644480E460068C007BF
:100F9000C00FB0420AD241480168490849003143B4
:100FA00001600068C007C00FB0425CD128783C4C9B
:100FB000800705D56068F0218843A9680843606010
:100FC0002878C0073FD06868012813D0216802281C
:100FD00013D08907002946DA61688908890001432E
:100FE0006160FFF71FFE6968074601290DD00229DD
:100FF00017D024E021688903ECE78901EAE7FFF7CD
:1010000011FEC11B2748814217D860680007800F76
:101010000128F4D117E0FFF705FEC11B21488142EA
:101020000BD860680007800F0228F4D10BE0FFF7AF
:10103000F9FDC11B1B48814201D90320F8BD60683E
:101040000007800FF3D115480168C907C90FB142E5
:101050000BD9016849084900314301600068C007A5
:10106000C00FB04201D00120F8BD2878400706D556
:101070006068072109028843E9680843606000F05E
:101080002DF86168084A0906090F515CC8400749F4
:1010900008600020FFF7C6FE0020F8BD00200240D7
:1010A0000010024088130000C03000085C000020DF
:1010B00001480068704700005C00002004480549B2
:1010C00000684968044A4905490F515CC8407047A7
:1010D0005C00002000100240D030000810B512A3C0
:1010E0000FCB88B06C460FC413A30FCB0FC41649A7
:1010F0004A680C20134603401448042B0FD0082BD9
:101100000DD193021B0F6C46E45CC96A04AB09075E
:10111000090F595CD20304D5FEF7E2FF604308B023
:1011200010BD0B486043FAE70203040506070809EF
:101130000A0B0C0D0E0F1010010203040506070820
:10114000090A0B0C0D0E0F100010024000127A005D
:1011500000093D00FEB504460078D04DC00747D0D9
:1011600068680007800F012807D068680007800FB3
:10117000022809D16868C00306D52868800337D5DE
:10118000606800287ED033E0012062680004012AF4
:1011900011D08100002A01D0052A10D02A6882438C
:1011A0002A602868884328606068002814D0FFF708
:1011B00039FD06460CE0296801432960F4E72A68F6
:1011C0000A432A60F7E7FFF72DFD801B64286FD8DC
:1011D00028688003F7D50BE0FFF724FD064604E0FE
:1011E000FFF720FD801B6428F1D828688003F7D41E
:1011F00020780126800700283BDA68680007800F06
:1012000007D068680007800F022809D16868C0030A
:1012100006D42868800715D5E068012832D111E08E
:10122000E0680028286815D030432860FFF7FAFCF2
:10123000074604E0FFF7F6FCC01B0228C7D8286861
:101240008007F7D52868F82188432169C900084339
:1012500028600EE0400840002860FFF7E3FC0746E6
:1012600004E0FFF7DFFCC01B0228B0D82868800725
:10127000F7D42078000724D5E0690028686A10D0E8
:10128000304300E008E16862FFF7CCFC074604E069
:10129000FFF7C8FCC01B022899D8686A8007F7D5F9
:1012A0000FE0400840006862FFF7BCFC074605E01D
:1012B0009DE0FFF7B7FCC01B022888D8686A80074A
:1012C000F7D4207804274007002860DA0020019036
:1012D000E869C00008D4E969B8060143E961E96931
:1012E00001400120009101906D480168C90511D4A9
:1012F0000168821511430160FFF794FC009005E03E
:10130000FFF790FC0099401A642870D86448006880
:10131000C005F5D5A06801280AD0002801D005280D
:1013200010D0286A400840002862286AB84301E0CB
:10133000286A30432862A068002812D0FFF772FCA8
:1013400000900AE0286A38432862F1E7FFF76AFC58
:101350000099411A5348814249D8286A8007F5D537
:101360000DE0FFF75FFC009006E0FFF75BFC0099E3
:10137000411A4C4881423AD8286A8007F5D401982E
:10138000002804D0E969012000078143E961207841
:10139000C00635D5606901280CD0401D686B23D08C
:1013A00038436863686B400840006863FFF73AFCA5
:1013B000064622E0686B38436863686B30436863B5
:1013C000FFF730FC064604E0FFF72CFC801B0228E8
:1013D0005BD8686B8007F7D5686BF8218843A169F3
:1013E000C900084368630BE0B8436863F4E74CE066
:1013F000FFF718FC801B022847D8686B8007F7D4DA
:10140000206A002846D069680907890F022943D05D
:10141000012636060228286805D0B0432860FFF769
:1014200001FC044633E0B0432860FFF7FBFB0746AE
:1014300004E0FFF7F7FBC01B022826D828688001CC
:10144000F7D4E86AE16A000900010843E862616ACA
:10145000A06A084369683D2212049143084368600A
:10146000286830432860FFF7DDFB044604E0FFF7FF
:10147000D9FB001B022808D828688001F7D509E0AD
:10148000FFF7D0FB001B022801D90320FEBD28680E
:101490008001F5D40020FEBD0120FEBD00100240F9
:1014A00000700040881300000422044904280869E1
:1014B00002D09043086170471043FBE700E000E072
:1014C00010B5FFF735F910BD094910B5401E884227
:1014D00001D9012010BD074C60610321081F00F0F5
:1014E00037FD0020A06107202061002010BD000012
:1014F000FFFFFF0000E000E010B5FFF7E1FF10BDC7
:1015000070B502462032137E012B1BD001231376C7
:1015100002245476046865687026B54365600468E3
:1015200065680E68354365600468A5688026B54324
:10153000A5600068846849680C4384605376002085
:10154000107670BD022070BD70B5040005D0254630
:101550002035687E002802D006E0012070BD002002
:101560002876204600F00AF802206876211D2068BF
:1015700000F01EFE01206876002070BD08B50068EE
:101580000549884207D105488269C1140A4382612E
:1015900080690840009008BD002C01400010024006
:1015A000F8B5054604462035287E012817D00127C6
:1015B0002F7602206876226890687726FF23B04352
:1015C0001B02984390600868502837D00EDC202812
:1015D00057D006DC00284ED0102840D14EE0022023
:1015E000F8BD302850D0402839D13CE060282DD0BB
:1015F000702817D001221203801A0ED090422ED1EB
:10160000CB684A688968206800F00CFE2068816811
:10161000012292031143816021E020688168C9089A
:10162000C900F8E7CB684A688968206800F0FAFDCD
:1016300021688868B0433043886010E0CA68496810
:10164000206800F002FE5021206806E0CA68496860
:10165000206800F00BFE6021206800F0EEFD6F7640
:1016600000202876F8BDCA684968206800F0EDFDC2
:1016700040212068F1E700212068EEE71021206872
:10168000EBE720212068E8E730212068E5E7704794
:1016900070B5040005D025466035687A002802D070
:1016A00006E0012070BD00202872204600F026F8D8
:1016B00024206872206801684908490001602046BA
:1016C00000F09EFE0128EDD0606A002802D020467E
:1016D00000F0DFFD206841680122D20291434160A1
:1016E0002068816808229143816020680168012296
:1016F00011430160204600F031FE70BDF0B5064692
:101700000068234987B0884240D12248826901217C
:1017100089030A43826180690840059003208003A1
:101720000090122001900121032003900291049166
:1017300009206946C006FFF7CBF91748174D00246A
:1017400011C52C60AC60EC6080272C616F606C610F
:101750001248083DFFF760F9002801D0FFF72EF886
:1017600075666E620C480E4D143828601020291DD5
:1017700091C12C616C61AC612846EC61FFF74CF9BA
:10178000002801D0FFF71AF835666E6207B0F0BD89
:101790000038014000100240300002405801002093
:1017A00094010020F8B5054604466035A87A202843
:1017B00034D100290BD0002A09D00123A0681B03D3
:1017C000984206D12069002803D1C80701D0012022
:1017D000F8BD287A012821D001202872582061659F
:1017E00002530026E6662220A872636E0C489862B7
:1017F000636E0C48D862636E0B4818631346276803
:101800000A4639462431606EFFF730F92068816856
:101810004022114381602E720020F8BD0220F8BDE5
:1018200093230008BD2300086F230008704770470A
:10183000F8B5054604466035687A202838D1002975
:101840000BD0002A09D00123A0681B03984206D1BF
:101850002069002803D1C80701D00120F8BD287AEB
:10186000012825D00120287220464030E164028200
:1018700042820026E66621206872236E0D48986237
:10188000236E0D48D862236E0C48186327681346F0
:101890003A462832206EFFF7E9F8216840200862B6
:1018A000206881688022114381602E720020F8BD7B
:1018B0000220F8BDC7230008F72300086F230008A3
:1018C00070477047FEE7000010B506480068806961
:1018D0004005400F034802D0FFF7D1F910BDFFF7D4
:1018E000FAF910BD6000002010B5406A01684A682E
:1018F0000123DB031A434A60826B00215163C26BF0
:101900005163014640314A78602A02D0FFF7EBF973
:1019100010BD20224A70FFF7B0F910BDF0B50346A4
:101920000022CE0740332824B025002E05D05E7853
:1019300042222746B74300D0F2228E0705D544261F
:101940005B7832439C4300D02A434B0701D5B82330
:101950001A4311238B4301D190231A4312238B4343
:1019600001D160210A4300680168914301600020B1
:10197000F0BD01688A69D243920701D400228A62CD
:1019800000688169C943C90703D0816901221143F5
:1019900081617047F8B505460446403568782821CE
:1019A0008143206804D00821C16100202870F8BD5F
:1019B0008169C903CF0F8169FE230E0C81681E4027
:1019C0008A05C168920D19408C46E168022912D13E
:1019D0000621D3090E400B409E420BD1A16C491C3D
:1019E000A164A16C0229E2D10021A1640823C36192
:1019F000297007E0664604212046FFF78FFF00208C
:101A00002870324639462046FFF738F9F8BD000005
:101A1000F8B50026054640350446AE702C48E06215
:101A20006685606C0843606468782027282823D086
:101A30006878292820D068782A281DD007212046D8
:101A4000FFF76CFF6878602800D06F7026636663CC
:101A5000206801684A041F49026817D501239B03C7
:101A60009A430260A06B41632E70A06BFEF7A8FE44
:101A700000281DD0A06B19E003212046FFF74EFF80
:101A800028206870266314486063E1E7120410D5CB
:101A900002680123DB039A430260E06B41632E700E
:101AA000E06BFEF78DFE002802D0E06B416B8847AB
:101AB000F8BD6878602804D02E702046FFF713F92F
:101AC000F8BD6F702E702046FFF7D7F8F8BD000004
:101AD0000000FFFFE9180008711C000870B50446FB
:101AE0001548E06200252563202220464030064646
:101AF000427085706563480711D52068416A606A45
:101B0000421C62620170208D002808D0401E208592
:101B1000608D401E6085606C04210843606407216D
:101B20002046FFF7FBFE21681020C8613570204673
:101B3000FFF72EF970BD00000000FFFFF8B5044666
:101B4000006820260F46C66121680820C861072169
:101B50002046FFF7E3FE20684168B202114341606E
:101B6000206841682D4A114041602046FFF701FF7F
:101B700020680168254649044035002902DB0168D8
:101B8000090406D5697821292FD0E16B09684968D5
:101B90006185628D0421002A02D0626C0A4362646E
:101BA0007A070FD5426A606A431C63620270208D17
:101BB000002807D0401E2085608D401E6085606C27
:101BC0000843606400202063A8706063616C002992
:101BD0000DD0616C2046FFF71BFF6878282803D1E1
:101BE00039462046FFF77AFFF8BDA16BCEE7E26ADF
:101BF0000B498A4206D0E1626E7028702046FFF7DA
:101C0000C7F8F8BD69786E7022292870204602D086
:101C1000FFF7EFF8F8BDFFF7EBF8F8BD00E800FEBE
:101C20000000FFFF70B50026044640340546A6704C
:101C30006178282029290ED061782A290AD160707C
:101C40002220286302212846FFF768FE26702846D6
:101C5000FFF7CEF870BD607021202863012128466F
:101C6000FFF75CFE26702846FFF7C3F870BD000042
:101C7000F8B5054604464035287816460F46012833
:101C800011D0012028703F49F8062DD5F0062BD53C
:101C9000628D1020002A08D02168C861606C042180
:101CA0000843606462E00220F8BDE36A0122520644
:101CB000934202D0E36A934202D16A78282A08D07C
:101CC000E26A8A4202D06978292907D02168C8616E
:101CD0004CE039462046FFF701FF47E02168C86124
:101CE0002046FFF746FE3EE0780717D5700715D56A
:101CF000608D00280BD02068426A606A431C6362D2
:101D00000270208D401E2085608D401E6085608D94
:101D100000282BD1E06A884225D127E0380706D574
:101D2000300704D539462046FFF734FE1EE0B807D9
:101D30001CD5B0071AD5608D00280CD0606A411CF4
:101D40006162216800788862608D401E6085208D08
:101D5000401E20850AE0E06A01210906884202D07F
:101D6000E06A002802D12046FFF75CFFB80605D5DF
:101D7000B00603D539462046FFF7E0FE0020287064
:101D8000F8BD00000000FFFF70B501231A46824035
:101D90001546104A0029947912D016460125B479C7
:101DA00085402C43E5B2F47901290CD0022906D1F3
:101DB0009571032800D0042083401C43D47170BD6A
:101DC000AC43947170BD9571032800D0042083400A
:101DD0009C43F3E712000020F0B5244887B0426925
:101DE000012189050A43426142690A40059242691C
:101DF00049110A43426142690A4005924269490019
:101E00000A434261406909260840F606059000220F
:101E100017493046FEF700FF164F0022FB213846D7
:101E2000FEF7FAFE012211023046FEF7F5FE1248D7
:101E300000240125009002946946019503943046E0
:101E4000FEF746FEFB20009002946946019503943C
:101E50003846FEF73DFE0320C0026A4631C269469D
:101E60003046FEF735FE07B0F0BD0000001002401E
:101E7000FF20000000040048FF21000010B50E48BC
:101E80000C4901600D49416000218160016141619F
:101E900081610122C161C2600162FEF725FF002855
:101EA00000D0FEE700210448FEF7C2FE002800D063
:101EB000FEE710BD00540040600000200E09002025
:101EC00010B51249124886B0002412C00460446064
:101ED0008460C4600838FFF737FB002800D0FEE7B5
:101EE00001200003009069460948FFF759FB0028CC
:101EF00000D0FEE7049404A905480594FFF700FB11
:101F0000002800D0FEE706B010BD0000002C014004
:101F1000AC00002010B50C480A490160E1214902DB
:101F2000416000218160C16001618161C1610C2259
:101F3000016242614162FFF7ABFB002800D0FEE77F
:101F400010BD000000380140E8000020704700008C
:101F50008307FF22DB0E9A408907090E994000286B
:101F60000BDA0007000F0838830808489B00181890
:101F7000C36993430B43C3617047830804489B00C4
:101F80001B181868904308431860704700ED00E084
:101F900000E400E010B5E1214902416000F030FAB0
:101FA000012010BD1CB504464B20C00160602046D6
:101FB00000F026FAF0206946087001222046FFF75B
:101FC00037FC012201A92046FFF7ECFB0D49012057
:101FD00008702068C169C9434906FBD46423012203
:101FE0004021204600F096FAE12040026060204641
:101FF00000F006FA68460079F02801D001201CBDE7
:1020000003201CBD04000020FFB581B00B9F0C9D78
:102010001C461646012922D10198FFF7C3FF032869
:1020200020D01CE03078174900F02EF8641EE4B28E
:1020300008221449761C0198FFF7FAFB082211497F
:102040000198FFF7AFFB012264231146019800F0CD
:1020500061FA002D08D0FF2D01D06D1EEDB2002CCD
:10206000E0D1012005B0F0BD002FF6D0054800F00A
:102070001BF80A9908700A98401C7F1EFFB20A904C
:10208000EDE700000500002030B50022FF231446D4
:10209000C50701D00B7000E00C70521C4008D2B292
:1020A000491C082AF4D330BD0246002010B5014671
:1020B000802314784008FF2C00D11843491CC9B272
:1020C000521C0829F5D310BD7047704710B5FEF7B4
:1020D00091FEFFF711FA10BD30B595B001200390C5
:1020E0000024102009940225049005200095C004C6
:1020F0000A9008950B946846FFF72CF8002800D04A
:10210000FEE707200C900E9401210D950F940CA86A
:10211000FEF738FF002800D0FEE72120109012942F
:10212000139410A8FEF7BAFE002800D0FEE7FEF7D1
:10213000BFFF7D21C900FDF7D3FFFFF7C5F90420DC
:10214000FFF7B2F900221146501EFEF7A3FE15B0AC
:1021500030BD00001348016801221143016041684D
:10216000114A114041600168104A11400160016844
:10217000012292049143016041683F22120491437D
:102180004160C16A09090901C162016BFF22143271
:1021900091430163416B490849004163002181601B
:1021A00070470000001002400CB8FF08FFFFF6FE69
:1021B00070B50268164B174D984201D0A84204D161
:1021C000144670264A68B4432243134C134E984277
:1021D00008D0A84206D0124DA84203D0A04201D098
:1021E000B04204D103252D02AA43CD682A430260E0
:1021F0008A68C2620A688262984203D0A04201D013
:10220000B04201D1096901630121416170BD000043
:10221000002C0140000400400044014000480140FF
:102220000020004030B58468FF252D021B021343B7
:10223000AC430B432343836030BD826870239A43D1
:102240000A4307210A438260704730B5036A046A73
:102250006408640004628469F025AC4312012243DF
:102260000A24A3430B438261036230BD30B5036A85
:102270001024A34303628469036A0F252D0312030C
:10228000AC432243A024A3430901194382610162A4
:1022900030BD10B5818CC90707D001684A68012399
:1022A0005B049A43836A1A434A60818C890707D585
:1022B00001684A6801231B049A43C36A1A434A60AF
:1022C000818C490707D501684A6801239B049A431A
:1022D000036B1A434A60818C090707D501684A6875
:1022E0000123DB039A43436B1A434A60818CC9067E
:1022F00007D50268916801231B039943836B194337
:102300009160818C890607D501688A6801235B0387
:102310009A43C36B1A438A60818C490612D50368BD
:102320005A6801210905046C8A4322435A60026CF1
:102330008A4207D10268516803235B059943436CC5
:1023400019435160818C090607D501684A68012349
:10235000DB04806C9A4302434A6010BD0021C166D1
:10236000202260304272827201720846704710B5B6
:10237000406A0022014640314A834A8220222031AD
:102380004A728A72C16E10221143C166FFF77FF94B
:1023900010BD10B501460968406A096889060AD46B
:1023A00000225A210A5201688A6840239A438A60AF
:1023B00020226A210A54FFF739FA10BD10B5406A8D
:1023C000FFF735FA10BD10B501460968406A096883
:1023D00089060DD4002252210A5201688A6880239E
:1023E0009A438A600068016840221143016010BD71
:1023F000FFF766FA10BD10B5406AFFF762FA10BD2C
:10240000F8B504462369A268E6691A436369102196
:102410003343002026681A4333680546394F3B4052
:102420001343336023685A6803263603B243E668D1
:1024300032435A60236AA26926681A43B3680B279D
:102440003F02BB431343B3602F4A126B9207920FB4
:1024500006D0012A08D0022A08D0032A07D101E0B9
:10246000002104E0022102E0042100E00821012211
:10247000E369D203934224D100290CD002290DD064
:10248000042913D0082917D00125010909010007E3
:10249000400F084332E0FEF711FE09E061681B4A75
:1024A00048088018FDF71CFE80B2EEE7FEF716FE26
:1024B000616840004A08F4E7616801224808120494
:1024C000EFE7002908D0022909D004290BD00829F8
:1024D0000ED001252846F8BDFEF7F0FD05E0616845
:1024E0000B4A480806E0FEF7F9FD61684A0801E07A
:1024F000616848088018FDF7F3FD80B22168C86064
:10250000E8E70000F369FFFF001002400024F40038
:1025100000127A00F8B51E4615460F460446FEF72F
:1025200081FB294625466035009000291AD043E0FA
:10253000701C17D0002E05D0FEF774FB0099401ACE
:10254000B0420FD92068026880218A430260216866
:102550000A68202082430A6021680B68C200934306
:102560000B601EE02068C16938468843E0D128E04E
:10257000701C21D0002E05D0FEF754FB0099401AA4
:10258000B04219D920680168802291430160216816
:102590000A68202082430A6021680A68C3009A43BF
:1025A0000A6021688A68520852008A606872A872BC
:1025B000002028720320F8BD2068C169384688438E
:1025C000D6D00020F8BD00000FB41CB50A46521E3C
:1025D0000192009007A9064B6A46069800F0DCF8C5
:1025E000009A002111701CBC08BC04B01847000000
:1025F000D12E00082021020C01D010211046020A21
:1026000001D010460839020901D01046091F82087E
:1026100001D01046891E420801D0881E7047081A52
:10262000704702E008C8121F08C1002AFAD170479B
:102630007047002001E001C1121F002AFBD1704742
:10264000F0B51FB484B007980699020D014314D069
:102650004A484B491018484305140F9801280E9812
:102660001CD0281A401C0024464E47490094019172
:102670000290002814DA474227E00F98012443A370
:10268000012808D0002104980F9A84600360C2607A
:10269000416009B0F0BD0E98C143F4E74042E2E763
:1026A000074612E0F80707D0224633460199009802
:1026B000FDF720FE01910090224633461046194650
:1026C000FDF718FE04460E467F10002FEAD102984F
:1026D000019B0028009A0799069802DAFDF70AFE86
:1026E00001E0FDF76FFE04460E460022284BFDF781
:1026F00001FF03D80020C043014607E00022254B1C
:1027000020463146FDF744FDFDF7D4FE102409E0D4
:10271000002C0ADB0A220023FDF709FD059B30325D
:102720001A55641E02460A43F2D11122641C059B0D
:10273000121B1C190F9B012B03D0012308430ED140
:102740000AE0084304D011200E9000200F9084E787
:102750000E98151A6D1E0BE00E98824202DD0023C2
:102760006D1C03E0824201DA00236D1E002BEED0C7
:1027700004980F998260C16030C08AE701FCFFFFB6
:10278000104D0000000024400000F03F3000000029
:102790000000F0430000E03FFFB597B0064600257B
:1027A00018E2252877D100242746FD49049400E04B
:1027B0000443761C32780120203A90400842F7D139
:1027C00030782A280ED00222307801463039092983
:1027D00016D804990A235943303940181443761CFB
:1027E0000490F1E7189802C804911890002904DABF
:1027F0000120400304434842049002200443761C15
:1028000030782E2814D1042004437078761C2A28AE
:1028100009D11898761C80C8189009E00A214F4306
:10282000303FC719761C3078014630390929F5D96F
:1028300030786C2810D006DC4C281AD068280ED0CE
:102840006A2817D104E0742813D07A2812D110E036
:102850000120400504430CE00121090501E00321AA
:1028600009050C437178814203D101200005241829
:10287000761C761C3078119066280BD013DC582813
:102880007DD009DC00287BD04528F6D04628F4D03E
:1028900047281AD1A5E118E0632835D0642870D004
:1028A000652812D19DE170286CD008DC6728F1D032
:1028B00069287BD06E280DD06F2806D1BAE0732826
:1028C0002ED0752871D0782859D01A9A1999904726
:1028D0006D1C7EE16002400F022809D003280DD054
:1028E0000428189801680DD00D60001D189070E143
:1028F0001898EA1701680D604A60F6E718980168B1
:102900000D80F2E70D70F0E718986A4601781172B1
:10291000001D18900020507202A80090012005E0D0
:10292000189802C8189000200091C04361070DD587
:10293000002101E00199491C0191B94212DA81425A
:10294000F8DB009A515C0029F4D10BE0002101E092
:102950000199491C01918142FADB019A0099895C35
:102960000029F5D1019904981A9B471A2146384647
:10297000199A00F097FA0199401945180BE04FE0B9
:102980002CE113E04EE0009800990078491C00917A
:102990001A9A199990470198401E0190401CF2D153
:1029A000214638461A9B199A10E137E00A20002187
:1029B000009001916002410F022907D0189A01CAC4
:1029C0001892C2179446032908D00AE01898C01D2F
:1029D000C108C90005C91891944607E000B2C217A2
:1029E0009446042902D140B2C1178C4600226146A8
:1029F000944506DA0A460021404291418C462D2139
:102A000002E0210504D52B216A461173012103E060
:102A1000E10701D02021F7E7029155E00A200AE002
:102A2000102008E0102000900021042004430191B0
:102A3000082703E008200021019100906002410F67
:102A4000022907D0189A01CA189200229446032935
:102A500008D008E01898C01DC108C90005C9189120
:102A6000944603E080B2042900D1C0B20021029153
:102A7000210729D51199702906D0009A1021019BB0
:102A80004A401A4305D00EE040216A4611730121E5
:102A900008E06146014306D030216A46117311995E
:102AA000517302210291009A0821019B4A401A4366
:102AB0000AD16146014301D1610705D530216A463B
:102AC000117301217F1E02911199582904D035A15B
:102AD0000E910DA90D910DE037A1F9E76146019B1B
:102AE000009AFDF724FB0E9B8C469B5C0D9A521EB0
:102AF0000D92137061460143F0D10D9805A9081A93
:102B000020300190600703D501200004844300E0D9
:102B100001270198874201DD381A00E00020019961
:102B200000904118029809180498401A0490E00394
:102B300006D421461A9B199A049800F0B3F9451956
:102B4000002706E003A81A9AC05D199990476D1CEA
:102B50007F1C02988742F5DBE0030CD521461A9BC7
:102B6000199A049800F09EF9451904E01A9A302049
:102B7000199990476D1C0099481E00900029F5DCBA
:102B800008E00D980D990078491C0D911A9A199931
:102B900090476D1C0199481E01900029F1DC63E10A
:102BA0000928010030313233343536373839616223
:102BB00063646566000000003031323334353637E7
:102BC00038394142434445460000000000F05AF9BC
:102BD0004519761C3078002800D0E2E528461BB065
:102BE000F0BD600700D406271898C01DC108C900B1
:102BF00048680A680831C30FDB071891190001D033
:102C00009CA108E0210501D59BA104E0E10701D0CA
:102C10009AA100E09AA1430011985B0810916528E1
:102C20000CD006DC452809D046281DD0472841D1C4
:102C300041E0662818D067283CD13CE00021112FE4
:102C400001DB112000E0781C0191009008A911A877
:102C5000FFF7F6FC139905910021119A15927F1C3C
:102C600012980197009150E00120C00703900120C5
:102C7000019008A9009711A8FFF7E2FC139A149994
:102C800005920022119B009212981593059A0192C9
:102C9000002901D0104602E0791C40180190381A32
:102CA00001D5019804E04042401E0090781C01903C
:102CB000C01B029043E0012F00DA01270021112FF1
:102CC00001DD112000E038460191009008A911A80B
:102CD000FFF7B6FC13990591119A002112981592ED
:102CE0000091019721070CD40599B94201DB0199A4
:102CF00000E00191012904DD159A491E515C30293B
:102D000006D0B84201DA011D05DA0121029115E071
:102D10000199491EEDE7002805DC00994118009152
:102D20000199091A03E0019A411C914200DD0191C9
:102D30000099401A401C02900120C0070390200710
:102D400006D402990198814202DB0020C043029020
:102D500000206946C87707AF012103980337C907E8
:102D6000884224D0022011902B2012900398002832
:102D70000CDA404203902D20129007E00A210398BC
:102D8000FDF7AEF930317F1E039039701199481E5E
:102D900011900029F2DC03980028EFD1791E1298D7
:102DA00008703078202108404530BF1E387006A8D2
:102DB000C01BC01D039010980078002800D001208F
:102DC000019941180298C017091803980918049826
:102DD000401A401E0490E00306D421461A9B199A1B
:102DE000049800F05FF8451910980078002803D087
:102DF0001A9A199990476D1CE00324D521461A9B15
:102E0000199A049800F04EF845191CE00098002823
:102E100007DB00990598884203DD1598405C1999F5
:102E200001E0199930201A9A904700986D1C401CB7
:102E300000900298401E0290002804D11A9A2E2079
:102E4000199990476D1C0199481E01900029DDDCFD
:102E500005E038781A9A7F1C199990476D1C0399E0
:102E6000481E03900029F4DC21461A9B199A049805
:102E7000ACE600002D0000002B0000002000000048
:102E800000000000F8B5044600251E4617468804D9
:102E900004D405E039462020B0476D1C641EF9D5E6
:102EA0002846F8BDFFB50446002581B01E46C8037C
:102EB00001D5302700E02027880404D505E03846F6
:102EC0000399B0476D1C641EF9D5284605B0F0BDC6
:102ED0004A68002A06D00A68531C0B6010704868C4
:102EE000401E4860704700008AB0FDF78BFFFFF777
:102EF000F3F8FEF771FF484841690122114341612F
:102F0000406910400022009011460A20FDF7C2FFE0
:102F10000A20FDF7B5FFFEF7B1FFFEF7D1FFFEF780
:102F2000F9FFFDF7C9FB032080073C4901910090A0
:102F30003BA2062107A8FFF747FB002207A910467E
:102F4000FDF7C0FB38A2062107A8FFF73DFB0022D2
:102F500007A90120FDF7B6FB7D2211460320FDF7EE
:102F600071FB01210320FEF70FFF3048FFF712F835
:102F70002E48FFF717F801284CD02DA2062107A8EC
:102F8000FFF722FB002207A91046FDF79BFBCC268A
:102F900068460673442141730020FF25009001908C
:102FA000022303AA012102952048FFF72DF8214CA6
:102FB0000220401CA042FCD368460673BE21417328
:102FC0008573C573022005A9019000910290042326
:102FD00003AA01211548FFF717F80220401CA04260
:102FE000FCD36846037D14A2062107A8FFF7ECFA7C
:102FF000002207A91046FDF765FB6846437D0EA237
:10300000062107A8FFF7E0FA002207A90120FDF733
:1030100059FBFEE709A2B1E700100240CCCC3640D4
:10302000252E3166000000002D2D2D00E800002027
:103030004572720040420F0025750000204F6B0062
:103040000100020000200800100020004000800065
:103050000100020004000800100020004000800071
:10306000003022636D2D7E02390F764680408052FB
:103070003F065B4F666D7D077F6F09896141435352
:103080005F777F393F79713D76061E763837763F18
:1030900073FE776D313E3E3E766E5B39640F2308DA
:1030A000205F7C585E7B716F74040C783054545CE4
:1030B0007367506D781C1C1C766E5B79064F404917
:1030C00000000000000000000102030406070809D8
:1030D0000000000001020304F83000080000002096
:1030E000600000002226000858310008600000201F
:1030F00070050000322600080000000000000000FB
:1031000000000000000000000000000000000000BF
:1031100000000000000400480004004800000048CF
:10312000000400480004004800040048000400486F
:10313000000400480000004800000048000000486B
:10314000000000480000004800000048000000485F
:083150000000004800127A00A3
:04000005080000B13E
:00000001FF
