:020000040800F2
:10000000F8060020C5000008CD000008CF00000859
:1000100000000000000000000000000000000000E0
:10002000000000000000000000000000D1000008F7
:100030000000000000000000D3000008A10B000831
:10004000D700000800000000D7000008D700000813
:10005000D7000008D7000008D7000008D700000824
:1000600000000000D7000008D7000008D7000008F3
:10007000D7000008D7000008D700000800000000E3
:10008000D70000080000000000000000D7000008B2
:1000900000000000D7000008D7000008D7000008C3
:1000A00000000000D700000800000000D700000892
:1000B0000348854600F03CF8004800471D1500083D
:1000C000F80600200448804704480047FEE7FEE7A2
:1000D000FEE7FEE7FEE7FEE7F10B0008B1000008CF
:1000E00030B50B46014600202022012409E00D46D0
:1000F000D5409D4205D31D469540491B2546954058
:1001000040191546521E002DF1DC30BD03460B434D
:100110009B0703D009E008C9121F08C0042AFAD2BD
:1001200003E00B780370401C491C521EF9D2704743
:10013000064C0125064E05E0E36807CC2B430C3C3A
:1001400098471034B442F7D3FFF7B6FF0018000801
:100150002018000831B500F0B9F8044600F0B6F8F0
:100160000099001B8842F9D338BD0000F8B5002380
:100170008DE001249C40A44622407DD04C68022C96
:1001800001D0122C0CD1DC08A40027183C6A5D07B2
:10019000ED0E0F26AE40B4430E69AE4026433E62DC
:1001A00005685E000324B4400F79A543BF07BF0F65
:1001B000B7402F4307604D68012D05D0022D03D0B5
:1001C000112D01D0122D0ED18568CF68A543B740FF
:1001D0002F43876047686546AF430D79ED06ED0F05
:1001E0009D403D434560C568A5438C68B4402C43A1
:1001F000C4604C68E40049D5284CA5690126354304
:10020000A561A4699D0834400094254CAD002F19C8
:10021000BC689D072E0F0F25B540AC430925ED06A0
:10022000A84201D100250FE01E4DA84201D10125B1
:100230000AE01D4DA84201D1022505E01B4DA84250
:1002400001D1032500E00525B5402543BD60184CCC
:1002500025684E689543F60300D51543256065680B
:100260004E689543B60300D515436560A5684E6892
:100270009543F60202D500E008E01543A560E56865
:100280004E689543B60200D51543E5605B1C0A68CD
:100290001446DC4000D06CE7F8BD000000100240BE
:1002A000000001400004004800080048000C00481D
:1002B000000401400069084000D001207047002A76
:1002C00001D0816170478162704700000148006879
:1002D000704700002000002002480168491C0160AE
:1002E000704700002000002010B506480168102269
:1002F00011430160002000F007F800F017F800201B
:1003000010BD00000020024010B5044600F0F2F8D5
:100310007D21C900FFF7E4FE00F012FB0022214618
:10032000501E00F015F8002010BD000008B5074869
:10033000816901221143816180691040002200908F
:100340001146501E00F004F808BD000000100240E5
:1003500010B500F003FC10BDF8B5054662480E4626
:100360000068F021C007C00F604CB04254D25E4814
:10037000026852085200324302600068C007C00F92
:10038000B0426ED12878800704D560688843A96898
:10039000084360602878C00728D06868012814D016
:1003A0002168022814D0890700295ADA616889086F
:1003B000890001436160FFF789FF064668680128EC
:1003C0000ED04B4F022817D021E021688903EBE7BC
:1003D0008901E9E7FFF77AFF801BB84201D961E0A4
:1003E000434F60680007800F0128F3D16DE0FFF7ED
:1003F0006DFF801BB84255D860680007800F022847
:10040000F5D162E0FFF762FF801BB8424AD860680E
:100410000007800FF6D158E02878800704D560687F
:100420008843A968084360602878C00740D068689E
:10043000012813D02168022814D08907002942DA44
:1004400061688908890001436160FFF73FFF074643
:10045000686801280ED0022818D025E02168890399
:10046000ECE730E08901E9E7FFF730FFC11B2048E6
:10047000814217D860680007800F0128F4D117E087
:10048000FFF724FFC11B1A4881420BD860680007A0
:10049000800F0228F4D10BE0FFF718FFC11B1448AE
:1004A000814201D90320F8BD60680007800FF3D1B5
:1004B0000D48016849084900314301600068C007E0
:1004C000C00FB04201D00120F8BD2878400706D502
:1004D0006068072109028843E968084360600020DA
:1004E000FFF712FF0020F8BD00200240001002407C
:1004F0008813000010B500F011F805494968054A55
:100500000906090F515CC8400349086010BD00008E
:1005100000100240E41700080000002010B512A3EC
:100520000FCB88B06C460FC413A30FCB0FC4164972
:100530004A680C20134603401448042B0FD0082BA4
:100540000DD193021B0F6C46E45CC96A04AB09072A
:10055000090F595CD20304D5FFF7C2FD604308B010
:1005600010BD0B486043FAE70203040506070809BB
:100570000A0B0C0D0E0F10100102030405060708EC
:10058000090A0B0C0D0E0F100010024000127A0029
:1005900000093D00F8B504460078DF4DC0075FD084
:1005A00068680007800F012807D068680007800F7F
:1005B000022809D16868C00306D5286880034FD592
:1005C000606800287ED04BE0286801263604B043DE
:1005D00028602868B700B8432860FFF777FE0090CE
:1005E00006E0FFF773FE0099411ACC4881426AD8B1
:1005F00028688003F5D4606801280AD0002801D05B
:10060000052808D029682846B14329602968B943DC
:1006100007E0284603E02968284639432960016835
:1006200031430160606800280DD0FFF74FFE064699
:10063000BA4F04E0FFF74AFE801BB842D7D82868BB
:100640008003F7D50CE0FFF741FE0646B34F04E008
:10065000FFF73CFE801BB842C9D828688003F7D456
:1006600020780127800700283DDA68680007800F9E
:1006700007D068680007800F022809D16868C003A6
:1006800006D42868800715D5E06801281AD111E042
:10069000E0680028286817D038432860FFF716FE66
:1006A000064604E0FFF712FE801B64289FD82868E6
:1006B0008007F7D52868F82188432169C9000843D5
:1006C000286010E025E1CCE0400840002860FFF7FA
:1006D000FDFD064604E0FFF7F9FD801B642886D87F
:1006E00028688007F7D42078000721D5206A0028E1
:1006F000686A0ED038436862FFF7E8FD064604E0FA
:10070000FFF7E4FD801B642898D8686A8007F7D556
:100710000EE0400840006862FFF7D8FD064604E09E
:10072000FFF7D4FD801B642888D8686A8007F7D457
:10073000207804264007002866DAE969B0060143FC
:10074000E961E96901407648009101688215114329
:100750000160FFF7BBFD009005E0FFF7B7FD0099D2
:10076000401A64287DD86E480068C005F5D5286A0F
:10077000400840002862286AB0432862FFF7A6FDBF
:10078000009006E0FFF7A2FD0099411A63488142FC
:1007900067D8286A8007F5D4A06801280BD0002804
:1007A00001D0052809D0296A28464908490029624C
:1007B000296AB14307E0284603E0296A2846314305
:1007C0002962016A39430162A06800280ED0FFF750
:1007D0007DFD009006E0FFF779FD0099411A4F4832
:1007E00081423ED8286A8007F5D50DE0FFF76EFDFF
:1007F000009006E0FFF76AFD0099411A47488142E0
:100800002FD8286A8007F5D42078C00635D56069CE
:1008100001280CD0401D686B24D030436863686B9E
:10082000400840006863FFF751FD064622E0686B10
:1008300030436863686B38436863FFF747FD0646DB
:1008400004E0FFF743FD801B64285BD8686B8007DA
:10085000F7D5686BF8218843A169C900084368632C
:100860000BE04FE0B0436863F3E7FFF72FFD801B19
:10087000642847D8686B8007F7D4606A002846D0A0
:1008800069680907890F022943D001263606022824
:10089000286805D0B0432860FFF718FD044633E010
:1008A000B0432860FFF712FD074604E0FFF70EFD96
:1008B000C01B642826D828688001F7D4E86A216B19
:1008C000000900010843E862A16AE06A0843696818
:1008D0003D22120491430843686028683043286031
:1008E000FFF7F4FC044604E0FFF7F0FC001B64286B
:1008F00008D828688001F7D509E0FFF7E7FC001B5E
:10090000642801D90320F8BD28688001F5D40020AF
:10091000F8BD0120F8BD000000100240881300005F
:1009200000700040042204490428086902D0904362
:10093000086170471043FBE700E000E070470000EB
:10094000094910B5401E884201D9012010BD074C4D
:1009500060610321081F00F001F90020A061072059
:100960002061002010BD0000FFFFFF0000E000E05C
:1009700010B5FFF7E3FF10BD70B502462032137EBD
:10098000012B1BD00123137602245476046865687A
:100990007026B5436560046865680E683543656018
:1009A0000468A5688026B543A56000688468496826
:1009B0000C43846053760020107670BD022070BD19
:1009C000F8B50D46040005D026462036707E002876
:1009D00002D006E00120F8BD00203076204600F06D
:1009E0003BF80220707620688168C908C9008160E0
:1009F000211D206800F02AF9226890689369116A25
:100A00002F680743BC461248AF6903403F021F43AB
:100A1000A868104B3843EF6918403F020743EB6862
:100A200028693B432F6A00013F0338431843AA2338
:100A300099436B686D6967462D010D432B439760A1
:100A40002168886120680362012070760020F8BD6B
:100A5000FCFCFFFF0303FFFF00B500680D4987B0F2
:100A6000884214D10C48C26902210A43C261C0699C
:100A7000019108400590C0200090012100200390C2
:100A80000291049109206946C006FFF76FFB07B089
:100A900000BD00000004004000100240F0B51A48FC
:100AA00087B04269012189050A43426142690A40CF
:100AB0000592426949110A43426142690A4005921E
:100AC000426949000A434261406901240840059097
:100AD0000E48002503266A4671C209206946C006F1
:100AE000FFF744FB0A4F009469463846019502948B
:100AF000FFF73CFB3A206A4671C269463846FFF769
:100B000035FB07B0F0BD00000010024030FF0000D0
:100B10000004004810B50F490F488CB0002412C0E3
:100B2000046044608460012000900194029003946A
:100B30000690049405940794694608940648FFF7C4
:100B40003FFF099409A904480A94FFF715FF0CB068
:100B500010BD0000000400402C0000208307FF228D
:100B6000DB0E9A408907090E994000280BDA00072E
:100B7000000F0838830808489B001818C36993437E
:100B80000B43C3617047830804489B001B18186817
:100B9000904308431860704700ED00E000E400E077
:100BA00010B5FFF799FBFFF7E3FE10BD30B591B02C
:100BB0000220009000241020099401250490039540
:100BC0006846FFF7E7FC0E940F9400210DA80D95E1
:100BD0001094FFF7C1FBFFF78DFC7D21C900FFF7E3
:100BE0007FFAFFF7ADFE0420FFF79CFE11B030BD89
:100BF000134801680122114301604168114A114004
:100C000041600168104A11400160016801229204AC
:100C10009143016041683F22120491434160C16ADF
:100C200009090901C162016BFF221432914301637A
:100C3000416B490849004163002181607047000011
:100C4000001002400CB8FF08FFFFF6FE70B5026806
:100C5000164B174D984201D0A84204D11446702675
:100C60004A68B4432243134C134E984208D0A8421A
:100C700006D0124DA84203D0A04201D0B04204D108
:100C800003252D02AA43CD682A4302608A68C26206
:100C90000A688262984203D0A04201D0B04201D1DA
:100CA000096901630121416170BD0000002C014010
:100CB0000004004000440140004801400020004082
:100CC0000FB41CB50A46521E0192009007A9064BAC
:100CD0006A46069800F01AF8009A002111701CBCB0
:100CE00008BC04B0184700005D0E000802E008C808
:100CF000121F08C1002AFAD170477047002001E096
:100D000001C1121F002AFBD170470000FFB58DB052
:100D10000446002506E025280AD0109A0F9990472E
:100D2000641C6D1C20780028F5D1284611B0F0BD58
:100D300000270121484A009700E00743641C2378FC
:100D40000846203B98401042F7D120782E2817D132
:100D5000042007436078641C2A280CD10E98641C78
:100D600002C800910E900BE000990A2251433039DD
:100D70004018641C00902078014630390929F3D9C5
:100D800020780028D1D0642808D0692806D075289A
:100D90001ED0109A0F9990476D1C5BE00A200E99A7
:100DA000019001C90E91002802DA40422D2102E093
:100DB000390504D52B216A461172012103E0F90798
:100DC00004D02021F7E70BAE0B910DE00021FAE7EC
:100DD0000A200E99019001C90E91F7E70199FFF7DA
:100DE0007FF93031761E31700028F7D103A8801BBF
:100DF00020300190780701D5009801E00120009093
:100E00000199884201DD401A00E00020002700908F
:100E100006E002A8109AC05D0F9990476D1C7F1CD8
:100E20000B988742F5DB04E0109A30200F99904729
:100E30006D1C0099481E00900029F5DC05E0307813
:100E4000109A761C0F9990476D1C0199481E0190CD
:100E50000029F4DC641C65E7092801004A68002ABF
:100E600006D00A68531C0B6010704868401E48602A
:100E7000704710B5FFF76EF910BD000010B50028DF
:100E800023D0124B0022001F196803E0814203D8CF
:100E90000A4649680029F9D1002A0AD01368841A41
:100EA0009C4204D1006818181060104602E050609F
:100EB00000E01860002907D002680B1A934203D1A2
:100EC0000B68D21802604968416010BD2400002000
:100ED000FEE7000010B504000DD0606800280FD0B8
:100EE0000121204600F020F8002803D1616808485D
:100EF0008847002010BD8268002A07D0D32103E074
:100F0000A268002A02D0D42102A09047012010BD7F
:100F1000B80B00002E2E5C5372635C686434343767
:100F200038302E630000000010B5002803D00022E6
:100F300000F0E4F910BD8268002A03D0FF219A3145
:100F400001A09047012010BD2E2E5C5372635C6897
:100F50006434343738302E630000000070B504006C
:100F60000AD0606800280DD02568002D12D068686E
:100F7000002815D0002630E08268002A16D0FF2114
:100F8000793104E0A268002A10D0FF217A3123A031
:100F900090470BE0A268002A08D0FF217B31F6E7DA
:100FA000A268002A02D0FF217C31F0E7012070BD49
:100FB0002B68002B07D0E07D8019C1B201222846A2
:100FC00098470028F3D1E07D6B688019C1B20022F8
:100FD000284698470028EAD1761CA069B042E7D895
:100FE00061681348884700226B6811462846984775
:100FF0000028DCD100226B68012128469847002890
:10100000D5D1207BC00706D000226B68022128467C
:1010100098470028CBD1002070BD00002E2E5C53D5
:1010200072635C686434343738302E63000000002B
:1010300050C3000010B5002808D0417C04221143A1
:10104000417408221143FFF76FFF10BD8268002A28
:1010500003D0FF21233102A09047012010BD0000E2
:101060002E2E5C5372635C686434343738302E63E0
:1010700000000000FFB581B00A9F040051D0002A93
:1010800054D01568002D58D0686800285AD056688A
:10109000002E5CD0049800285ED0002F61D0D1686B
:1010A0009068E160A06060C42B68083C002B20D0F1
:1010B0000122002128469847002858D101222B6898
:1010C000114628469847002851D1207BC00706D0FA
:1010D00001222B68022128469847002847D1207B0F
:1010E000800710D501222B68032128469847002845
:1010F0003DD1207B800706D500226B68032128465E
:101100009847002833D1029A002108200425002A9C
:101110002FD010222274E575A0610B9A012A2CD0E1
:101120002DE08268002A21D0552103E08268002A40
:101130001CD0562144A0904718E08268002A15D0A0
:101140005721F7E7A268002A10D05821F2E7A268D9
:10115000002A0BD05921EDE7A268002A06D05A21B7
:10116000E8E7A268002A01D05B21E3E7012005B08F
:10117000F0BD2174E075A561CFE7012F29D0012FC3
:1011800002D9227C02432274049820756775A175E8
:101190002046FFF7E3FE0028E8D1217C2027C8067F
:1011A00000281ADA39432046FFF7BEFE0028DED1B8
:1011B0002A48B047217C20463943FFF7B5FE002876
:1011C000D5D19620B047217C20463943FFF7ACFEAD
:1011D0001FE0207C28432074D6E70321204600F03E
:1011E000D5F80028C3D11D48B0470321204600F0A0
:1011F000CDF80028BBD11948B0470321204600F0A4
:10120000C5F80028B3D19620B0470221204600F04F
:10121000BDF80028ABD1217C20463943FFF784FE7E
:101220000028A4D165742046FFF704FF00289ED152
:101230002046FFF74FFE002899D10220A074062116
:101240002046FFF771FE92E72E2E5C5372635C68B6
:101250006434343738302E630000000094110000ED
:1012600070B5002824D00468002C27D06368002BB8
:101270002CD04568002D2FD0002201212046984710
:10128000002814D10120A847012263681146204696
:10129000984700280BD10120A8470022636801214C
:1012A00020469847002802D16420A847002070BD3E
:1012B0008268002A16D0FF21EF3104E08268002AFC
:1012C00010D0FF21F03108A090470BE08268002A7F
:1012D00008D0FF21F131F6E78268002A02D0FF2111
:1012E000F231F0E7012070BD2E2E5C5372635C6812
:1012F0006434343738302E630000000070B50E4679
:10130000040022D02568002D25D06B68002B2AD040
:10131000002128469847002816D1207BC00706D018
:1013200000226B6802212846984700280CD1207CB7
:10133000C00605D43109204600F028F8002803D162
:101340003146204600F022F870BD8268002A10D095
:10135000FF21A63104E08268002A0AD0FF21A731CC
:1013600005A0904705E08268002A02D0FF21A8313D
:10137000F6E7012070BD00002E2E5C5372635C689E
:101380006434343738302E6300000000F8B50F465F
:1013900004000AD02568002D0DD02868002812D03E
:1013A0006868002815D0002631E08268002A16D02F
:1013B000FF21BE3104E08268002A10D0FF21BF3136
:1013C00016A090470BE0A268002A08D0FF21C03188
:1013D000F6E7A268002A02D0FF21C131F0E7012020
:1013E000F8BDE07D2B688019C1B2012228469847DC
:1013F0000028F5D13846F040C207E07DD20F8019B1
:10140000C1B26B68284698470028E9D1761CA069CC
:10141000B042E6D82046FFF723FFF8BD2E2E5C53DE
:1014200072635C686434343738302E630000000027
:1014300010B5002803D00122FFF760FF10BD8268BD
:10144000002A03D0FF21A03101A09047012010BD48
:101450002E2E5C5372635C686434343738302E63EC
:101460000000000010B5FFF7E3FF10BD70B50C469B
:10147000050002D0002C13D104E08268002A07D0B6
:10148000C82103E08268002A02D0C92107A0904742
:10149000012070BD2846641CFFF7E4FF0028F8D146
:1014A00021780029F6D1002070BD00002E2E5C535B
:1014B00072635C686434343738302E630000000097
:1014C00000B59FB06022114902A8FEF71FFE114926
:1014D0000F480EC90EC0602202A9FEF717FE0C4984
:1014E0000D48C866094860300FC81D931AAB07C382
:1014F0000220009000210648019110231AAA012120
:101500001C38FFF7B7FD1FB000BD000074170008BE
:1015100084000020F4170008D10E0008FEF7E4FE56
:10152000FFF744FBFFF7BAFAFFF7F4FAFFF7C8FF3B
:101530007D27144CFF0020686168884201D3401A5F
:1015400001E0401A401EB842F5D3206860600E48A2
:10155000057D6D1C284600F01BF806460BA22946A7
:10156000A368FFF7ADFBA068401CA0600648FFF72A
:10157000B1FC31460448FFF779FF3046FFF77EFCA7
:10158000D9E7000014000020680000202564000056
:10159000F0B50B30C108C900144F0026144A0FE003
:1015A00003688B420BD38B4205D95C1A43184568FC
:1015B00030C3083B00E04368136002C004E0021D32
:1015C00010680028ECD13046002803D13868002884
:1015D00001D00020F0BD064A06481060064A121AE3
:1015E000D208D20044C001203860D7E7280000208C
:1015F00024000020FC000020F802002010B586B076
:10160000002821D0C9000C180C3422D021680029F0
:1016100026D0012101910021032303930291002A86
:1016200025D0012A05D0C26E002A02D03C2111A08B
:101630009047A08800902068002802D06946FEF7F5
:1016400095FD002006B010BDC26E002A0DD02321EA
:1016500003E0C26E002A08D0282106A0904704E0CB
:10166000C26E002A01D02921F7E70120EAE70191A3
:10167000DFE700002E2E5C5372635C6864343437FD
:1016800038305F73746D3332663078782E630000C3
:1016900010B51446002812D0002C15D0C900091826
:1016A0000C3118D00A68002A1AD089881046FEF733
:1016B00001FE002800D001202070002010BDC26E65
:1016C000002A12D05C2103E0C26E002A0DD05D21F9
:1016D00007A0904709E0C26E002A06D06221F7E712
:1016E000C26E002A01D06321F2E7012010BD000084
:1016F0002E2E5C5372635C686434343738305F7309
:10170000746D3332663078782E63000010B500288F
:101710000FD0C90009180C3110D00B68002B14D061
:10172000002A00D0012289881846FEF7C8FD002053
:1017300010BDC26E002A0DD04B2103E0C26E002AFC
:1017400008D0502104A0904704E0C26E002A01D0C6
:101750005121F7E7012010BD2E2E5C5372635C68A7
:101760006434343738305F73746D33326630787870
:101770002E63000000040048080000000004004838
:1017800020000000000400481000000000000000DD
:1017900000000000000000480001000000000048B8
:1017A00000020000000000480004000000000048A3
:1017B0000008000000000048001000000000004881
:1017C0000020000000000048004000000000004829
:1017D0000080000084000020730E0008D10E000875
:1017E00001000000000000000102030401020304E4
:1017F00006070809FD1500080D17000891160008D6
:1018000020180008000000202C000000EC0C00084C
:101810004C1800082C000020CC060000FC0C00082E
:1018200000127A0000000000000000000102030422
:10183000060708090000000000000000000000008A
:0C1840000000000000000000000000009C
:04000005080000B13E
:00000001FF
