:020000040800F2
:100000008008002091010008B7010008B90100082C
:1000100000000000000000000000000000000000E0
:10002000000000000000000000000000BB0100080C
:100030000000000000000000BD010008BF01000832
:10004000C101000800000000C1010008C101000852
:10005000C1010008C1010008C1010008C101000878
:1000600000000000C1010008C1010008C101000832
:10007000C1010008C1010008C10100080000000022
:10008000511200080000000000000000C10100083B
:10009000C1010008C1010008C1010008C101000838
:1000A000C1010008C1010008C10100084513000892
:1000B000C101000800F002F800F03EF80CA030C8C2
:1000C000083824182D18A246671EAB4654465D46D4
:1000D000AC4201D100F030F87E460F3E0FCCB64660
:1000E0000126334200D0FB1AA246AB4633431847E1
:1000F0007823000098230000103A02D378C878C112
:10010000FAD8520701D330C830C101D504680C6059
:10011000704700000023002400250026103A01D378
:1001200078C1FBD8520700D330C100D50B607047AF
:100130001FB51FBD10B510BD00F00EFC1146FFF736
:10014000F7FF01F02DFE00F026FC03B4FFF7F2FFED
:1001500003BC00F0D5FB000070B505460C46164602
:1001600002E00FCC0FC5103E102EFAD2082E02D39B
:1001700003CC03C5083E042E07D301CC01C5361FAE
:1001800003E021782970641C6D1C761EF9D270BDC5
:100190000F4880F308880F480168090E0E4A914203
:1001A00005D10E480E4901600E480F4901600F4805
:1001B00080470F480047FEE7FEE7FEE7FEE7FEE761
:1001C000FEE700000B480C490C4A0D4B704700003D
:1001D00080080020040000001F00000018100240EA
:1001E000010000000000014000000000691100084B
:1001F000B500000880020020800800208004002054
:1002000080040020002000F081FBFFF793FF012015
:1002100000F076FBF8B5042A2CD3830712D00B78B4
:10022000491C0370401C521E83070BD00B78491CDD
:100230000370401C521E830704D00B78491C0370C6
:10024000401C521E8B079B0F05D0C91ADF002023CC
:10025000DE1B08C90AE0FFF77FFFF8BD1D4608C98D
:10026000FD401C46B4402C4310C0121F042AF5D296
:10027000F308C91A521EF0D40B78491C0370401CB5
:10028000521EEAD40B78491C0370401C012AE4D4A6
:1002900009780170F8BD002203098B4273D3030A69
:1002A0008B4258D3030B8B423CD3030C8B4221D39C
:1002B00012E003460B437FD4002243088B4274D3E1
:1002C00003098B425FD3030A8B4244D3030B8B4257
:1002D00028D3030C8B420DD3FF22090212BA030C60
:1002E0008B4202D31212090265D0030B8B4219D341
:1002F00000E0090AC30B8B4201D3CB03C01A524161
:10030000830B8B4201D38B03C01A5241430B8B42A8
:1003100001D34B03C01A5241030B8B4201D30B0391
:10032000C01A5241C30A8B4201D3CB02C01A5241B8
:10033000830A8B4201D38B02C01A5241430A8B427B
:1003400001D34B02C01A5241030A8B4201D30B0264
:10035000C01A5241CDD2C3098B4201D3CB01C01A7E
:10036000524183098B4201D38B01C01A5241430988
:100370008B4201D34B01C01A524103098B4201D376
:100380000B01C01A5241C3088B4201D3CB00C01AE3
:10039000524183088B4201D38B00C01A524143085B
:1003A0008B4201D34B00C01A5241411A00D2014680
:1003B0005241104670475DE0CA0F00D04942031019
:1003C00000D34042534000229C4603098B422DD368
:1003D000030A8B4212D3FC22890112BA030A8B4210
:1003E0000CD3890192118B4208D3890192118B425F
:1003F00004D389013AD0921100E08909C3098B42E4
:1004000001D3CB01C01A524183098B4201D38B0126
:10041000C01A524143098B4201D34B01C01A5241C9
:1004200003098B4201D30B01C01A5241C3088B420E
:1004300001D3CB00C01A524183088B4201D38B00F9
:10044000C01A5241D9D243088B4201D34B00C01A83
:100450005241411A00D20146634652415B10104698
:1004600001D34042002B00D54942704763465B10E0
:1004700000D3404201B50020C046C04602BD7047CF
:1004800070477047F0B50C46871A9C410D46861A96
:100490009D4103D2C01BA141D21963410D0D1F0D17
:1004A000C94EEC1BAE435CD07F057F0D0026002FAC
:1004B00051D02D05AC46A943DD020123ED0A1B05F1
:1004C0001D4320231B1B24D41746E74038187141D5
:1004D0002F46E740CC199D402818314661410C0D4C
:1004E00027D161449A4013D50023401C5941520042
:1004F0000ED14008400001224B005205D34207D3E1
:1005000005204007C14201D5B04900E0B04930465E
:10051000F0BD6B00002A00D001229A181F23203C56
:100520001B1B01D5002302E0E540281871410C0D8A
:10053000D7D0012424050919C407CD07400849086C
:10054000E40F28436144002CD5D00024401C6141B5
:100550009A40D0D1CDE76A05520DD9D1C90FC9074C
:10056000D5E79C4D4E00002801D0012400E0002476
:1005700034195F00002A01D0012600E00026BE19D0
:10058000954FAC420CD8AE420AD8B44206D00125F1
:100590006D05EC42BCD010461946F0BD9942FCD026
:1005A00000203946F0BDF0B51FB40C460F46811A45
:1005B0009F412546861A9D4106D20125ED076F40D1
:1005C000401ABC4152187B41210D1E0D8D1BAC46BB
:1005D0007D4D8D437ED075056D0D7CD00D05AE46ED
:1005E000AC431B031B0B794D52429D4120236646B1
:1005F0009B1B14D31746F74038180026009074410F
:1006000060462F460741E41900989D40281866412E
:1006100016D4714671189A4025D5012320E093180D
:100620002A466A415200002B00D0521C1E23203E55
:100630009B1B002B61DD3541EE1728186641E8D57C
:10064000001876415B1C9A4000D3401C4B05F31800
:100650001524E34010D3002B52D071467118D30FEC
:10066000C01802D3491C05B0F0BD0123DB079A4234
:10067000F9D140084000F6E701225205B21801D135
:10068000002853D00123CC0ADB029943891E002A9B
:1006900008D1020C03D0020C0004103902E002461B
:1006A000002020390023550B05D112020823550BD9
:1006B00001D152010D23550C01D112011B1DD50C86
:1006C00001D192009B1C150D01D152005B1C20250D
:1006D000EE1A01E02CE022E00546F5401543984073
:1006E000CA1AE10769181305C918002ABBDA0320E2
:1006F00040070818C10FC9070FE071466118B2E73B
:10070000F10740080843711071444A000CD00123DE
:100710005B059A42A7D2C90FC9070020A3E7490584
:10072000490D26D1002001E00028F4D100219AE7EC
:10073000284D6600002801D0012100E00021711839
:100740005F00002A01D0012600E00026BE19224FDA
:10075000A94210D8AE420ED8B14208D001256D058D
:10076000E94206D01946A802414010467BE79C4268
:1007700001D0214677E70020394674E710B50C46D2
:100780005C4005D50124E4076340FFF70CFF10BD72
:10079000FFF778FE10BD30B40C465C4004D5012450
:1007A000E407634030BC6DE630BCFCE670B5012464
:1007B000E40761400D465D4002D4FFF763FE70BD63
:1007C0006340FFF7F0FE70BDFF0700000000F0FF80
:1007D0000000F07F0000E0FF0000F87F30B5034626
:1007E000CA02400D1043164D164C0A1502D0204384
:1007F000002A06DBAA1A002A12DDD040FF2A0BDCF1
:1008000030BD5205520D01D140004008AA1A07D44C
:10081000D0404042FF2A01DD002030BD0028FCDD31
:100820004A00002B01D0012000E000201018012216
:100830005205D042F0D8C817C043604030BD000018
:100840001E040000000000801F22030C02D10F22B2
:10085000000402D0030E03D004E0002001467047DC
:100860000002083A030F01D10001121F830F01D1CA
:100870008000921E002801DB4000521E1205511814
:100880004205C012411810467047C10FC90700D079
:100890004042012292071143D6E701218907D3E79D
:1008A00070B505464800440D124B0020002C0AD0BC
:1008B000634008D09A4206DA6642B24203DD12056E
:1008C0004019514170BD002C08D0002B09D0C90F30
:1008D000C907002AF6DB084A114370BDC90FC907D2
:1008E00070BD28460A03104302D00020034970BDA2
:1008F000284670BDFF0700000000F07F0000F87F71
:1009000001491820ABBEFEE72600020010B500F03A
:100910000BF800F002F810BD704710B5002801D0A8
:10092000FFF7EEFF10BD000010B5002102A000F09F
:1009300038F8012010BD0000534947414252543A53
:100940002041626E6F726D616C207465726D696EAC
:100950006174696F6E000000754600F043F8AE46A2
:10096000050069465346C008C000854618B020B54A
:10097000FFF728FC60BC00274908B6460026C0C522
:10098000C0C5C0C5C0C5C0C5C0C5C0C5C0C5403D47
:1009900049008D4670470446C046C0462046FFF7D2
:1009A000D4FB70B505460C460A2000E06D1C00F033
:1009B00012F8002D06D028780028F7D102E0641C38
:1009C00000F009F8002C02D020780028F7D10A2086
:1009D00000F001F870BD08B5694608700320ABBE91
:1009E00008BD00000048704720020020836A0B43C6
:1009F0008362426170470029816803D0012211435C
:100A00008160704702221143816070478268002133
:100A10000123DB071A4382600F231B038268491CF2
:100A2000D20FD207994201D0002AF7D1816800295C
:100A300001DB006C704700207047006C80B270478B
:100A400002460020CB0104D5926801231B069A437D
:100A500000E012680A4200D00120704730B4C36839
:100A6000084A8C6813400A680D792243CC686D03EC
:100A70002C4322430C69496922430A431A43C2604A
:100A800030BC704703D2FFFF8168042211438160AC
:100A900070470021016001718160C16001614161A5
:100AA0007047000010B5012188B0480400F0E4F957
:100AB00003216846069101770024C477092006A91E
:100AC000C00600F01DF80121480200F0EDF968466B
:100AD000FFF7DFFF684600940471029404940594C4
:100AE000064C69462046FFF7B9FF2046FFF78EFF08
:100AF00001212046FFF77FFF08B010BD0024014010
:100B0000F0B4002201273B460C6893401C409C42F5
:100B10002AD10C79012C01D0022C12D18668550003
:100B20000324AC40A64386604C79AC4085682C43D6
:100B3000846084889C43848084888B7993401C43A0
:100B40008480056854000323A3409D4305600D790C
:100B50000668A54035430560C5689D43C560CB79EF
:100B6000A340C4682343C360521C102ACBD3F0BCFB
:100B700070474B07DB0E9A40C90810B4890008186B
:100B8000016A0F249C40A1430162016A1143016282
:100B900010BC70470246128A00200A4200D0012091
:100BA000704701857047816170470000F0B50121F1
:100BB00083B0480400F060F9314800900125684690
:100BC000057100248471032646710927C471FF064C
:100BD00069463846FFF794FF10213846FFF7E3FFD8
:100BE0000720C00200906846047184714471C57189
:100BF00069463846FFF784FF0121880500F03CF97B
:100C00002020009068460571847146711D4FC471A3
:100C100069463846FFF774FF80213846FFF7C3FF67
:100C20000121C80400F028F90720800200906846DE
:100C3000057184714671C47169461348FFF760FFFE
:100C40000121080500F018F904200090684605719C
:100C500084714671C47169460C48FFF751FF012148
:100C6000880400F009F91820009068460571847125
:100C70004671C47169460648FFF742FF03B0F0BDF4
:100C800010C000000014004800080048000C004894
:100C90000004004870B5124D0021287800F022FCB5
:100CA000104C8021204600F005FA8021204600F0FB
:100CB000CEF90128F9D0204600F0FAF9C2212046E9
:100CC00000F0F8F98021204600F0C1F90128F9D0A0
:100CD000204600F0EDF92878012100F003FC70BDFA
:100CE000D600002000300140F8B504465B480021E2
:100CF000007800F0F7FB5A4D0021284600F0DAF9A1
:100D00008021284600F0A3F90128F9D0284600F0F8
:100D1000CFF90021284600F0CDF98021284600F0C7
:100D200096F90128F9D0284600F0C2F9E0700021B8
:100D3000284600F0BFF98021284600F088F90128F4
:100D4000F9D0284600F0B4F907020021284600F047
:100D5000B1F98021284600F07AF90128F9D0284617
:100D600000F0A6F9384306464008208000212846B6
:100D700000F0A0F98021284600F069F90128F9D097
:100D8000284600F095F907020021284600F092F964
:100D90008021284600F05BF90128F9D0284600F0B0
:100DA00087F938434008A0800021284600F082F9E6
:100DB0008021284600F04BF90128F9D0284600F0A0
:100DC00077F907020021284600F074F980212846AF
:100DD00000F03DF90128F9D0284600F069F93843C0
:100DE000E0800021284600F065F98021284600F0C7
:100DF0002EF90128F9D02F46284600F059F9174D51
:100E0000A0702878012100F06DFB002E02D0A078A0
:100E1000002822D02878002100F064FB80213C4685
:100E2000384600F047F98021204600F010F90128EB
:100E3000F9D0204600F03CF9C221204600F03AF9F2
:100E40008021204600F003F90128F9D0204600F067
:100E50002FF92878012100F045FBF8BDD6000020CD
:100E60000030014010B503490870C0B2012100F004
:100E700039FB10BDD6000020044A0029516901D079
:100E8000014300E0814351617047000000100240BF
:100E9000044A0029D16901D0014300E08143D161B6
:100EA0007047000000100240044A0029916901D0F7
:100EB000014300E08143916170470000001002404F
:100EC000F8B5564D0446686800210C22544E104077
:100ED00005D0042803D0082803D00C281AD0266097
:100EE0001AE06968686803228902D2030F0F104074
:100EF000BF1C00280AD0E86A0107090F3046491CC8
:100F0000FFF7C9F978430146216005E045483946B5
:100F10004143F9E7444820606868444F0006000FE9
:100F20003B5C20680246DA4062606B685B055B0FE1
:100F3000FB5CDA40A2602B6BDB0502D43C4BE36028
:100F400006E06B685B0401D4530800E09308E3609B
:100F50002B6B5F06374B02D4374F276100E02361CC
:100F60002F6BFF0601D4666100E060612F6BBF0745
:100F70000ED02F6BBF07BF0F012F0BD02F6BBF07FA
:100F8000BF0F022F08D02F6BFF43BF0706D006E02C
:100F9000A26104E0A06102E0A36100E0A6612F6B02
:100FA000BF03BF0F0FD02F6BBF03BF0F012F0CD09C
:100FB0002F6BBF03BF0F022F09D02F6BBF03BF0FD3
:100FC000032F06D006E0E26104E0E06102E0E361A5
:100FD00000E0E6612F6B3F03BF0F0FD02A6B1203B7
:100FE000920F012A0CD0286B0003800F022809D031
:100FF000286B0003800F032806D006E0226204E07D
:10100000206202E0236200E02662286B000602D420
:1010100005486062F8BD6162F8BD00000010024042
:1010200000127A0000093D00006CDC02C4000020C0
:10103000809FD5000080000012800000402200291F
:10104000018801D0114300E09143018070470246BE
:10105000128900200A4200D00120704730B4038872
:10106000C122920113400A88CC890D892243CC8881
:101070002C4322434C8922438C8922431A43028009
:101080008288094B1A408B88134383800A8A028224
:101090000288042349889A4311430180818B034AC3
:1010A0001140818330BC7047FFF00000FFF7000063
:1010B000007B704701737047F0B5012187B0C80409
:1010C000FFF7DAFE30200090012568460571002404
:1010D000847103264671C47169462148FFF710FDEB
:1010E00001210803FFF7E0FE01214804FFF7C4FED9
:1010F00002276846077146718471C471E020092691
:10110000F606009069463046FFF7FAFC00220721F8
:101110003046FFF72EFD002206213046FFF729FD5D
:10112000002205213046FFF724FD6846072104818F
:1011300009028181C7810582690241822821818259
:10114000C482FF2105314181064C02A92046FFF7E8
:1011500085FF01212046FFF771FF07B0F0BD0000B9
:10116000000800480030014030B4354882B00168C2
:101170000124214301604168324A11404160016805
:10118000314A114001600168A20491430160416845
:101190003F22120491434160C16A09090901C162F9
:1011A000016BFF22543291430163416BA1434163C0
:1011B00000238360019300930168220411430160BE
:1011C000520005252D030168114000910199491C29
:1011D00001910099002902D10199A942F3D1016836
:1011E000890329D5194A1121009411604168416091
:1011F0004168416041687F22D20391434160416868
:1012000011221204114341600168012212061143A8
:10121000016001688901FCD5416889088900416045
:10122000416802221143416041680907890F022980
:10123000FAD102B030BC7047009302B030BC7047A6
:10124000001002400CB8FF08FFFFF6FE002002402D
:1012500010B50A4C0121204600F021F801280BD1DD
:101260000121204600F00EF805480068804709205B
:101270001021C006FFF797FC10BD000000040040DD
:1012800030000020C943018270470029018802D044
:101290000122114301E04908490001807047038A97
:1012A000002280890B400840002B02D0002800D08B
:1012B000012210467047002A828901D00A4300E0CB
:1012C0008A438281704741627047000010B40288EF
:1012D000154B984206D00124A407A04202D0134C1B
:1012E000A04203D17024A2434C882243104CA04258
:1012F00003D0104C22400C89224302804A68C2620B
:101300000A880285984208D00B4A904205D00B4AC1
:10131000904202D00A4A904201D1897A0186012185
:10132000818210BC70470000002C01400004004086
:1013300000100040FFFC000000400140004401405C
:101340000048014070B5104C0E49204600F03AF8B4
:10135000012807D109201021C006FFF722FC0B4805
:10136000006880470A4D2046294600F02BF80128E6
:1013700006D12946204600F00FF80648006880474D
:1013800070BD000005010500003801402800002064
:10139000070107002C0000200A0C01219140016286
:1013A00070470029016802D00122114301E0490879
:1013B0004900016070470246D26900200A4200D00D
:1013C0000120704730B40A04130E01221446002590
:1013D0008C40012B0FD0022B10D083682340090CC6
:1013E000C0698A401040002B02D0002800D001259F
:1013F000284630BC704703682340F0E74368EDE7B8
:1014000010B40B041C0E01238B40022C02D0032CC1
:1014100002D002E0001D00E008300168002A01D07F
:10142000194300E09943016010BC704730B5044691
:1014300000688BB00D4640084000206060680321C2
:1014400009038843A9680143616020681C49EA6870
:101450000840696811432A69024311432160A0686A
:1014600003210902884369690143A1606846FFF7C7
:1014700027FD1448844201D106980AE012488442AC
:1014800001D1079805E01148844201D1089800E095
:10149000029821680904296800D54000FEF7FBFE88
:1014A0002A6852088A4200D8401C2168090404D5E1
:1014B0000107074A490F10400843A0810BB030BD17
:1014C000F3E9FFFF003801400044004000480040BD
:1014D000F0FF0000808CC005C00D7047C905C90D24
:1014E0000185704710B50E4A002808D0012805D1A3
:1014F000002910D020211046FFF755FB10BD002910
:1015000004D010211046FFF74EFB10BD10211046ED
:10151000FFF747FB10BD20211046FFF742FB10BD2F
:101520000008004870B5064D00242878012802D034
:101530000624204670BD2869804700202870F8E7FF
:101540000800002070B50C460988002505292ED119
:101550004178184E0A0281781143C278491C13025F
:10156000027989B21A43531EB34220D2002323804A
:101570000123037023885B1C2380401C530702D087
:10158000D3085B1C00E0D308DEB206702388401C41
:101590005B1C2380002300F0DBFA002803D000F05E
:1015A00073FC054604E020888019208000E00325B4
:1015B000284670BDCF07000070B50C46098800258D
:1015C00005292DD14178184E0A0281781143C2783D
:1015D000491C1302027989B21A43531EB3421FD227
:1015E000002323800223037023885B1C2380401C7C
:1015F000530702D0D3085B1C00E0D308DEB20670AC
:101600002388401C5B1C238000F0A4FA002803D030
:1016100000F03AFC054604E020888019208000E0B4
:101620000325284670BD0000CF07000070B50C46AA
:1016300009880025052923D141780A0281781143C0
:101640000279491C531E89B27C2B19D800232380B0
:1016500003230370238856005B1C23804670238875
:10166000801C5B1C2380002300F076FA002803D046
:1016700000F00AFC054604E020888019208000E084
:101680000325284670BD70B50C460988002505293C
:1016900025D141780A0281781143C278491C13028E
:1016A000027989B21A43531E7C2B18D2002323805F
:1016B00004230370238856005B1C23804670238814
:1016C000801C5B1C238000F0BDFA002803D000F0D2
:1016D000DBFB054604E020888019208000E003251C
:1016E000284670BDF8B50446088800270D460A282C
:1016F00044D360780102A0780843401C80B2009077
:10170000E0782679000206436079227A0102A07906
:10171000731E0843401C81B2E07900020243607AE4
:101720007C2B2AD8002A28D0792A26D85300834235
:1017300023D1204601230A3000F00EFA002814D1EC
:1017400000212980172121702988601C491C2980CB
:101750007400047029880023491C29803246401CEB
:10176000009900F0F9F9002803D000F08DFB07463E
:1017700004E028880019288000E003273846F8BDD7
:1017800070B5064C0D4622880549401CFEF742FD07
:101790002088401C2880002070BD0000B40000207C
:1017A0000001002038B50988002405290DD14178B1
:1017B0000A0281781143491C027989B2002A04D1B6
:1017C000C278FF2A04D0002A02D00324204638BD64
:1017D00000226B465A70C078FF280BD01A70012384
:1017E0001A46684600F0B4F90028EFD000F04CFB30
:1017F0000446EBE701201870F1E710B509880024D2
:10180000052902D00324204610BD417801230A0295
:101810008178C01C1143491C89B21A4600F09CF91A
:101820000028F0D000F030FB0446ECE7F8B50D4698
:1018300009880024052926D9417846790A02817849
:101840001143491C89B28C46C178027909020A43C6
:10185000510702D0D108491C00E0D1080B4F531E9C
:10186000C9B2BB420FD8B1420DD101236146801DE0
:1018700000F06EF9002803D000F006FB044603E0F8
:101880000520288000E003242046F8BDAF070000B3
:1018900070B50D460988002406291ED341780A0236
:1018A00081781143C278491C1302027989B21A4324
:1018B0004379561E772E10D85606360E9E420CD10E
:1018C0000123801D00F048F9002803D000F0DCFA65
:1018D000044603E00520288000E00324204670BD74
:1018E000F8B51E46069B17460546002906D0F7297F
:1018F00004D8144C08462171002D01D002261CE0AA
:1019000011492161114961611149E1601149A161E8
:101910000021E16110492162104961621049A16210
:101920003246394600F082F8060006D100F03EFB50
:10193000002804D06571012020703046F8BD0326D0
:10194000FBE70000080000201D1B00083D1B0008ED
:10195000C11A00086D1A0008492100080922000870
:10196000BD21000838B52C4C2078002801D0062075
:1019700038BD684600F00CFB01284AD16846007863
:10198000002846D0012802D0022842D110E0A369E5
:10199000224A23492348984700283AD16078217980
:1019A000884201D0002834D1022000F007FB30E04B
:1019B000A06801210578A570E1701B4A0021CB00C9
:1019C000D35C002B0BD0AB4206D1C90089184A6802
:1019D00012499047E07002E0491C1029EFDB607863
:1019E000002816D0E278002A0ED00020E080A178EE
:1019F00080200143A0680170E188491C89B2E18020
:101A00004254E088401CE080E368E2882079A168C5
:101A10009847002038BD0000080000200E0000207C
:101A200010000020090000203400002070B5154689
:101A30000846002472B60822294600F0D9FA012887
:101A40000ED14B200002854201D9232003E069001A
:101A50000548FEF720FC80B200F048FB012800D0CA
:101A6000032462B6204670BDA07F1700F7B5164666
:101A70000746002572B60F4CA088FF2801D9FEF753
:101A8000C1FBA088042805D3A1880B4800F008FA00
:101A9000002804D0052562B6284603B0F0BD0648EC
:101AA00000783870A088C01E308001990348086013
:101AB000F1E70000B80000202001002021010020F3
:101AC00070B50346002572B6124C6078012803D029
:101AD000052562B6284670BD481E0126A0606680B6
:101AE0000370618889186180618800F0D9F9618884
:101AF000094A5318491C61801870010A608812183D
:101B0000401C6080117026700121002000F0E0F977
:101B1000DFE70000B80000202001002010B572B6F9
:101B20000020054948700146012000F0D1F900F07D
:101B300019FA62B610BD0000B800002010B572B6E8
:101B40000021084600F0C4F900F0F6F962B610BDB5
:101B50000120704701207047F8B5314F0446C8197D
:101B600016460D46072807D8A819FB21C900401EB4
:101B7000884201DC012B01D00120F8BD002E2CD0C1
:101B80002078617800020818E919A41C00B208291D
:101B90001DD20A007A4412799218974403090F2043
:101BA000252A32381F49002805D00920C00609E03F
:101BB0001D490028F9D10920C00606E000281B496C
:101BC0001B4802D0FEF7EFFF01E0FEF7EAFF761EAA
:101BD0006D1CB6B2ADB2002ED2D10020F8BD1549B1
:101BE000002804D01248EDE713490028FAD1104824
:101BF000EBE7002802D004211048E3E704210F4856
:101C0000E3E7002801D0082104E0082105E00028CE
:101C100002D010210A48D5E710210948D5E7000075
:101C20002FF8FFFF004000000080000000040000CB
:101C3000000800480008000000100000000C0048E8
:101C400000040048F8B50E46002100913B491546B6
:101C500072180446032A6CD87219394B521E9A42E4
:101C600067DC002D67D0374F3449711806D0012941
:101C700019D0022928D0032950D13AE00120B862B6
:101C8000014605223846FEF7B1FE3846FEF7FCFE57
:101C900004213846FEF7D4FE0028F9D03846FEF776
:101CA000CCFE00B23AE00220B86201460522384676
:101CB000FEF79CFE3846FEF7E7FE04213846FEF7A5
:101CC000BFFE0028F9D0E9E70020FFF7CBF81E4857
:101CD000FFF70AF81C480088FEF7DFFD0422D24314
:101CE000FEF7DEFD0022194BFEF755FDFEF776FDEF
:101CF000D7E70120FFF7B6F81548FEF7F5FF1448BF
:101D00000088FEF7CAFD0422D243FEF7C9FD002277
:101D10000E4BFEF740FDFEF761FD00B2011221708F
:101D200060706D1E761CADB2A41CB6B2002D9BD1A6
:101D300001E0012000900098F8BD000025F8FFFFA9
:101D4000DE07000000240140EC000020000070408D
:101D5000F600002070B51D46134602460026A81C5A
:101D6000202815D20D480C4C027001222280002937
:101D700000D0FF21417002212180002D09D02A4688
:101D80001946801CFEF746FA20884019208000E0A2
:101D90000426304670BD0000B40000200001002081
:101DA00030A10FC986B000240493039202910190E0
:101DB00072B6FEF7FBFEFEF775FEFFF77DF9002019
:101DC000FFF750F8FEF766FF0120FFF74BF8FEF72C
:101DD00061FF284901200872274909250872C102BC
:101DE000ED062846FEF7D6FE002800D0012401218A
:101DF00009032846FEF7CEFE002800D0A41C0121CE
:101E000049032846FEF7C6FE002800D0241D022004
:101E10002146E1230022009020311B021046FFF7EB
:101E20005FFD0D2301AA01210A20FFF793FF62B68F
:101E3000FFF778FB114D124E124CFFF793FD8021F6
:101E40002846FFF7B8FA012807D020213046FEF7D0
:101E5000A8FE2188491C2180EFE720213046FEF7AB
:101E6000A2FEF6E74D50505F4C6F6769635F5631D5
:101E700030000000EC000020F60000200038014097
:101E80000014004800000020002804D0012803D0DE
:101E9000072803D0042070470220704706207047AF
:101EA00070B4FF231A46491E09D4074D074E047823
:101EB000401C54402A5D5A40335D491EF7D570BC22
:101EC00018021043704700006822000868230008C9
:101ED000F8B50F461549164C002804D001222046BB
:101EE000FFF78EFA03E000222046FFF789FAFF256C
:101EF00009260135F6060F49002F08D00122204699
:101F0000FFF77EFA29463046FEF74DFEF8BD002267
:101F10002046FFF775FA40212046FFF74CFA0028CB
:101F2000F9D029463046FEF73CFEF8BD0501050014
:101F3000003801400701070010B5094C0021204678
:101F4000FFF7A3F900212046FFF7BDF90022012188
:101F50002046FFF7B0F901212046FFF793F910BDA5
:101F60000004004010B5094C01212046FFF78AF912
:101F7000012211462046FFF79EF900212046FFF777
:101F8000A2F901212046FFF780F910BD00040040AE
:101F9000054902464B780020002B04D008781070C9
:101FA0000020487001207047D40000200249002022
:101FB0004870012070470000D4000020024901222F
:101FC0004A70087010467047D400002070B5064D66
:101FD00004462846FFF77EFA207004492846FFF79A
:101FE000DBF9012070BD000000380140050105004B
:101FF000FFB501218BB014464804FEF73DFF0327CF
:102000007F02022168460297017300258573032130
:1020100041730926C573F60602A93046FEF770FD26
:10202000012209213046FEF7A4FD01220A21304693
:10203000FEF79FFD01218803FEF736FF0C98049000
:102040000E9900290AD0601C012904D0022906D16A
:102050004902079100E00797C4B200E00795072CFA
:1020600004D0082C04D0092C07D103E0174803E062
:10207000059502E00120000305900C20144C089007
:10208000069504A909952046FFF7D0F901271149C3
:10209000F806086039462046FFF783F90121480415
:1020A000FEF7EAFEA41568460094077185710321C6
:1020B0004171C57169463046FEF722FD2146304622
:1020C000FEF771FD01200FB0F0BD00000010001000
:1020D0000038014000E100E010B501460248FFF77A
:1020E000FDF9012010BD00000038014010B5044684
:1020F00084B001210220FEF7CBFE10480E49006893
:10210000FEF7C9F801946946401E08800020088146
:102110000B4C48802046FFF7D9F80A49A013086005
:10212000002201212046FFF7C6F800212046FFF7D4
:10213000ACF8012004B010BD204E0000D8000020F3
:102140000004004000E100E038B51A4C002520787A
:10215000002801D0FEF756F86846FFF737FF607891
:10216000002806D01449012806D0022813D00328DD
:102170000FD1FFF7F7FE0CE00020A0806846027840
:10218000A0880918401CA0800A7002206070FFF728
:10219000E9FE284638BDA088FF2807D8684602789F
:1021A000A0880918401CA0800A70E2E70320607034
:1021B000DFE70000B80000202001002070B5114DBD
:1021C0000024687800280ED0022811D0032813D0EC
:1021D0006878002810D0687802280DD06878032825
:1021E0000AD0FEF70FF80020FFF7E8FE044603E0F0
:1021F0000120FFF7E3FE0446FFF79EFE0120687012
:10220000204670BDB800002070B5164C00256078DF
:10221000012801D0FDF7F6FF2078002802D0012820
:102220001DD104E000210120FFF752FE17E0608875
:1022300000280AD0A0680078FFF74EFFA068401C75
:10224000A0606088401E608009E00320FFF7B6FEB2
:10225000054600210120FFF73BFE002020702846A4
:1022600070BD0000B800002000C1814001C0804165
:1022700001C0804100C1814001C0804100C1814056
:1022800000C1814001C0804101C0804100C1814046
:1022900000C1814001C0804100C1814001C0804136
:1022A00001C0804100C1814001C0804100C1814026
:1022B00000C1814001C0804100C1814001C0804116
:1022C00001C0804100C1814000C1814001C0804106
:1022D00001C0804100C1814001C0804100C18140F6
:1022E00000C1814001C0804101C0804100C18140E6
:1022F00000C1814001C0804100C1814001C08041D6
:1023000001C0804100C1814000C1814001C08041C5
:1023100001C0804100C1814001C0804100C18140B5
:1023200000C1814001C0804100C1814001C08041A5
:1023300001C0804100C1814001C0804100C1814095
:1023400000C1814001C0804101C0804100C1814085
:1023500000C1814001C0804100C1814001C0804175
:1023600001C0804100C1814000C0C101C30302C25D
:10237000C60607C705C5C404CC0C0DCD0FCFCE0EC5
:102380000ACACB0BC90908C8D81819D91BDBDA1A35
:102390001EDEDF1FDD1D1CDC14D4D515D71716D6A5
:1023A000D21213D311D1D010F03031F133F3F23215
:1023B00036F6F737F53534F43CFCFD3DFF3F3EFE85
:1023C000FA3A3BFB39F9F83828E8E929EB2B2AEAF5
:1023D000EE2E2FEF2DEDEC2CE42425E527E7E62665
:1023E00022E2E323E12120E0A06061A163A3A262D5
:1023F00066A6A767A56564A46CACAD6DAF6F6EAE45
:10240000AA6A6BAB69A9A86878B8B979BB7B7ABAB4
:10241000BE7E7FBF7DBDBC7CB47475B577B7B67624
:1024200072B2B373B17170B0509091519353529294
:1024300096565797559594549C5C5D9D5F9F9E5E04
:102440005A9A9B5B99595898884849894B8B8A4A74
:102450004E8E8F4F8D4D4C8C4484854587474686E4
:10246000824243834181804088240008000000208C
:10247000EC000000F800000874250008EC000020C3
:102480009407000014010008000000000000000094
:10249000020000000000000000000000000000003A
:1024A000000000000000000000000000000000002C
:1024B000000000000000000000000000110000000B
:1024C00081170008040000008716000803000000C0
:1024D0002D160008100000009118000806000000EA
:1024E000FB17000817000000E516000801000000B7
:1024F0004515000805000000A51700080F000000A2
:102500002D18000802000000B915000800000000A6
:1025100000000000000000000000000000000000BB
:1025200000000000000000000000000000000000AB
:10253000000000000000000000000000000000009B
:10254000000000000000000000000000000000008B
:102550000102030401020304060708090000000049
:10256000006CDC0200000000000000000102030417
:042570000607080949
:04000005080001915D
:00000001FF
